{
  "contractName": "ENJToken",
  "abi": [
    {
      "inputs": [
        {
          "internalType": "address",
          "name": "_crowdFundAddress",
          "type": "address"
        },
        {
          "internalType": "address",
          "name": "_advisorAddress",
          "type": "address"
        },
        {
          "internalType": "address",
          "name": "_incentivisationFundAddress",
          "type": "address"
        },
        {
          "internalType": "address",
          "name": "_enjinTeamAddress",
          "type": "address"
        }
      ],
      "stateMutability": "nonpayable",
      "type": "constructor"
    },
    {
      "anonymous": false,
      "inputs": [
        {
          "indexed": true,
          "internalType": "address",
          "name": "_owner",
          "type": "address"
        },
        {
          "indexed": true,
          "internalType": "address",
          "name": "_spender",
          "type": "address"
        },
        {
          "indexed": false,
          "internalType": "uint256",
          "name": "_value",
          "type": "uint256"
        }
      ],
      "name": "Approval",
      "type": "event"
    },
    {
      "anonymous": false,
      "inputs": [
        {
          "indexed": false,
          "internalType": "address",
          "name": "_prevOwner",
          "type": "address"
        },
        {
          "indexed": false,
          "internalType": "address",
          "name": "_newOwner",
          "type": "address"
        }
      ],
      "name": "OwnerUpdate",
      "type": "event"
    },
    {
      "anonymous": false,
      "inputs": [
        {
          "indexed": true,
          "internalType": "address",
          "name": "_from",
          "type": "address"
        },
        {
          "indexed": true,
          "internalType": "address",
          "name": "_to",
          "type": "address"
        },
        {
          "indexed": false,
          "internalType": "uint256",
          "name": "_value",
          "type": "uint256"
        }
      ],
      "name": "Transfer",
      "type": "event"
    },
    {
      "inputs": [],
      "name": "ENJ_UNIT",
      "outputs": [
        {
          "internalType": "uint256",
          "name": "",
          "type": "uint256"
        }
      ],
      "stateMutability": "view",
      "type": "function"
    },
    {
      "inputs": [],
      "name": "acceptOwnership",
      "outputs": [],
      "stateMutability": "nonpayable",
      "type": "function"
    },
    {
      "inputs": [],
      "name": "advisorAddress",
      "outputs": [
        {
          "internalType": "address",
          "name": "",
          "type": "address"
        }
      ],
      "stateMutability": "view",
      "type": "function"
    },
    {
      "inputs": [],
      "name": "advisorsAllocation",
      "outputs": [
        {
          "internalType": "uint256",
          "name": "",
          "type": "uint256"
        }
      ],
      "stateMutability": "view",
      "type": "function"
    },
    {
      "inputs": [
        {
          "internalType": "address",
          "name": "",
          "type": "address"
        },
        {
          "internalType": "address",
          "name": "",
          "type": "address"
        }
      ],
      "name": "allowance",
      "outputs": [
        {
          "internalType": "uint256",
          "name": "",
          "type": "uint256"
        }
      ],
      "stateMutability": "view",
      "type": "function"
    },
    {
      "inputs": [
        {
          "internalType": "address",
          "name": "_spender",
          "type": "address"
        },
        {
          "internalType": "uint256",
          "name": "_value",
          "type": "uint256"
        }
      ],
      "name": "approve",
      "outputs": [
        {
          "internalType": "bool",
          "name": "success",
          "type": "bool"
        }
      ],
      "stateMutability": "nonpayable",
      "type": "function"
    },
    {
      "inputs": [
        {
          "internalType": "address",
          "name": "",
          "type": "address"
        }
      ],
      "name": "balanceOf",
      "outputs": [
        {
          "internalType": "uint256",
          "name": "",
          "type": "uint256"
        }
      ],
      "stateMutability": "view",
      "type": "function"
    },
    {
      "inputs": [],
      "name": "crowdFundAddress",
      "outputs": [
        {
          "internalType": "address",
          "name": "",
          "type": "address"
        }
      ],
      "stateMutability": "view",
      "type": "function"
    },
    {
      "inputs": [],
      "name": "decimals",
      "outputs": [
        {
          "internalType": "uint8",
          "name": "",
          "type": "uint8"
        }
      ],
      "stateMutability": "view",
      "type": "function"
    },
    {
      "inputs": [],
      "name": "endTime",
      "outputs": [
        {
          "internalType": "uint256",
          "name": "",
          "type": "uint256"
        }
      ],
      "stateMutability": "view",
      "type": "function"
    },
    {
      "inputs": [],
      "name": "enjinTeamAddress",
      "outputs": [
        {
          "internalType": "address",
          "name": "",
          "type": "address"
        }
      ],
      "stateMutability": "view",
      "type": "function"
    },
    {
      "inputs": [],
      "name": "enjinTeamAllocation",
      "outputs": [
        {
          "internalType": "uint256",
          "name": "",
          "type": "uint256"
        }
      ],
      "stateMutability": "view",
      "type": "function"
    },
    {
      "inputs": [],
      "name": "incentivisationAllocation",
      "outputs": [
        {
          "internalType": "uint256",
          "name": "",
          "type": "uint256"
        }
      ],
      "stateMutability": "view",
      "type": "function"
    },
    {
      "inputs": [],
      "name": "incentivisationFundAddress",
      "outputs": [
        {
          "internalType": "address",
          "name": "",
          "type": "address"
        }
      ],
      "stateMutability": "view",
      "type": "function"
    },
    {
      "inputs": [],
      "name": "maxPresaleSupply",
      "outputs": [
        {
          "internalType": "uint256",
          "name": "",
          "type": "uint256"
        }
      ],
      "stateMutability": "view",
      "type": "function"
    },
    {
      "inputs": [],
      "name": "minCrowdsaleAllocation",
      "outputs": [
        {
          "internalType": "uint256",
          "name": "",
          "type": "uint256"
        }
      ],
      "stateMutability": "view",
      "type": "function"
    },
    {
      "inputs": [],
      "name": "name",
      "outputs": [
        {
          "internalType": "string",
          "name": "",
          "type": "string"
        }
      ],
      "stateMutability": "view",
      "type": "function"
    },
    {
      "inputs": [],
      "name": "newOwner",
      "outputs": [
        {
          "internalType": "address",
          "name": "",
          "type": "address"
        }
      ],
      "stateMutability": "view",
      "type": "function"
    },
    {
      "inputs": [],
      "name": "owner",
      "outputs": [
        {
          "internalType": "address",
          "name": "",
          "type": "address"
        }
      ],
      "stateMutability": "view",
      "type": "function"
    },
    {
      "inputs": [],
      "name": "standard",
      "outputs": [
        {
          "internalType": "string",
          "name": "",
          "type": "string"
        }
      ],
      "stateMutability": "view",
      "type": "function"
    },
    {
      "inputs": [],
      "name": "symbol",
      "outputs": [
        {
          "internalType": "string",
          "name": "",
          "type": "string"
        }
      ],
      "stateMutability": "view",
      "type": "function"
    },
    {
      "inputs": [],
      "name": "totalAllocated",
      "outputs": [
        {
          "internalType": "uint256",
          "name": "",
          "type": "uint256"
        }
      ],
      "stateMutability": "view",
      "type": "function"
    },
    {
      "inputs": [],
      "name": "totalAllocatedToAdvisors",
      "outputs": [
        {
          "internalType": "uint256",
          "name": "",
          "type": "uint256"
        }
      ],
      "stateMutability": "view",
      "type": "function"
    },
    {
      "inputs": [],
      "name": "totalAllocatedToTeam",
      "outputs": [
        {
          "internalType": "uint256",
          "name": "",
          "type": "uint256"
        }
      ],
      "stateMutability": "view",
      "type": "function"
    },
    {
      "inputs": [],
      "name": "totalSupply",
      "outputs": [
        {
          "internalType": "uint256",
          "name": "",
          "type": "uint256"
        }
      ],
      "stateMutability": "view",
      "type": "function"
    },
    {
      "inputs": [
        {
          "internalType": "address",
          "name": "_newOwner",
          "type": "address"
        }
      ],
      "name": "transferOwnership",
      "outputs": [],
      "stateMutability": "nonpayable",
      "type": "function"
    },
    {
      "inputs": [
        {
          "internalType": "contract IERC20Token",
          "name": "_token",
          "type": "address"
        },
        {
          "internalType": "address",
          "name": "_to",
          "type": "address"
        },
        {
          "internalType": "uint256",
          "name": "_amount",
          "type": "uint256"
        }
      ],
      "name": "withdrawTokens",
      "outputs": [],
      "stateMutability": "nonpayable",
      "type": "function"
    },
    {
      "inputs": [
        {
          "internalType": "address",
          "name": "_to",
          "type": "address"
        },
        {
          "internalType": "uint256",
          "name": "_value",
          "type": "uint256"
        }
      ],
      "name": "transfer",
      "outputs": [
        {
          "internalType": "bool",
          "name": "success",
          "type": "bool"
        }
      ],
      "stateMutability": "nonpayable",
      "type": "function"
    },
    {
      "inputs": [
        {
          "internalType": "address",
          "name": "_from",
          "type": "address"
        },
        {
          "internalType": "address",
          "name": "_to",
          "type": "address"
        },
        {
          "internalType": "uint256",
          "name": "_value",
          "type": "uint256"
        }
      ],
      "name": "transferFrom",
      "outputs": [
        {
          "internalType": "bool",
          "name": "success",
          "type": "bool"
        }
      ],
      "stateMutability": "nonpayable",
      "type": "function"
    },
    {
      "inputs": [],
      "name": "releaseEnjinTeamTokens",
      "outputs": [
        {
          "internalType": "bool",
          "name": "success",
          "type": "bool"
        }
      ],
      "stateMutability": "nonpayable",
      "type": "function"
    },
    {
      "inputs": [],
      "name": "releaseAdvisorTokens",
      "outputs": [
        {
          "internalType": "bool",
          "name": "success",
          "type": "bool"
        }
      ],
      "stateMutability": "nonpayable",
      "type": "function"
    },
    {
      "inputs": [],
      "name": "retrieveUnsoldTokens",
      "outputs": [
        {
          "internalType": "bool",
          "name": "success",
          "type": "bool"
        }
      ],
      "stateMutability": "nonpayable",
      "type": "function"
    },
    {
      "inputs": [
        {
          "internalType": "uint256",
          "name": "_amount",
          "type": "uint256"
        }
      ],
      "name": "addToAllocation",
      "outputs": [],
      "stateMutability": "nonpayable",
      "type": "function"
    },
    {
      "inputs": [],
      "name": "allowTransfers",
      "outputs": [],
      "stateMutability": "nonpayable",
      "type": "function"
    }
  ],
  "bytecode": "0x60806040526040518060400160405280600981526020017f546f6b656e20302e310000000000000000000000000000000000000000000000815250600290805190602001906200005192919062000487565b5060405180602001604052806000815250600390805190602001906200007992919062000487565b506040518060200160405280600081525060049080519060200190620000a192919062000487565b506000600560006101000a81548160ff021916908360ff16021790555060006006556000600d556000600e556000600f556000601060006101000a81548160ff021916908315150217905550600060115560086012553480156200010457600080fd5b5060405162002e7a38038062002e7a83398181016040528101906200012a9190620005a1565b6040518060400160405280600a81526020017f456e6a696e20436f696e000000000000000000000000000000000000000000008152506040518060400160405280600381526020017f454e4a00000000000000000000000000000000000000000000000000000000008152506012336000806101000a81548173ffffffffffffffffffffffffffffffffffffffff021916908373ffffffffffffffffffffffffffffffffffffffff16021790555060008351118015620001eb575060008251115b620001f557600080fd5b82600390805190602001906200020d92919062000487565b5081600490805190602001906200022692919062000487565b5080600560006101000a81548160ff021916908360ff160217905550505050670de0b6b3a7640000633b9aca006200025f91906200064c565b60068190555083600960006101000a81548173ffffffffffffffffffffffffffffffffffffffff021916908373ffffffffffffffffffffffffffffffffffffffff16021790555082600a60006101000a81548173ffffffffffffffffffffffffffffffffffffffff021916908373ffffffffffffffffffffffffffffffffffffffff16021790555080600c60006101000a81548173ffffffffffffffffffffffffffffffffffffffff021916908373ffffffffffffffffffffffffffffffffffffffff16021790555081600b60006101000a81548173ffffffffffffffffffffffffffffffffffffffff021916908373ffffffffffffffffffffffffffffffffffffffff160217905550670de0b6b3a76400006323c346006200038391906200064c565b670de0b6b3a7640000630bebc2006200039d91906200064c565b620003a99190620006ad565b600760008673ffffffffffffffffffffffffffffffffffffffff1673ffffffffffffffffffffffffffffffffffffffff16815260200190815260200160002081905550670de0b6b3a76400006305f5e1006200040691906200064c565b600760008473ffffffffffffffffffffffffffffffffffffffff1673ffffffffffffffffffffffffffffffffffffffff16815260200190815260200160002081905550670de0b6b3a76400006305f5e1006200046391906200064c565b600f6000828254620004769190620006ad565b92505081905550505050506200076f565b828054620004959062000739565b90600052602060002090601f016020900481019282620004b9576000855562000505565b82601f10620004d457805160ff191683800117855562000505565b8280016001018555821562000505579182015b8281111562000504578251825591602001919060010190620004e7565b5b50905062000514919062000518565b5090565b5b808211156200053357600081600090555060010162000519565b5090565b600080fd5b600073ffffffffffffffffffffffffffffffffffffffff82169050919050565b600062000569826200053c565b9050919050565b6200057b816200055c565b81146200058757600080fd5b50565b6000815190506200059b8162000570565b92915050565b60008060008060808587031215620005be57620005bd62000537565b5b6000620005ce878288016200058a565b9450506020620005e1878288016200058a565b9350506040620005f4878288016200058a565b925050606062000607878288016200058a565b91505092959194509250565b6000819050919050565b7f4e487b7100000000000000000000000000000000000000000000000000000000600052601160045260246000fd5b6000620006598262000613565b9150620006668362000613565b9250817fffffffffffffffffffffffffffffffffffffffffffffffffffffffffffffffff0483118215151615620006a257620006a16200061d565b5b828202905092915050565b6000620006ba8262000613565b9150620006c78362000613565b9250827fffffffffffffffffffffffffffffffffffffffffffffffffffffffffffffffff03821115620006ff57620006fe6200061d565b5b828201905092915050565b7f4e487b7100000000000000000000000000000000000000000000000000000000600052602260045260246000fd5b600060028204905060018216806200075257607f821691505b602082108114156200076957620007686200070a565b5b50919050565b6126fb806200077f6000396000f3fe608060405234801561001057600080fd5b50600436106102065760003560e01c806379ba50971161011a578063b384e9b4116100ad578063db08ccec1161007c578063db08ccec1461058d578063dd62ed3e146105ab578063e783bfb1146105db578063f2fde38b146105f9578063fb0641611461061557610206565b8063b384e9b414610515578063ccdd95d614610533578063d4ee1d9014610551578063d966cfc31461056f57610206565b806398c20c00116100e957806398c20c001461048d578063a833c7ab146104a9578063a9059cbb146104c7578063b1f9275f146104f757610206565b806379ba5097146104295780638da5cb5b1461043357806395d89b411461045157806396d4d0911461046f57610206565b80633197cbb61161019d5780635e35359e1161016c5780635e35359e14610383578063606baff81461039f5780636a06bf92146103bd57806370a08231146103db57806374151a2a1461040b57610206565b80633197cbb61461030b57806345f7f249146103295780635154865a146103475780635a3b7e421461036557610206565b80632185810b116101d95780632185810b1461029557806321bdb26e1461029f57806323b872dd146102bd578063313ce567146102ed57610206565b806306fdde031461020b578063095ea7b3146102295780631367641e1461025957806318160ddd14610277575b600080fd5b610213610633565b6040516102209190612094565b60405180910390f35b610243600480360381019061023e919061214f565b6106c1565b60405161025091906121aa565b60405180910390f35b610261610883565b60405161026e91906121aa565b60405180910390f35b61027f610ae3565b60405161028c91906121d4565b60405180910390f35b61029d610ae9565b005b6102a7610b62565b6040516102b491906121d4565b60405180910390f35b6102d760048036038101906102d291906121ef565b610b7d565b6040516102e491906121aa565b60405180910390f35b6102f5610c70565b604051610302919061225e565b60405180910390f35b610313610c83565b60405161032091906121d4565b60405180910390f35b610331610c8b565b60405161033e91906121d4565b60405180910390f35b61034f610c91565b60405161035c9190612288565b60405180910390f35b61036d610cb7565b60405161037a9190612094565b60405180910390f35b61039d600480360381019061039891906122e1565b610d45565b005b6103a7610ee4565b6040516103b491906121d4565b60405180910390f35b6103c5610eff565b6040516103d291906121d4565b60405180910390f35b6103f560048036038101906103f09190612334565b610f1a565b60405161040291906121d4565b60405180910390f35b610413610f32565b60405161042091906121aa565b60405180910390f35b61043161120f565b005b61043b61138a565b6040516104489190612288565b60405180910390f35b6104596113ae565b6040516104669190612094565b60405180910390f35b61047761143c565b6040516104849190612288565b60405180910390f35b6104a760048036038101906104a29190612361565b611462565b005b6104b16114d1565b6040516104be91906121d4565b60405180910390f35b6104e160048036038101906104dc919061214f565b6114ec565b6040516104ee91906121aa565b60405180910390f35b6104ff6115dd565b60405161050c91906121d4565b60405180910390f35b61051d6115e9565b60405161052a9190612288565b60405180910390f35b61053b61160f565b60405161054891906121aa565b60405180910390f35b6105596118cc565b6040516105669190612288565b60405180910390f35b6105776118f2565b60405161058491906121d4565b60405180910390f35b6105956118f8565b6040516105a29190612288565b60405180910390f35b6105c560048036038101906105c0919061238e565b61191e565b6040516105d291906121d4565b60405180910390f35b6105e3611943565b6040516105f091906121d4565b60405180910390f35b610613600480360381019061060e9190612334565b611949565b005b61061d611a42565b60405161062a91906121d4565b60405180910390f35b60038054610640906123fd565b80601f016020809104026020016040519081016040528092919081815260200182805461066c906123fd565b80156106b95780601f1061068e576101008083540402835291602001916106b9565b820191906000526020600020905b81548152906001019060200180831161069c57829003601f168201915b505050505081565b600082600073ffffffffffffffffffffffffffffffffffffffff168173ffffffffffffffffffffffffffffffffffffffff1614156106fe57600080fd5b600083148061078957506000600860003373ffffffffffffffffffffffffffffffffffffffff1673ffffffffffffffffffffffffffffffffffffffff16815260200190815260200160002060008673ffffffffffffffffffffffffffffffffffffffff1673ffffffffffffffffffffffffffffffffffffffff16815260200190815260200160002054145b61079257600080fd5b82600860003373ffffffffffffffffffffffffffffffffffffffff1673ffffffffffffffffffffffffffffffffffffffff16815260200190815260200160002060008673ffffffffffffffffffffffffffffffffffffffff1673ffffffffffffffffffffffffffffffffffffffff168152602001908152602001600020819055508373ffffffffffffffffffffffffffffffffffffffff163373ffffffffffffffffffffffffffffffffffffffff167f8c5be1e5ebec7d5bd14f71427d1e84f3dd0314c0f7b2291e5b200ac8c7c3b9258560405161087091906121d4565b60405180910390a3600191505092915050565b60006249d4006359f90e44610898919061245e565b4210156108a457600080fd5b60008054906101000a900473ffffffffffffffffffffffffffffffffffffffff1673ffffffffffffffffffffffffffffffffffffffff163373ffffffffffffffffffffffffffffffffffffffff1614610900576108ff6124b4565b5b6000600d541461090f57600080fd5b61099160076000600a60009054906101000a900473ffffffffffffffffffffffffffffffffffffffff1673ffffffffffffffffffffffffffffffffffffffff1673ffffffffffffffffffffffffffffffffffffffff16815260200190815260200160002054670de0b6b3a764000063018cba8061098c91906124e3565b611a5d565b60076000600a60009054906101000a900473ffffffffffffffffffffffffffffffffffffffff1673ffffffffffffffffffffffffffffffffffffffff1673ffffffffffffffffffffffffffffffffffffffff16815260200190815260200160002081905550610a19600f54670de0b6b3a764000063018cba80610a1491906124e3565b611a5d565b600f81905550670de0b6b3a764000063018cba80610a3791906124e3565b600d81905550600a60009054906101000a900473ffffffffffffffffffffffffffffffffffffffff1673ffffffffffffffffffffffffffffffffffffffff16600073ffffffffffffffffffffffffffffffffffffffff167fddf252ad1be2c89b69c2b068fc378daa952ba7f163c4a11628f55a4df523b3ef670de0b6b3a764000063018cba80610ac791906124e3565b604051610ad491906121d4565b60405180910390a36001905090565b60065481565b60008054906101000a900473ffffffffffffffffffffffffffffffffffffffff1673ffffffffffffffffffffffffffffffffffffffff163373ffffffffffffffffffffffffffffffffffffffff1614610b4557610b446124b4565b5b6001601060006101000a81548160ff021916908315150217905550565b670de0b6b3a76400006323c34600610b7a91906124e3565b81565b600060011515610b8b611a89565b15151480610be65750600960009054906101000a900473ffffffffffffffffffffffffffffffffffffffff1673ffffffffffffffffffffffffffffffffffffffff163373ffffffffffffffffffffffffffffffffffffffff16145b80610c3e5750600b60009054906101000a900473ffffffffffffffffffffffffffffffffffffffff1673ffffffffffffffffffffffffffffffffffffffff163373ffffffffffffffffffffffffffffffffffffffff16145b15610c6457610c4e848484611ac6565b610c5b57610c5a6124b4565b5b60019050610c69565b600080fd5b9392505050565b600560009054906101000a900460ff1681565b6359f90e4481565b600f5481565b600960009054906101000a900473ffffffffffffffffffffffffffffffffffffffff1681565b60028054610cc4906123fd565b80601f0160208091040260200160405190810160405280929190818152602001828054610cf0906123fd565b8015610d3d5780601f10610d1257610100808354040283529160200191610d3d565b820191906000526020600020905b815481529060010190602001808311610d2057829003601f168201915b505050505081565b60008054906101000a900473ffffffffffffffffffffffffffffffffffffffff1673ffffffffffffffffffffffffffffffffffffffff163373ffffffffffffffffffffffffffffffffffffffff1614610da157610da06124b4565b5b82600073ffffffffffffffffffffffffffffffffffffffff168173ffffffffffffffffffffffffffffffffffffffff161415610ddc57600080fd5b82600073ffffffffffffffffffffffffffffffffffffffff168173ffffffffffffffffffffffffffffffffffffffff161415610e1757600080fd5b833073ffffffffffffffffffffffffffffffffffffffff168173ffffffffffffffffffffffffffffffffffffffff161415610e5157600080fd5b8573ffffffffffffffffffffffffffffffffffffffff1663a9059cbb86866040518363ffffffff1660e01b8152600401610e8c92919061253d565b6020604051808303816000875af1158015610eab573d6000803e3d6000fd5b505050506040513d601f19601f82011682018060405250810190610ecf9190612592565b610edc57610edb6124b4565b5b505050505050565b670de0b6b3a7640000630bebc200610efc91906124e3565b81565b670de0b6b3a76400006304692680610f1791906124e3565b81565b60076020528060005260406000206000915090505481565b600062dd7c006359f90e44610f47919061245e565b421015610f5357600080fd5b60008054906101000a900473ffffffffffffffffffffffffffffffffffffffff1673ffffffffffffffffffffffffffffffffffffffff163373ffffffffffffffffffffffffffffffffffffffff1614610faf57610fae6124b4565b5b600060076000600960009054906101000a900473ffffffffffffffffffffffffffffffffffffffff1673ffffffffffffffffffffffffffffffffffffffff1673ffffffffffffffffffffffffffffffffffffffff168152602001908152602001600020549050600060076000600960009054906101000a900473ffffffffffffffffffffffffffffffffffffffff1673ffffffffffffffffffffffffffffffffffffffff1673ffffffffffffffffffffffffffffffffffffffff168152602001908152602001600020819055506110e760076000600b60009054906101000a900473ffffffffffffffffffffffffffffffffffffffff1673ffffffffffffffffffffffffffffffffffffffff1673ffffffffffffffffffffffffffffffffffffffff1681526020019081526020016000205482611a5d565b60076000600b60009054906101000a900473ffffffffffffffffffffffffffffffffffffffff1673ffffffffffffffffffffffffffffffffffffffff1673ffffffffffffffffffffffffffffffffffffffff16815260200190815260200160002081905550611158600f5482611a5d565b600f81905550600b60009054906101000a900473ffffffffffffffffffffffffffffffffffffffff1673ffffffffffffffffffffffffffffffffffffffff16600960009054906101000a900473ffffffffffffffffffffffffffffffffffffffff1673ffffffffffffffffffffffffffffffffffffffff167fddf252ad1be2c89b69c2b068fc378daa952ba7f163c4a11628f55a4df523b3ef836040516111ff91906121d4565b60405180910390a3600191505090565b600160009054906101000a900473ffffffffffffffffffffffffffffffffffffffff1673ffffffffffffffffffffffffffffffffffffffff163373ffffffffffffffffffffffffffffffffffffffff161461126957600080fd5b7f343765429aea5a34b3ff6a3785a98a5abb2597aca87bfbb58632c173d585373a60008054906101000a900473ffffffffffffffffffffffffffffffffffffffff16600160009054906101000a900473ffffffffffffffffffffffffffffffffffffffff166040516112dc9291906125bf565b60405180910390a1600160009054906101000a900473ffffffffffffffffffffffffffffffffffffffff166000806101000a81548173ffffffffffffffffffffffffffffffffffffffff021916908373ffffffffffffffffffffffffffffffffffffffff1602179055506000600160006101000a81548173ffffffffffffffffffffffffffffffffffffffff021916908373ffffffffffffffffffffffffffffffffffffffff160217905550565b60008054906101000a900473ffffffffffffffffffffffffffffffffffffffff1681565b600480546113bb906123fd565b80601f01602080910402602001604051908101604052809291908181526020018280546113e7906123fd565b80156114345780601f1061140957610100808354040283529160200191611434565b820191906000526020600020905b81548152906001019060200180831161141757829003601f168201915b505050505081565b600a60009054906101000a900473ffffffffffffffffffffffffffffffffffffffff1681565b600960009054906101000a900473ffffffffffffffffffffffffffffffffffffffff1673ffffffffffffffffffffffffffffffffffffffff163373ffffffffffffffffffffffffffffffffffffffff16146114bc57600080fd5b6114c8600f5482611a5d565b600f8190555050565b670de0b6b3a76400006305f5e1006114e991906124e3565b81565b6000600115156114fa611a89565b151514806115555750600960009054906101000a900473ffffffffffffffffffffffffffffffffffffffff1673ffffffffffffffffffffffffffffffffffffffff163373ffffffffffffffffffffffffffffffffffffffff16145b806115ad5750600b60009054906101000a900473ffffffffffffffffffffffffffffffffffffffff1673ffffffffffffffffffffffffffffffffffffffff163373ffffffffffffffffffffffffffffffffffffffff16145b156115d2576115bc8383611dce565b6115c9576115c86124b4565b5b600190506115d7565b600080fd5b92915050565b670de0b6b3a764000081565b600b60009054906101000a900473ffffffffffffffffffffffffffffffffffffffff1681565b600062dd7c006359f90e44611624919061245e565b42101561163057600080fd5b60008054906101000a900473ffffffffffffffffffffffffffffffffffffffff1673ffffffffffffffffffffffffffffffffffffffff163373ffffffffffffffffffffffffffffffffffffffff161461168c5761168b6124b4565b5b670de0b6b3a764000063046926806116a491906124e3565b600e54106116b157600080fd5b60006103e8670de0b6b3a764000063046926806116ce91906124e3565b6116d89190612617565b90506000626ebe006359f90e44426116f09190612648565b6116fa9190612617565b9050601254601154108015611710575060115481115b156118c457601160008154809291906117289061267c565b9190505550600061173a83607d611f93565b90506117a760076000600c60009054906101000a900473ffffffffffffffffffffffffffffffffffffffff1673ffffffffffffffffffffffffffffffffffffffff1673ffffffffffffffffffffffffffffffffffffffff1681526020019081526020016000205482611a5d565b60076000600c60009054906101000a900473ffffffffffffffffffffffffffffffffffffffff1673ffffffffffffffffffffffffffffffffffffffff1673ffffffffffffffffffffffffffffffffffffffff16815260200190815260200160002081905550600c60009054906101000a900473ffffffffffffffffffffffffffffffffffffffff1673ffffffffffffffffffffffffffffffffffffffff16600073ffffffffffffffffffffffffffffffffffffffff167fddf252ad1be2c89b69c2b068fc378daa952ba7f163c4a11628f55a4df523b3ef8360405161188c91906121d4565b60405180910390a36118a0600f5482611a5d565b600f819055506118b2600e5482611a5d565b600e81905550600193505050506118c9565b600080fd5b90565b600160009054906101000a900473ffffffffffffffffffffffffffffffffffffffff1681565b600d5481565b600c60009054906101000a900473ffffffffffffffffffffffffffffffffffffffff1681565b6008602052816000526040600020602052806000526040600020600091509150505481565b600e5481565b60008054906101000a900473ffffffffffffffffffffffffffffffffffffffff1673ffffffffffffffffffffffffffffffffffffffff163373ffffffffffffffffffffffffffffffffffffffff16146119a5576119a46124b4565b5b60008054906101000a900473ffffffffffffffffffffffffffffffffffffffff1673ffffffffffffffffffffffffffffffffffffffff168173ffffffffffffffffffffffffffffffffffffffff1614156119fe57600080fd5b80600160006101000a81548173ffffffffffffffffffffffffffffffffffffffff021916908373ffffffffffffffffffffffffffffffffffffffff16021790555050565b670de0b6b3a764000063018cba80611a5a91906124e3565b81565b6000808284611a6c919061245e565b905083811015611a7f57611a7e6124b4565b5b8091505092915050565b60006359f90e44421180611ab0575060011515601060009054906101000a900460ff161515145b15611abe5760019050611ac3565b600090505b90565b600083600073ffffffffffffffffffffffffffffffffffffffff168173ffffffffffffffffffffffffffffffffffffffff161415611b0357600080fd5b83600073ffffffffffffffffffffffffffffffffffffffff168173ffffffffffffffffffffffffffffffffffffffff161415611b3e57600080fd5b611bc4600860008873ffffffffffffffffffffffffffffffffffffffff1673ffffffffffffffffffffffffffffffffffffffff16815260200190815260200160002060003373ffffffffffffffffffffffffffffffffffffffff1673ffffffffffffffffffffffffffffffffffffffff1681526020019081526020016000205485611fd4565b600860008873ffffffffffffffffffffffffffffffffffffffff1673ffffffffffffffffffffffffffffffffffffffff16815260200190815260200160002060003373ffffffffffffffffffffffffffffffffffffffff1673ffffffffffffffffffffffffffffffffffffffff16815260200190815260200160002081905550611c8d600760008873ffffffffffffffffffffffffffffffffffffffff1673ffffffffffffffffffffffffffffffffffffffff1681526020019081526020016000205485611fd4565b600760008873ffffffffffffffffffffffffffffffffffffffff1673ffffffffffffffffffffffffffffffffffffffff16815260200190815260200160002081905550611d19600760008773ffffffffffffffffffffffffffffffffffffffff1673ffffffffffffffffffffffffffffffffffffffff1681526020019081526020016000205485611a5d565b600760008773ffffffffffffffffffffffffffffffffffffffff1673ffffffffffffffffffffffffffffffffffffffff168152602001908152602001600020819055508473ffffffffffffffffffffffffffffffffffffffff168673ffffffffffffffffffffffffffffffffffffffff167fddf252ad1be2c89b69c2b068fc378daa952ba7f163c4a11628f55a4df523b3ef86604051611db991906121d4565b60405180910390a36001925050509392505050565b600082600073ffffffffffffffffffffffffffffffffffffffff168173ffffffffffffffffffffffffffffffffffffffff161415611e0b57600080fd5b611e54600760003373ffffffffffffffffffffffffffffffffffffffff1673ffffffffffffffffffffffffffffffffffffffff1681526020019081526020016000205484611fd4565b600760003373ffffffffffffffffffffffffffffffffffffffff1673ffffffffffffffffffffffffffffffffffffffff16815260200190815260200160002081905550611ee0600760008673ffffffffffffffffffffffffffffffffffffffff1673ffffffffffffffffffffffffffffffffffffffff1681526020019081526020016000205484611a5d565b600760008673ffffffffffffffffffffffffffffffffffffffff1673ffffffffffffffffffffffffffffffffffffffff168152602001908152602001600020819055508373ffffffffffffffffffffffffffffffffffffffff163373ffffffffffffffffffffffffffffffffffffffff167fddf252ad1be2c89b69c2b068fc378daa952ba7f163c4a11628f55a4df523b3ef85604051611f8091906121d4565b60405180910390a3600191505092915050565b6000808284611fa291906124e3565b90506000841480611fbd5750828482611fbb9190612617565b145b611fca57611fc96124b4565b5b8091505092915050565b600081831015611fe757611fe66124b4565b5b8183611ff39190612648565b905092915050565b600081519050919050565b600082825260208201905092915050565b60005b8381101561203557808201518184015260208101905061201a565b83811115612044576000848401525b50505050565b6000601f19601f8301169050919050565b600061206682611ffb565b6120708185612006565b9350612080818560208601612017565b6120898161204a565b840191505092915050565b600060208201905081810360008301526120ae818461205b565b905092915050565b600080fd5b600073ffffffffffffffffffffffffffffffffffffffff82169050919050565b60006120e6826120bb565b9050919050565b6120f6816120db565b811461210157600080fd5b50565b600081359050612113816120ed565b92915050565b6000819050919050565b61212c81612119565b811461213757600080fd5b50565b60008135905061214981612123565b92915050565b60008060408385031215612166576121656120b6565b5b600061217485828601612104565b92505060206121858582860161213a565b9150509250929050565b60008115159050919050565b6121a48161218f565b82525050565b60006020820190506121bf600083018461219b565b92915050565b6121ce81612119565b82525050565b60006020820190506121e960008301846121c5565b92915050565b600080600060608486031215612208576122076120b6565b5b600061221686828701612104565b935050602061222786828701612104565b92505060406122388682870161213a565b9150509250925092565b600060ff82169050919050565b61225881612242565b82525050565b6000602082019050612273600083018461224f565b92915050565b612282816120db565b82525050565b600060208201905061229d6000830184612279565b92915050565b60006122ae826120db565b9050919050565b6122be816122a3565b81146122c957600080fd5b50565b6000813590506122db816122b5565b92915050565b6000806000606084860312156122fa576122f96120b6565b5b6000612308868287016122cc565b935050602061231986828701612104565b925050604061232a8682870161213a565b9150509250925092565b60006020828403121561234a576123496120b6565b5b600061235884828501612104565b91505092915050565b600060208284031215612377576123766120b6565b5b60006123858482850161213a565b91505092915050565b600080604083850312156123a5576123a46120b6565b5b60006123b385828601612104565b92505060206123c485828601612104565b9150509250929050565b7f4e487b7100000000000000000000000000000000000000000000000000000000600052602260045260246000fd5b6000600282049050600182168061241557607f821691505b60208210811415612429576124286123ce565b5b50919050565b7f4e487b7100000000000000000000000000000000000000000000000000000000600052601160045260246000fd5b600061246982612119565b915061247483612119565b9250827fffffffffffffffffffffffffffffffffffffffffffffffffffffffffffffffff038211156124a9576124a861242f565b5b828201905092915050565b7f4e487b7100000000000000000000000000000000000000000000000000000000600052600160045260246000fd5b60006124ee82612119565b91506124f983612119565b9250817fffffffffffffffffffffffffffffffffffffffffffffffffffffffffffffffff04831182151516156125325761253161242f565b5b828202905092915050565b60006040820190506125526000830185612279565b61255f60208301846121c5565b9392505050565b61256f8161218f565b811461257a57600080fd5b50565b60008151905061258c81612566565b92915050565b6000602082840312156125a8576125a76120b6565b5b60006125b68482850161257d565b91505092915050565b60006040820190506125d46000830185612279565b6125e16020830184612279565b9392505050565b7f4e487b7100000000000000000000000000000000000000000000000000000000600052601260045260246000fd5b600061262282612119565b915061262d83612119565b92508261263d5761263c6125e8565b5b828204905092915050565b600061265382612119565b915061265e83612119565b9250828210156126715761267061242f565b5b828203905092915050565b600061268782612119565b91507fffffffffffffffffffffffffffffffffffffffffffffffffffffffffffffffff8214156126ba576126b961242f565b5b60018201905091905056fea2646970667358221220c542b2f570fe63b554b179d446729b8a5c741e64a959d0d02198cb4160ca1d2c64736f6c634300080c0033",
  "immutableReferences": {},
  "source": "// Upgraded from pragma solidity ^0.4.15 to ^0.8.12\npragma solidity ^0.8.12;\n/*\n    Utilities & Common Modifiers\n*/\ncontract Utils {\n    // validates an address - currently only checks that it isn't null\n    modifier validAddress(address _address) {\n        require(_address != address(0));\n        _;\n    }\n\n    // verifies that the address is different than this contract address\n    modifier notThis(address _address) {\n        require(_address != address(this));\n        _;\n    }\n\n    // Overflow protected math functions\n\n    /**\n        @dev returns the sum of _x and _y, asserts if the calculation overflows\n\n        @param _x   value 1\n        @param _y   value 2\n\n        @return sum\n    */\n    function safeAdd(uint256 _x, uint256 _y) internal pure returns (uint256) {\n        uint256 z = _x + _y;\n        assert(z >= _x);\n        return z;\n    }\n\n    /**\n        @dev returns the difference of _x minus _y, asserts if the subtraction results in a negative number\n\n        @param _x   minuend\n        @param _y   subtrahend\n\n        @return difference\n    */\n    function safeSub(uint256 _x, uint256 _y) internal pure returns (uint256) {\n        assert(_x >= _y);\n        return _x - _y;\n    }\n\n    /**\n        @dev returns the product of multiplying _x by _y, asserts if the calculation overflows\n\n        @param _x   factor 1\n        @param _y   factor 2\n\n        @return product\n    */\n    function safeMul(uint256 _x, uint256 _y) internal pure returns (uint256) {\n        uint256 z = _x * _y;\n        assert(_x == 0 || z / _x == _y);\n        return z;\n    }\n}\n\n/*\n    ERC20 Standard Token interface\n*/\nabstract contract IERC20Token {\n    // these functions aren't abstract since the compiler emits automatically generated getter functions as external\n    function name() external view virtual returns (string memory);\n    function symbol() external view virtual returns (string memory);\n    function decimals() external view virtual returns (uint8);\n    function totalSupply() external view virtual returns (uint256);\n    function balanceOf(address _owner) external view virtual returns (uint256 balance);\n    function allowance(address _owner, address _spender) external view virtual returns (uint256 remaining);\n\n    function transfer(address _to, uint256 _value) public virtual returns (bool success);\n    function transferFrom(address _from, address _to, uint256 _value) public virtual returns (bool success);\n    function approve(address _spender, uint256 _value) public virtual returns (bool success);\n}\n\n\n/**\n    ERC20 Standard Token implementation\n*/\ncontract ERC20Token is IERC20Token, Utils {\n    string public standard = \"Token 0.1\";\n    string public override name = \"\";\n    string public override symbol = \"\";\n    uint8 public override decimals = 0;\n    uint256 public override totalSupply = 0;\n    mapping (address => uint256) public override balanceOf;\n    mapping (address => mapping (address => uint256)) public override allowance;\n\n    event Transfer(address indexed _from, address indexed _to, uint256 _value);\n    event Approval(address indexed _owner, address indexed _spender, uint256 _value);\n\n    /**\n        @dev constructor\n\n        @param _name        token name\n        @param _symbol      token symbol\n        @param _decimals    decimal points, for display purposes\n    */\n    constructor(string memory _name, string memory _symbol, uint8 _decimals) {\n        require(bytes(_name).length > 0 && bytes(_symbol).length > 0); // validate input\n\n        name = _name;\n        symbol = _symbol;\n        decimals = _decimals;\n    }\n\n    /**\n        @dev send coins\n        throws on any error rather then return a false flag to minimize user errors\n\n        @param _to      target address\n        @param _value   transfer amount\n\n        @return success true if the transfer was successful, false if it wasn't\n    */\n    function transfer(address _to, uint256 _value)\n        public\n        virtual\n        override\n        validAddress(_to)\n        returns (bool success)\n    {\n        balanceOf[msg.sender] = safeSub(balanceOf[msg.sender], _value);\n        balanceOf[_to] = safeAdd(balanceOf[_to], _value);\n        emit Transfer(msg.sender, _to, _value);\n        return true;\n    }\n\n    /**\n        @dev an account/contract attempts to get the coins\n        throws on any error rather then return a false flag to minimize user errors\n\n        @param _from    source address\n        @param _to      target address\n        @param _value   transfer amount\n\n        @return success true if the transfer was successful, false if it wasn't\n    */\n    function transferFrom(address _from, address _to, uint256 _value)\n        public\n        virtual\n        override\n        validAddress(_from)\n        validAddress(_to)\n        returns (bool success)\n    {\n        allowance[_from][msg.sender] = safeSub(allowance[_from][msg.sender], _value);\n        balanceOf[_from] = safeSub(balanceOf[_from], _value);\n        balanceOf[_to] = safeAdd(balanceOf[_to], _value);\n        emit Transfer(_from, _to, _value);\n        return true;\n    }\n\n    /**\n        @dev allow another account/contract to spend some tokens on your behalf\n        throws on any error rather then return a false flag to minimize user errors\n\n        also, to minimize the risk of the approve/transferFrom attack vector\n        (see https://docs.google.com/document/d/1YLPtQxZu1UAvO9cZ1O2RPXBbT0mooh4DYKjA_jp-RLM/), approve has to be called twice\n        in 2 separate transactions - once to change the allowance to 0 and secondly to change it to the new allowance value\n\n        @param _spender approved address\n        @param _value   allowance amount\n\n        @return success true if the approval was successful, false if it wasn't\n    */\n    function approve(address _spender, uint256 _value)\n        public\n        override\n        validAddress(_spender)\n        returns (bool success)\n    {\n        // if the allowance isn't 0, it can only be updated to 0 to prevent an allowance change immediately after withdrawal\n        require(_value == 0 || allowance[msg.sender][_spender] == 0);\n\n        allowance[msg.sender][_spender] = _value;\n        emit Approval(msg.sender, _spender, _value);\n        return true;\n    }\n}\n\n/*\n    Owned contract interface\n*/\nabstract contract IOwned {\n    // this function isn't abstract since the compiler emits automatically generated getter functions as external\n    function owner() external view virtual returns (address);\n\n    function transferOwnership(address _newOwner) public virtual;\n    function acceptOwnership() public virtual;\n}\n\n/*\n    Provides support and utilities for contract ownership\n*/\ncontract Owned is IOwned {\n    address public override owner;\n    address public newOwner;\n\n    event OwnerUpdate(address _prevOwner, address _newOwner);\n\n    /**\n        @dev constructor\n    */\n    constructor() {\n        owner = msg.sender;\n    }\n\n    // allows execution by the owner only\n    modifier ownerOnly {\n        assert(msg.sender == owner);\n        _;\n    }\n\n    /**\n        @dev allows transferring the contract ownership\n        the new owner still needs to accept the transfer\n        can only be called by the contract owner\n\n        @param _newOwner    new contract owner\n    */\n    function transferOwnership(address _newOwner) public virtual override ownerOnly {\n        require(_newOwner != owner);\n        newOwner = _newOwner;\n    }\n\n    /**\n        @dev used by a new owner to accept an ownership transfer\n    */\n    function acceptOwnership() public virtual override {\n        require(msg.sender == newOwner);\n        emit OwnerUpdate(owner, newOwner);\n        owner = newOwner;\n        newOwner = address(0);\n    }\n}\n\n/*\n    Token Holder interface\n*/\nabstract contract ITokenHolder is IOwned {\n    function withdrawTokens(IERC20Token _token, address _to, uint256 _amount) public virtual;\n}\n\n/*\n    We consider every contract to be a 'token holder' since it's currently not possible\n    for a contract to deny receiving tokens.\n\n    The TokenHolder's contract sole purpose is to provide a safety mechanism that allows\n    the owner to send tokens that were sent to the contract by mistake back to their sender.\n*/\ncontract TokenHolder is ITokenHolder, Owned, Utils {\n    /**\n        @dev withdraws tokens held by the contract and sends them to an account\n        can only be called by the owner\n\n        @param _token   ERC20 token contract address\n        @param _to      account to receive the new amount\n        @param _amount  amount to withdraw\n    */\n    function withdrawTokens(IERC20Token _token, address _to, uint256 _amount)\n        public\n        virtual\n        override\n        ownerOnly\n        validAddress(address(_token))\n        validAddress(_to)\n        notThis(_to)\n    {\n        assert(_token.transfer(_to, _amount));\n    }\n}\n\n\ncontract ENJToken is ERC20Token, TokenHolder {\n\n///////////////////////////////////////// VARIABLE INITIALIZATION /////////////////////////////////////////\n\n    uint256 constant public ENJ_UNIT = 10 ** 18;\n    // totalSupply is declared in ERC20Token; initialized in constructor\n\n    //  Constants\n    uint256 constant public maxPresaleSupply = 600 * 10**6 * ENJ_UNIT;           // Total presale supply at max bonus\n    uint256 constant public minCrowdsaleAllocation = 200 * 10**6 * ENJ_UNIT;     // Min amount for crowdsale\n    uint256 constant public incentivisationAllocation = 100 * 10**6 * ENJ_UNIT;  // Incentivisation Allocation\n    uint256 constant public advisorsAllocation = 26 * 10**6 * ENJ_UNIT;          // Advisors Allocation\n    uint256 constant public enjinTeamAllocation = 74 * 10**6 * ENJ_UNIT;         // Enjin Team allocation\n\n    address public crowdFundAddress;                                             // Address of the crowdfund\n    address public advisorAddress;                                               // Enjin advisor's address\n    address public incentivisationFundAddress;                                   // Address that holds the incentivization funds\n    address public enjinTeamAddress;                                             // Enjin Team address\n\n    //  Variables\n\n    uint256 public totalAllocatedToAdvisors = 0;                                 // Counter to keep track of advisor token allocation\n    uint256 public totalAllocatedToTeam = 0;                                     // Counter to keep track of team token allocation\n    uint256 public totalAllocated = 0;                                           // Counter to keep track of overall token allocation\n    uint256 constant public endTime = 1509494340;                                // 10/31/2017 @ 11:59pm (UTC) crowdsale end time (in seconds)\n\n    bool internal isReleasedToPublic = false;                         // Flag to allow transfer/transferFrom before the end of the crowdfund\n\n    uint256 internal teamTranchesReleased = 0;                          // Track how many tranches (allocations of 12.5% team tokens) have been released\n    uint256 internal maxTeamTranches = 8;                               // The number of tranches allowed to the team until depleted\n\n///////////////////////////////////////// MODIFIERS /////////////////////////////////////////\n\n    // Enjin Team timelock\n    modifier safeTimelock() {\n        require(block.timestamp >= endTime + 6 * 4 weeks);\n        _;\n    }\n\n    // Advisor Team timelock\n    modifier advisorTimelock() {\n        require(block.timestamp >= endTime + 2 * 4 weeks);\n        _;\n    }\n\n    // Function only accessible by the Crowdfund contract\n    modifier crowdfundOnly() {\n        require(msg.sender == crowdFundAddress);\n        _;\n    }\n\n    ///////////////////////////////////////// CONSTRUCTOR /////////////////////////////////////////\n\n    /**\n        @dev constructor\n        @param _crowdFundAddress   Crowdfund address\n        @param _advisorAddress     Advisor address\n    */\n    constructor(address _crowdFundAddress, address _advisorAddress, address _incentivisationFundAddress, address _enjinTeamAddress)\n        ERC20Token(\"Enjin Coin\", \"ENJ\", 18)\n    {\n        totalSupply = 1 * (10**9) * ENJ_UNIT;\n        crowdFundAddress = _crowdFundAddress;\n        advisorAddress = _advisorAddress;\n        enjinTeamAddress = _enjinTeamAddress;\n        incentivisationFundAddress = _incentivisationFundAddress;\n        balanceOf[_crowdFundAddress] = minCrowdsaleAllocation + maxPresaleSupply; // Total presale + crowdfund tokens\n        balanceOf[_incentivisationFundAddress] = incentivisationAllocation;       // 10% Allocated for Marketing and Incentivisation\n        totalAllocated += incentivisationAllocation;                              // Add to total Allocated funds\n    }\n\n///////////////////////////////////////// ERC20 OVERRIDE /////////////////////////////////////////\n\n    /**\n        @dev send coins\n        throws on any error rather then return a false flag to minimize user errors\n        in addition to the standard checks, the function throws if transfers are disabled\n\n        @param _to      target address\n        @param _value   transfer amount\n\n        @return success true if the transfer was successful, throws if it wasn't\n    */\n    function transfer(address _to, uint256 _value) public override returns (bool success) {\n        if (isTransferAllowed() == true || msg.sender == crowdFundAddress || msg.sender == incentivisationFundAddress) {\n            assert(super.transfer(_to, _value));\n            return true;\n        }\n        revert();\n    }\n\n    /**\n        @dev an account/contract attempts to get the coins\n        throws on any error rather then return a false flag to minimize user errors\n        in addition to the standard checks, the function throws if transfers are disabled\n\n        @param _from    source address\n        @param _to      target address\n        @param _value   transfer amount\n\n        @return success true if the transfer was successful, throws if it wasn't\n    */\n    function transferFrom(address _from, address _to, uint256 _value) public override returns (bool success) {\n        if (isTransferAllowed() == true || msg.sender == crowdFundAddress || msg.sender == incentivisationFundAddress) {\n            assert(super.transferFrom(_from, _to, _value));\n            return true;\n        }\n        revert();\n    }\n\n///////////////////////////////////////// ALLOCATION FUNCTIONS /////////////////////////////////////////\n\n    /**\n        @dev Release one single tranche of the Enjin Team Token allocation\n        throws if before timelock (6 months) ends and if not initiated by the owner of the contract\n        returns true if valid\n        Schedule goes as follows:\n        3 months: 12.5% (this tranche can only be released after the initial 6 months has passed)\n        6 months: 12.5%\n        9 months: 12.5%\n        12 months: 12.5%\n        15 months: 12.5%\n        18 months: 12.5%\n        21 months: 12.5%\n        24 months: 12.5%\n        @return success true if successful, throws if not\n    */\n    function releaseEnjinTeamTokens() public safeTimelock ownerOnly returns(bool success) {\n        require(totalAllocatedToTeam < enjinTeamAllocation);\n\n        uint256 enjinTeamAlloc = enjinTeamAllocation / 1000;\n        uint256 currentTranche = uint256(block.timestamp - endTime) / 12 weeks;     // \"months\" after crowdsale end time (division floored)\n\n        if(teamTranchesReleased < maxTeamTranches && currentTranche > teamTranchesReleased) {\n            teamTranchesReleased++;\n\n            uint256 amount = safeMul(enjinTeamAlloc, 125);\n            balanceOf[enjinTeamAddress] = safeAdd(balanceOf[enjinTeamAddress], amount);\n            emit Transfer(address(0), enjinTeamAddress, amount);\n            totalAllocated = safeAdd(totalAllocated, amount);\n            totalAllocatedToTeam = safeAdd(totalAllocatedToTeam, amount);\n            return true;\n        }\n        revert();\n    }\n\n    /**\n        @dev release Advisors Token allocation\n        throws if before timelock (2 months) ends or if no initiated by the advisors address\n        or if there is no more allocation to give out\n        returns true if valid\n\n        @return success true if successful, throws if not\n    */\n    function releaseAdvisorTokens() public advisorTimelock ownerOnly returns(bool success) {\n        require(totalAllocatedToAdvisors == 0);\n        balanceOf[advisorAddress] = safeAdd(balanceOf[advisorAddress], advisorsAllocation);\n        totalAllocated = safeAdd(totalAllocated, advisorsAllocation);\n        totalAllocatedToAdvisors = advisorsAllocation;\n        emit Transfer(address(0), advisorAddress, advisorsAllocation);\n        return true;\n    }\n\n    /**\n        @dev Retrieve unsold tokens from the crowdfund\n        throws if before timelock (6 months from end of Crowdfund) ends and if no initiated by the owner of the contract\n        returns true if valid\n\n        @return success true if successful, throws if not\n    */\n    function retrieveUnsoldTokens() public safeTimelock ownerOnly returns(bool success) {\n        uint256 amountOfTokens = balanceOf[crowdFundAddress];\n        balanceOf[crowdFundAddress] = 0;\n        balanceOf[incentivisationFundAddress] = safeAdd(balanceOf[incentivisationFundAddress], amountOfTokens);\n        totalAllocated = safeAdd(totalAllocated, amountOfTokens);\n        emit Transfer(crowdFundAddress, incentivisationFundAddress, amountOfTokens);\n        return true;\n    }\n\n    /**\n        @dev Keep track of token allocations\n        can only be called by the crowdfund contract\n    */\n    function addToAllocation(uint256 _amount) public crowdfundOnly {\n        totalAllocated = safeAdd(totalAllocated, _amount);\n    }\n\n    /**\n        @dev Function to allow transfers\n        can only be called by the owner of the contract\n        Transfers will be allowed regardless after the crowdfund end time.\n    */\n    function allowTransfers() public ownerOnly {\n        isReleasedToPublic = true;\n    }\n\n    /**\n        @dev User transfers are allowed/rejected\n        Transfers are forbidden before the end of the crowdfund\n    */\n    function isTransferAllowed() internal view returns(bool) {\n        if (block.timestamp > endTime || isReleasedToPublic == true) {\n            return true;\n        }\n        return false;\n    }\n}\n",
  "sourcePath": "/home/lanlu/VLDB26_new/OCELOT/declarative-smart-contracts/Reference/ENJTokenref.sol",
  "compiler": {
    "name": "solc",
    "version": "0.8.12+commit.f00d7308.Emscripten.clang"
  },
  "schemaVersion": "3.4.16",
  "updatedAt": "2026-04-18T00:19:35.408Z",
  "devdoc": {
    "kind": "dev",
    "methods": {
      "acceptOwnership()": {
        "details": "used by a new owner to accept an ownership transfer"
      },
      "addToAllocation(uint256)": {
        "details": "Keep track of token allocations can only be called by the crowdfund contract"
      },
      "allowTransfers()": {
        "details": "Function to allow transfers can only be called by the owner of the contract Transfers will be allowed regardless after the crowdfund end time."
      },
      "approve(address,uint256)": {
        "details": "allow another account/contract to spend some tokens on your behalf throws on any error rather then return a false flag to minimize user errors also, to minimize the risk of the approve/transferFrom attack vector (see https://docs.google.com/document/d/1YLPtQxZu1UAvO9cZ1O2RPXBbT0mooh4DYKjA_jp-RLM/), approve has to be called twice in 2 separate transactions - once to change the allowance to 0 and secondly to change it to the new allowance value",
        "params": {
          "_spender": "approved address",
          "_value": "allowance amount"
        },
        "returns": {
          "success": "true if the approval was successful, false if it wasn't"
        }
      },
      "constructor": {
        "details": "constructor",
        "params": {
          "_advisorAddress": "Advisor address",
          "_crowdFundAddress": "Crowdfund address"
        }
      },
      "releaseAdvisorTokens()": {
        "details": "release Advisors Token allocation throws if before timelock (2 months) ends or if no initiated by the advisors address or if there is no more allocation to give out returns true if valid",
        "returns": {
          "success": "true if successful, throws if not"
        }
      },
      "releaseEnjinTeamTokens()": {
        "details": "Release one single tranche of the Enjin Team Token allocation throws if before timelock (6 months) ends and if not initiated by the owner of the contract returns true if valid Schedule goes as follows: 3 months: 12.5% (this tranche can only be released after the initial 6 months has passed) 6 months: 12.5% 9 months: 12.5% 12 months: 12.5% 15 months: 12.5% 18 months: 12.5% 21 months: 12.5% 24 months: 12.5%",
        "returns": {
          "success": "true if successful, throws if not"
        }
      },
      "retrieveUnsoldTokens()": {
        "details": "Retrieve unsold tokens from the crowdfund throws if before timelock (6 months from end of Crowdfund) ends and if no initiated by the owner of the contract returns true if valid",
        "returns": {
          "success": "true if successful, throws if not"
        }
      },
      "transfer(address,uint256)": {
        "details": "send coins throws on any error rather then return a false flag to minimize user errors in addition to the standard checks, the function throws if transfers are disabled",
        "params": {
          "_to": "target address",
          "_value": "transfer amount"
        },
        "returns": {
          "success": "true if the transfer was successful, throws if it wasn't"
        }
      },
      "transferFrom(address,address,uint256)": {
        "details": "an account/contract attempts to get the coins throws on any error rather then return a false flag to minimize user errors in addition to the standard checks, the function throws if transfers are disabled",
        "params": {
          "_from": "source address",
          "_to": "target address",
          "_value": "transfer amount"
        },
        "returns": {
          "success": "true if the transfer was successful, throws if it wasn't"
        }
      },
      "transferOwnership(address)": {
        "details": "allows transferring the contract ownership the new owner still needs to accept the transfer can only be called by the contract owner",
        "params": {
          "_newOwner": "new contract owner"
        }
      },
      "withdrawTokens(address,address,uint256)": {
        "details": "withdraws tokens held by the contract and sends them to an account can only be called by the owner",
        "params": {
          "_amount": "amount to withdraw",
          "_to": "account to receive the new amount",
          "_token": "ERC20 token contract address"
        }
      }
    },
    "version": 1
  },
  "userdoc": {
    "kind": "user",
    "methods": {},
    "version": 1
  }
}