{
  "contractName": "KyberNetworkCrystal",
  "abi": [
    {
      "inputs": [
        {
          "internalType": "uint256",
          "name": "tokenTotalAmount",
          "type": "uint256"
        },
        {
          "internalType": "uint256",
          "name": "startTime",
          "type": "uint256"
        },
        {
          "internalType": "uint256",
          "name": "endTime",
          "type": "uint256"
        },
        {
          "internalType": "address",
          "name": "admin",
          "type": "address"
        }
      ],
      "stateMutability": "nonpayable",
      "type": "constructor"
    },
    {
      "anonymous": false,
      "inputs": [
        {
          "indexed": true,
          "internalType": "address",
          "name": "_owner",
          "type": "address"
        },
        {
          "indexed": true,
          "internalType": "address",
          "name": "_spender",
          "type": "address"
        },
        {
          "indexed": false,
          "internalType": "uint256",
          "name": "_value",
          "type": "uint256"
        }
      ],
      "name": "Approval",
      "type": "event"
    },
    {
      "anonymous": false,
      "inputs": [
        {
          "indexed": true,
          "internalType": "address",
          "name": "_burner",
          "type": "address"
        },
        {
          "indexed": false,
          "internalType": "uint256",
          "name": "_value",
          "type": "uint256"
        }
      ],
      "name": "Burn",
      "type": "event"
    },
    {
      "anonymous": false,
      "inputs": [
        {
          "indexed": true,
          "internalType": "address",
          "name": "_from",
          "type": "address"
        },
        {
          "indexed": true,
          "internalType": "address",
          "name": "_to",
          "type": "address"
        },
        {
          "indexed": false,
          "internalType": "uint256",
          "name": "_value",
          "type": "uint256"
        }
      ],
      "name": "Transfer",
      "type": "event"
    },
    {
      "inputs": [
        {
          "internalType": "address",
          "name": "_owner",
          "type": "address"
        },
        {
          "internalType": "address",
          "name": "_spender",
          "type": "address"
        }
      ],
      "name": "allowance",
      "outputs": [
        {
          "internalType": "uint256",
          "name": "remaining",
          "type": "uint256"
        }
      ],
      "stateMutability": "view",
      "type": "function"
    },
    {
      "inputs": [
        {
          "internalType": "address",
          "name": "_spender",
          "type": "address"
        },
        {
          "internalType": "uint256",
          "name": "_value",
          "type": "uint256"
        }
      ],
      "name": "approve",
      "outputs": [
        {
          "internalType": "bool",
          "name": "",
          "type": "bool"
        }
      ],
      "stateMutability": "nonpayable",
      "type": "function"
    },
    {
      "inputs": [
        {
          "internalType": "address",
          "name": "_owner",
          "type": "address"
        }
      ],
      "name": "balanceOf",
      "outputs": [
        {
          "internalType": "uint256",
          "name": "balance",
          "type": "uint256"
        }
      ],
      "stateMutability": "view",
      "type": "function"
    },
    {
      "inputs": [],
      "name": "decimals",
      "outputs": [
        {
          "internalType": "uint256",
          "name": "",
          "type": "uint256"
        }
      ],
      "stateMutability": "view",
      "type": "function"
    },
    {
      "inputs": [],
      "name": "name",
      "outputs": [
        {
          "internalType": "string",
          "name": "",
          "type": "string"
        }
      ],
      "stateMutability": "view",
      "type": "function"
    },
    {
      "inputs": [],
      "name": "owner",
      "outputs": [
        {
          "internalType": "address",
          "name": "",
          "type": "address"
        }
      ],
      "stateMutability": "view",
      "type": "function"
    },
    {
      "inputs": [],
      "name": "saleEndTime",
      "outputs": [
        {
          "internalType": "uint256",
          "name": "",
          "type": "uint256"
        }
      ],
      "stateMutability": "view",
      "type": "function"
    },
    {
      "inputs": [],
      "name": "saleStartTime",
      "outputs": [
        {
          "internalType": "uint256",
          "name": "",
          "type": "uint256"
        }
      ],
      "stateMutability": "view",
      "type": "function"
    },
    {
      "inputs": [],
      "name": "symbol",
      "outputs": [
        {
          "internalType": "string",
          "name": "",
          "type": "string"
        }
      ],
      "stateMutability": "view",
      "type": "function"
    },
    {
      "inputs": [],
      "name": "tokenSaleContract",
      "outputs": [
        {
          "internalType": "address",
          "name": "",
          "type": "address"
        }
      ],
      "stateMutability": "view",
      "type": "function"
    },
    {
      "inputs": [],
      "name": "totalSupply",
      "outputs": [
        {
          "internalType": "uint256",
          "name": "",
          "type": "uint256"
        }
      ],
      "stateMutability": "view",
      "type": "function"
    },
    {
      "inputs": [
        {
          "internalType": "address",
          "name": "newOwner",
          "type": "address"
        }
      ],
      "name": "transferOwnership",
      "outputs": [],
      "stateMutability": "nonpayable",
      "type": "function"
    },
    {
      "inputs": [
        {
          "internalType": "address",
          "name": "_to",
          "type": "address"
        },
        {
          "internalType": "uint256",
          "name": "_value",
          "type": "uint256"
        }
      ],
      "name": "transfer",
      "outputs": [
        {
          "internalType": "bool",
          "name": "",
          "type": "bool"
        }
      ],
      "stateMutability": "nonpayable",
      "type": "function"
    },
    {
      "inputs": [
        {
          "internalType": "address",
          "name": "_from",
          "type": "address"
        },
        {
          "internalType": "address",
          "name": "_to",
          "type": "address"
        },
        {
          "internalType": "uint256",
          "name": "_value",
          "type": "uint256"
        }
      ],
      "name": "transferFrom",
      "outputs": [
        {
          "internalType": "bool",
          "name": "",
          "type": "bool"
        }
      ],
      "stateMutability": "nonpayable",
      "type": "function"
    },
    {
      "inputs": [
        {
          "internalType": "uint256",
          "name": "_value",
          "type": "uint256"
        }
      ],
      "name": "burn",
      "outputs": [
        {
          "internalType": "bool",
          "name": "",
          "type": "bool"
        }
      ],
      "stateMutability": "nonpayable",
      "type": "function"
    },
    {
      "inputs": [
        {
          "internalType": "address",
          "name": "_from",
          "type": "address"
        },
        {
          "internalType": "uint256",
          "name": "_value",
          "type": "uint256"
        }
      ],
      "name": "burnFrom",
      "outputs": [
        {
          "internalType": "bool",
          "name": "",
          "type": "bool"
        }
      ],
      "stateMutability": "nonpayable",
      "type": "function"
    },
    {
      "inputs": [
        {
          "internalType": "contract ERC20",
          "name": "token",
          "type": "address"
        },
        {
          "internalType": "uint256",
          "name": "amount",
          "type": "uint256"
        }
      ],
      "name": "emergencyERC20Drain",
      "outputs": [],
      "stateMutability": "nonpayable",
      "type": "function"
    }
  ],
  "bytecode": "0x60806040523480156200001157600080fd5b5060405162001a8838038062001a8883398181016040528101906200003791906200030f565b33600360006101000a81548173ffffffffffffffffffffffffffffffffffffffff021916908373ffffffffffffffffffffffffffffffffffffffff16021790555083600160003373ffffffffffffffffffffffffffffffffffffffff1673ffffffffffffffffffffffffffffffffffffffff16815260200190815260200160002081905550836000819055503373ffffffffffffffffffffffffffffffffffffffff16600073ffffffffffffffffffffffffffffffffffffffff167fddf252ad1be2c89b69c2b068fc378daa952ba7f163c4a11628f55a4df523b3ef8660405162000123919062000392565b60405180910390a3826004819055508160058190555033600660006101000a81548173ffffffffffffffffffffffffffffffffffffffff021916908373ffffffffffffffffffffffffffffffffffffffff1602179055506200018b816200019560201b60201c565b50505050620003af565b600360009054906101000a900473ffffffffffffffffffffffffffffffffffffffff1673ffffffffffffffffffffffffffffffffffffffff163373ffffffffffffffffffffffffffffffffffffffff1614620001f057600080fd5b600073ffffffffffffffffffffffffffffffffffffffff168173ffffffffffffffffffffffffffffffffffffffff1614620002675780600360006101000a81548173ffffffffffffffffffffffffffffffffffffffff021916908373ffffffffffffffffffffffffffffffffffffffff1602179055505b50565b600080fd5b6000819050919050565b62000284816200026f565b81146200029057600080fd5b50565b600081519050620002a48162000279565b92915050565b600073ffffffffffffffffffffffffffffffffffffffff82169050919050565b6000620002d782620002aa565b9050919050565b620002e981620002ca565b8114620002f557600080fd5b50565b6000815190506200030981620002de565b92915050565b600080600080608085870312156200032c576200032b6200026a565b5b60006200033c8782880162000293565b94505060206200034f8782880162000293565b9350506040620003628782880162000293565b92505060606200037587828801620002f8565b91505092959194509250565b6200038c816200026f565b82525050565b6000602082019050620003a9600083018462000381565b92915050565b6116c980620003bf6000396000f3fe608060405234801561001057600080fd5b506004361061010b5760003560e01c806370a08231116100a2578063a9059cbb11610071578063a9059cbb146102d2578063db0e16f114610302578063dd62ed3e1461031e578063ed338ff11461034e578063f2fde38b1461036c5761010b565b806370a082311461023657806379cc6790146102665780638da5cb5b1461029657806395d89b41146102b45761010b565b806323b872dd116100de57806323b872dd1461019a578063313ce567146101ca57806342966c68146101e85780635d5aa277146102185761010b565b806306fdde0314610110578063095ea7b31461012e57806318160ddd1461015e5780631cbaee2d1461017c575b600080fd5b610118610388565b6040516101259190611239565b60405180910390f35b610148600480360381019061014391906112f4565b6103c1565b604051610155919061134f565b60405180910390f35b610166610546565b6040516101739190611379565b60405180910390f35b61018461054c565b6040516101919190611379565b60405180910390f35b6101b460048036038101906101af9190611394565b610552565b6040516101c1919061134f565b60405180910390f35b6101d2610651565b6040516101df9190611379565b60405180910390f35b61020260048036038101906101fd91906113e7565b610656565b60405161020f919061134f565b60405180910390f35b610220610839565b60405161022d9190611423565b60405180910390f35b610250600480360381019061024b919061143e565b61085f565b60405161025d9190611379565b60405180910390f35b610280600480360381019061027b91906112f4565b6108a8565b60405161028d919061134f565b60405180910390f35b61029e610947565b6040516102ab9190611423565b60405180910390f35b6102bc61096d565b6040516102c99190611239565b60405180910390f35b6102ec60048036038101906102e791906112f4565b6109a6565b6040516102f9919061134f565b60405180910390f35b61031c600480360381019061031791906114a9565b610aa3565b005b610338600480360381019061033391906114e9565b610ba2565b6040516103459190611379565b60405180910390f35b610356610c29565b6040516103639190611379565b60405180910390f35b6103866004803603810190610381919061143e565b610c2f565b005b6040518060400160405280601581526020017f4b79626572204e6574776f726b204372797374616c000000000000000000000081525081565b60008082148061044d57506000600260003373ffffffffffffffffffffffffffffffffffffffff1673ffffffffffffffffffffffffffffffffffffffff16815260200190815260200160002060008573ffffffffffffffffffffffffffffffffffffffff1673ffffffffffffffffffffffffffffffffffffffff16815260200190815260200160002054145b61045657600080fd5b81600260003373ffffffffffffffffffffffffffffffffffffffff1673ffffffffffffffffffffffffffffffffffffffff16815260200190815260200160002060008573ffffffffffffffffffffffffffffffffffffffff1673ffffffffffffffffffffffffffffffffffffffff168152602001908152602001600020819055508273ffffffffffffffffffffffffffffffffffffffff163373ffffffffffffffffffffffffffffffffffffffff167f8c5be1e5ebec7d5bd14f71427d1e84f3dd0314c0f7b2291e5b200ac8c7c3b925846040516105349190611379565b60405180910390a36001905092915050565b60005481565b60045481565b6000600554421115801561056857506004544210155b156105c857600660009054906101000a900473ffffffffffffffffffffffffffffffffffffffff1673ffffffffffffffffffffffffffffffffffffffff163373ffffffffffffffffffffffffffffffffffffffff16146105c757600080fd5b5b82600073ffffffffffffffffffffffffffffffffffffffff168173ffffffffffffffffffffffffffffffffffffffff16141561060357600080fd5b3073ffffffffffffffffffffffffffffffffffffffff168173ffffffffffffffffffffffffffffffffffffffff16141561063c57600080fd5b610647858585610d02565b9150509392505050565b601281565b6000600554421115801561066c57506004544210155b156106cc57600660009054906101000a900473ffffffffffffffffffffffffffffffffffffffff1673ffffffffffffffffffffffffffffffffffffffff163373ffffffffffffffffffffffffffffffffffffffff16146106cb57600080fd5b5b61071e82600160003373ffffffffffffffffffffffffffffffffffffffff1673ffffffffffffffffffffffffffffffffffffffff16815260200190815260200160002054610fb290919063ffffffff16565b600160003373ffffffffffffffffffffffffffffffffffffffff1673ffffffffffffffffffffffffffffffffffffffff1681526020019081526020016000208190555061077682600054610fb290919063ffffffff16565b6000819055503373ffffffffffffffffffffffffffffffffffffffff167fcc16f5dbb4873280815c1ee09dbd06736cffcc184412cf7a71a0fdb75d397ca5836040516107c29190611379565b60405180910390a2600073ffffffffffffffffffffffffffffffffffffffff163373ffffffffffffffffffffffffffffffffffffffff167fddf252ad1be2c89b69c2b068fc378daa952ba7f163c4a11628f55a4df523b3ef846040516108289190611379565b60405180910390a360019050919050565b600660009054906101000a900473ffffffffffffffffffffffffffffffffffffffff1681565b6000600160008373ffffffffffffffffffffffffffffffffffffffff1673ffffffffffffffffffffffffffffffffffffffff168152602001908152602001600020549050919050565b600060055442111580156108be57506004544210155b1561091e57600660009054906101000a900473ffffffffffffffffffffffffffffffffffffffff1673ffffffffffffffffffffffffffffffffffffffff163373ffffffffffffffffffffffffffffffffffffffff161461091d57600080fd5b5b610929833384610552565b61093657610935611529565b5b61093f82610656565b905092915050565b600360009054906101000a900473ffffffffffffffffffffffffffffffffffffffff1681565b6040518060400160405280600381526020017f4b4e43000000000000000000000000000000000000000000000000000000000081525081565b600060055442111580156109bc57506004544210155b15610a1c57600660009054906101000a900473ffffffffffffffffffffffffffffffffffffffff1673ffffffffffffffffffffffffffffffffffffffff163373ffffffffffffffffffffffffffffffffffffffff1614610a1b57600080fd5b5b82600073ffffffffffffffffffffffffffffffffffffffff168173ffffffffffffffffffffffffffffffffffffffff161415610a5757600080fd5b3073ffffffffffffffffffffffffffffffffffffffff168173ffffffffffffffffffffffffffffffffffffffff161415610a9057600080fd5b610a9a8484610fd9565b91505092915050565b600360009054906101000a900473ffffffffffffffffffffffffffffffffffffffff1673ffffffffffffffffffffffffffffffffffffffff163373ffffffffffffffffffffffffffffffffffffffff1614610afd57600080fd5b8173ffffffffffffffffffffffffffffffffffffffff1663a9059cbb600360009054906101000a900473ffffffffffffffffffffffffffffffffffffffff16836040518363ffffffff1660e01b8152600401610b5a929190611558565b6020604051808303816000875af1158015610b79573d6000803e3d6000fd5b505050506040513d601f19601f82011682018060405250810190610b9d91906115ad565b505050565b6000600260008473ffffffffffffffffffffffffffffffffffffffff1673ffffffffffffffffffffffffffffffffffffffff16815260200190815260200160002060008373ffffffffffffffffffffffffffffffffffffffff1673ffffffffffffffffffffffffffffffffffffffff16815260200190815260200160002054905092915050565b60055481565b600360009054906101000a900473ffffffffffffffffffffffffffffffffffffffff1673ffffffffffffffffffffffffffffffffffffffff163373ffffffffffffffffffffffffffffffffffffffff1614610c8957600080fd5b600073ffffffffffffffffffffffffffffffffffffffff168173ffffffffffffffffffffffffffffffffffffffff1614610cff5780600360006101000a81548173ffffffffffffffffffffffffffffffffffffffff021916908373ffffffffffffffffffffffffffffffffffffffff1602179055505b50565b600080600260008673ffffffffffffffffffffffffffffffffffffffff1673ffffffffffffffffffffffffffffffffffffffff16815260200190815260200160002060003373ffffffffffffffffffffffffffffffffffffffff1673ffffffffffffffffffffffffffffffffffffffff168152602001908152602001600020549050610dd683600160008873ffffffffffffffffffffffffffffffffffffffff1673ffffffffffffffffffffffffffffffffffffffff16815260200190815260200160002054610fb290919063ffffffff16565b600160008773ffffffffffffffffffffffffffffffffffffffff1673ffffffffffffffffffffffffffffffffffffffff16815260200190815260200160002081905550610e6b83600160008773ffffffffffffffffffffffffffffffffffffffff1673ffffffffffffffffffffffffffffffffffffffff1681526020019081526020016000205461117490919063ffffffff16565b600160008673ffffffffffffffffffffffffffffffffffffffff1673ffffffffffffffffffffffffffffffffffffffff16815260200190815260200160002081905550610ec18382610fb290919063ffffffff16565b600260008773ffffffffffffffffffffffffffffffffffffffff1673ffffffffffffffffffffffffffffffffffffffff16815260200190815260200160002060003373ffffffffffffffffffffffffffffffffffffffff1673ffffffffffffffffffffffffffffffffffffffff168152602001908152602001600020819055508373ffffffffffffffffffffffffffffffffffffffff168573ffffffffffffffffffffffffffffffffffffffff167fddf252ad1be2c89b69c2b068fc378daa952ba7f163c4a11628f55a4df523b3ef85604051610f9e9190611379565b60405180910390a360019150509392505050565b600082821115610fc557610fc4611529565b5b8183610fd19190611609565b905092915050565b600061102d82600160003373ffffffffffffffffffffffffffffffffffffffff1673ffffffffffffffffffffffffffffffffffffffff16815260200190815260200160002054610fb290919063ffffffff16565b600160003373ffffffffffffffffffffffffffffffffffffffff1673ffffffffffffffffffffffffffffffffffffffff168152602001908152602001600020819055506110c282600160008673ffffffffffffffffffffffffffffffffffffffff1673ffffffffffffffffffffffffffffffffffffffff1681526020019081526020016000205461117490919063ffffffff16565b600160008573ffffffffffffffffffffffffffffffffffffffff1673ffffffffffffffffffffffffffffffffffffffff168152602001908152602001600020819055508273ffffffffffffffffffffffffffffffffffffffff163373ffffffffffffffffffffffffffffffffffffffff167fddf252ad1be2c89b69c2b068fc378daa952ba7f163c4a11628f55a4df523b3ef846040516111629190611379565b60405180910390a36001905092915050565b6000808284611183919061163d565b90508381101561119657611195611529565b5b8091505092915050565b600081519050919050565b600082825260208201905092915050565b60005b838110156111da5780820151818401526020810190506111bf565b838111156111e9576000848401525b50505050565b6000601f19601f8301169050919050565b600061120b826111a0565b61121581856111ab565b93506112258185602086016111bc565b61122e816111ef565b840191505092915050565b600060208201905081810360008301526112538184611200565b905092915050565b600080fd5b600073ffffffffffffffffffffffffffffffffffffffff82169050919050565b600061128b82611260565b9050919050565b61129b81611280565b81146112a657600080fd5b50565b6000813590506112b881611292565b92915050565b6000819050919050565b6112d1816112be565b81146112dc57600080fd5b50565b6000813590506112ee816112c8565b92915050565b6000806040838503121561130b5761130a61125b565b5b6000611319858286016112a9565b925050602061132a858286016112df565b9150509250929050565b60008115159050919050565b61134981611334565b82525050565b60006020820190506113646000830184611340565b92915050565b611373816112be565b82525050565b600060208201905061138e600083018461136a565b92915050565b6000806000606084860312156113ad576113ac61125b565b5b60006113bb868287016112a9565b93505060206113cc868287016112a9565b92505060406113dd868287016112df565b9150509250925092565b6000602082840312156113fd576113fc61125b565b5b600061140b848285016112df565b91505092915050565b61141d81611280565b82525050565b60006020820190506114386000830184611414565b92915050565b6000602082840312156114545761145361125b565b5b6000611462848285016112a9565b91505092915050565b600061147682611280565b9050919050565b6114868161146b565b811461149157600080fd5b50565b6000813590506114a38161147d565b92915050565b600080604083850312156114c0576114bf61125b565b5b60006114ce85828601611494565b92505060206114df858286016112df565b9150509250929050565b60008060408385031215611500576114ff61125b565b5b600061150e858286016112a9565b925050602061151f858286016112a9565b9150509250929050565b7f4e487b7100000000000000000000000000000000000000000000000000000000600052600160045260246000fd5b600060408201905061156d6000830185611414565b61157a602083018461136a565b9392505050565b61158a81611334565b811461159557600080fd5b50565b6000815190506115a781611581565b92915050565b6000602082840312156115c3576115c261125b565b5b60006115d184828501611598565b91505092915050565b7f4e487b7100000000000000000000000000000000000000000000000000000000600052601160045260246000fd5b6000611614826112be565b915061161f836112be565b925082821015611632576116316115da565b5b828203905092915050565b6000611648826112be565b9150611653836112be565b9250827fffffffffffffffffffffffffffffffffffffffffffffffffffffffffffffffff03821115611688576116876115da565b5b82820190509291505056fea2646970667358221220cd62f6d11c7d5257b394bf7fcd3732bb581224ff7c403e478abaabb386e9eb6564736f6c634300080c0033",
  "immutableReferences": {},
  "source": "// Upgraded from pragma solidity ^0.4.13 to ^0.8.12\npragma solidity ^0.8.12;\n\nlibrary SafeMath {\n  function mul(uint256 a, uint256 b) internal pure returns (uint256) {\n    uint256 c = a * b;\n    assert(a == 0 || c / a == b);\n    return c;\n  }\n\n  function div(uint256 a, uint256 b) internal pure returns (uint256) {\n    // assert(b > 0); // Solidity automatically throws when dividing by 0\n    uint256 c = a / b;\n    // assert(a == b * c + a % b); // There is no case in which this doesn't hold\n    return c;\n  }\n\n  function sub(uint256 a, uint256 b) internal pure returns (uint256) {\n    assert(b <= a);\n    return a - b;\n  }\n\n  function add(uint256 a, uint256 b) internal pure returns (uint256) {\n    uint256 c = a + b;\n    assert(c >= a);\n    return c;\n  }\n}\n\ncontract Ownable {\n  address public owner;\n\n\n  /**\n   * @dev The Ownable constructor sets the original `owner` of the contract to the sender\n   * account.\n   */\n  constructor() {\n    owner = msg.sender;\n  }\n\n\n  /**\n   * @dev Throws if called by any account other than the owner.\n   */\n  modifier onlyOwner() {\n    require(msg.sender == owner);\n    _;\n  }\n\n\n  /**\n   * @dev Allows the current owner to transfer control of the contract to a newOwner.\n   * @param newOwner The address to transfer ownership to.\n   */\n  function transferOwnership(address newOwner) public onlyOwner {\n    if (newOwner != address(0)) {\n      owner = newOwner;\n    }\n  }\n\n}\n\n\n\nabstract contract ERC20Basic {\n  uint256 public totalSupply;\n  function balanceOf(address who) public view virtual returns (uint256);\n  function transfer(address to, uint256 value) public virtual returns (bool);\n\n  // KYBER-NOTE! code changed to comply with ERC20 standard\n  event Transfer(address indexed _from, address indexed _to, uint _value);\n  //event Transfer(address indexed from, address indexed to, uint256 value);\n}\n\ncontract BasicToken is ERC20Basic {\n  using SafeMath for uint256;\n\n  mapping(address => uint256) balances;\n\n  /**\n  * @dev transfer token for a specified address\n  * @param _to The address to transfer to.\n  * @param _value The amount to be transferred.\n  */\n  function transfer(address _to, uint256 _value) public virtual override returns (bool) {\n    balances[msg.sender] = balances[msg.sender].sub(_value);\n    balances[_to] = balances[_to].add(_value);\n    emit Transfer(msg.sender, _to, _value);\n    return true;\n  }\n\n  /**\n  * @dev Gets the balance of the specified address.\n  * @param _owner The address to query the the balance of.\n  * @return balance An uint256 representing the amount owned by the passed address.\n  */\n  function balanceOf(address _owner) public view override returns (uint256 balance) {\n    return balances[_owner];\n  }\n\n}\n\nabstract contract ERC20 is ERC20Basic {\n  function allowance(address owner, address spender) public view virtual returns (uint256);\n  function transferFrom(address from, address to, uint256 value) public virtual returns (bool);\n  function approve(address spender, uint256 value) public virtual returns (bool);\n\n  // KYBER-NOTE! code changed to comply with ERC20 standard\n  event Approval(address indexed _owner, address indexed _spender, uint _value);\n  //event Approval(address indexed owner, address indexed spender, uint256 value);\n}\n\ncontract StandardToken is ERC20, BasicToken {\n  using SafeMath for uint256;\n\n  mapping (address => mapping (address => uint256)) allowed;\n\n\n  /**\n   * @dev Transfer tokens from one address to another\n   * @param _from address The address which you want to send tokens from\n   * @param _to address The address which you want to transfer to\n   * @param _value uint256 the amout of tokens to be transfered\n   */\n  function transferFrom(address _from, address _to, uint256 _value) public virtual override returns (bool) {\n    uint256 _allowance = allowed[_from][msg.sender];\n\n    // Check is not needed because sub(_allowance, _value) will already throw if this condition is not met\n    // require (_value <= _allowance);\n\n    // KYBER-NOTE! code changed to comply with ERC20 standard\n    balances[_from] = balances[_from].sub(_value);\n    balances[_to] = balances[_to].add(_value);\n    //balances[_from] = balances[_from].sub(_value); // this was removed\n    allowed[_from][msg.sender] = _allowance.sub(_value);\n    emit Transfer(_from, _to, _value);\n    return true;\n  }\n\n  /**\n   * @dev Aprove the passed address to spend the specified amount of tokens on behalf of msg.sender.\n   * @param _spender The address which will spend the funds.\n   * @param _value The amount of tokens to be spent.\n   */\n  function approve(address _spender, uint256 _value) public override returns (bool) {\n\n    // To change the approve amount you first have to reduce the addresses`\n    //  allowance to zero by calling `approve(_spender, 0)` if it is not\n    //  already 0 to mitigate the race condition described here:\n    //  https://github.com/ethereum/EIPs/issues/20#issuecomment-263524729\n    require((_value == 0) || (allowed[msg.sender][_spender] == 0));\n\n    allowed[msg.sender][_spender] = _value;\n    emit Approval(msg.sender, _spender, _value);\n    return true;\n  }\n\n  /**\n   * @dev Function to check the amount of tokens that an owner allowed to a spender.\n   * @param _owner address The address which owns the funds.\n   * @param _spender address The address which will spend the funds.\n   * @return remaining A uint256 specifing the amount of tokens still avaible for the spender.\n   */\n  function allowance(address _owner, address _spender) public view override returns (uint256 remaining) {\n    return allowed[_owner][_spender];\n  }\n\n}\n\ncontract KyberNetworkCrystal is StandardToken, Ownable {\n    using SafeMath for uint256;\n\n    string  public  constant name = \"Kyber Network Crystal\";\n    string  public  constant symbol = \"KNC\";\n    uint    public  constant decimals = 18;\n\n    uint    public  saleStartTime;\n    uint    public  saleEndTime;\n\n    address public  tokenSaleContract;\n\n    modifier onlyWhenTransferEnabled() {\n        if( block.timestamp <= saleEndTime && block.timestamp >= saleStartTime ) {\n            require( msg.sender == tokenSaleContract );\n        }\n        _;\n    }\n\n    modifier validDestination( address to ) {\n        require(to != address(0));\n        require(to != address(this) );\n        _;\n    }\n\n    constructor( uint tokenTotalAmount, uint startTime, uint endTime, address admin ) {\n        // Mint all tokens. Then disable minting forever.\n        balances[msg.sender] = tokenTotalAmount;\n        totalSupply = tokenTotalAmount;\n        emit Transfer(address(0), msg.sender, tokenTotalAmount);\n\n        saleStartTime = startTime;\n        saleEndTime = endTime;\n\n        tokenSaleContract = msg.sender;\n        transferOwnership(admin); // admin could drain tokens that were sent here by mistake\n    }\n\n    function transfer(address _to, uint _value)\n        public\n        override(BasicToken, ERC20Basic)\n        onlyWhenTransferEnabled\n        validDestination(_to)\n        returns (bool) {\n        return super.transfer(_to, _value);\n    }\n\n    function transferFrom(address _from, address _to, uint _value)\n        public\n        override(StandardToken)\n        onlyWhenTransferEnabled\n        validDestination(_to)\n        returns (bool) {\n        return super.transferFrom(_from, _to, _value);\n    }\n\n    event Burn(address indexed _burner, uint _value);\n\n    function burn(uint _value) public onlyWhenTransferEnabled\n        returns (bool){\n        balances[msg.sender] = balances[msg.sender].sub(_value);\n        totalSupply = totalSupply.sub(_value);\n        emit Burn(msg.sender, _value);\n        emit Transfer(msg.sender, address(0), _value);\n        return true;\n    }\n\n    // save some gas by making only one contract call\n    function burnFrom(address _from, uint256 _value) public onlyWhenTransferEnabled\n        returns (bool) {\n        assert( transferFrom( _from, msg.sender, _value ) );\n        return burn(_value);\n    }\n\n    function emergencyERC20Drain( ERC20 token, uint amount ) public onlyOwner {\n        token.transfer( owner, amount );\n    }\n}\n",
  "sourcePath": "/home/lanlu/VLDB26_new/OCELOT/declarative-smart-contracts/Reference/kyberNetworkCrystalref.sol",
  "compiler": {
    "name": "solc",
    "version": "0.8.12+commit.f00d7308.Emscripten.clang"
  },
  "schemaVersion": "3.4.16",
  "updatedAt": "2026-04-17T23:49:21.485Z",
  "devdoc": {
    "kind": "dev",
    "methods": {
      "allowance(address,address)": {
        "details": "Function to check the amount of tokens that an owner allowed to a spender.",
        "params": {
          "_owner": "address The address which owns the funds.",
          "_spender": "address The address which will spend the funds."
        },
        "returns": {
          "remaining": "A uint256 specifing the amount of tokens still avaible for the spender."
        }
      },
      "approve(address,uint256)": {
        "details": "Aprove the passed address to spend the specified amount of tokens on behalf of msg.sender.",
        "params": {
          "_spender": "The address which will spend the funds.",
          "_value": "The amount of tokens to be spent."
        }
      },
      "balanceOf(address)": {
        "details": "Gets the balance of the specified address.",
        "params": {
          "_owner": "The address to query the the balance of."
        },
        "returns": {
          "balance": "An uint256 representing the amount owned by the passed address."
        }
      },
      "transferFrom(address,address,uint256)": {
        "details": "Transfer tokens from one address to another",
        "params": {
          "_from": "address The address which you want to send tokens from",
          "_to": "address The address which you want to transfer to",
          "_value": "uint256 the amout of tokens to be transfered"
        }
      },
      "transferOwnership(address)": {
        "details": "Allows the current owner to transfer control of the contract to a newOwner.",
        "params": {
          "newOwner": "The address to transfer ownership to."
        }
      }
    },
    "version": 1
  },
  "userdoc": {
    "kind": "user",
    "methods": {},
    "version": 1
  }
}