{
  "contractName": "PausableToken",
  "abi": [
    {
      "anonymous": false,
      "inputs": [
        {
          "indexed": true,
          "internalType": "address",
          "name": "owner",
          "type": "address"
        },
        {
          "indexed": true,
          "internalType": "address",
          "name": "spender",
          "type": "address"
        },
        {
          "indexed": false,
          "internalType": "uint256",
          "name": "value",
          "type": "uint256"
        }
      ],
      "name": "Approval",
      "type": "event"
    },
    {
      "anonymous": false,
      "inputs": [],
      "name": "Pause",
      "type": "event"
    },
    {
      "anonymous": false,
      "inputs": [
        {
          "indexed": true,
          "internalType": "address",
          "name": "from",
          "type": "address"
        },
        {
          "indexed": true,
          "internalType": "address",
          "name": "to",
          "type": "address"
        },
        {
          "indexed": false,
          "internalType": "uint256",
          "name": "value",
          "type": "uint256"
        }
      ],
      "name": "Transfer",
      "type": "event"
    },
    {
      "anonymous": false,
      "inputs": [],
      "name": "Unpause",
      "type": "event"
    },
    {
      "inputs": [
        {
          "internalType": "address",
          "name": "_owner",
          "type": "address"
        },
        {
          "internalType": "address",
          "name": "_spender",
          "type": "address"
        }
      ],
      "name": "allowance",
      "outputs": [
        {
          "internalType": "uint256",
          "name": "remaining",
          "type": "uint256"
        }
      ],
      "stateMutability": "view",
      "type": "function"
    },
    {
      "inputs": [
        {
          "internalType": "address",
          "name": "_spender",
          "type": "address"
        },
        {
          "internalType": "uint256",
          "name": "_value",
          "type": "uint256"
        }
      ],
      "name": "approve",
      "outputs": [
        {
          "internalType": "bool",
          "name": "",
          "type": "bool"
        }
      ],
      "stateMutability": "nonpayable",
      "type": "function"
    },
    {
      "inputs": [
        {
          "internalType": "address",
          "name": "_owner",
          "type": "address"
        }
      ],
      "name": "balanceOf",
      "outputs": [
        {
          "internalType": "uint256",
          "name": "balance",
          "type": "uint256"
        }
      ],
      "stateMutability": "view",
      "type": "function"
    },
    {
      "inputs": [],
      "name": "owner",
      "outputs": [
        {
          "internalType": "address",
          "name": "",
          "type": "address"
        }
      ],
      "stateMutability": "view",
      "type": "function"
    },
    {
      "inputs": [],
      "name": "pause",
      "outputs": [
        {
          "internalType": "bool",
          "name": "",
          "type": "bool"
        }
      ],
      "stateMutability": "nonpayable",
      "type": "function"
    },
    {
      "inputs": [],
      "name": "paused",
      "outputs": [
        {
          "internalType": "bool",
          "name": "",
          "type": "bool"
        }
      ],
      "stateMutability": "view",
      "type": "function"
    },
    {
      "inputs": [],
      "name": "totalSupply",
      "outputs": [
        {
          "internalType": "uint256",
          "name": "",
          "type": "uint256"
        }
      ],
      "stateMutability": "view",
      "type": "function"
    },
    {
      "inputs": [
        {
          "internalType": "address",
          "name": "newOwner",
          "type": "address"
        }
      ],
      "name": "transferOwnership",
      "outputs": [],
      "stateMutability": "nonpayable",
      "type": "function"
    },
    {
      "inputs": [],
      "name": "unpause",
      "outputs": [
        {
          "internalType": "bool",
          "name": "",
          "type": "bool"
        }
      ],
      "stateMutability": "nonpayable",
      "type": "function"
    },
    {
      "inputs": [
        {
          "internalType": "address",
          "name": "_to",
          "type": "address"
        },
        {
          "internalType": "uint256",
          "name": "_value",
          "type": "uint256"
        }
      ],
      "name": "transfer",
      "outputs": [
        {
          "internalType": "bool",
          "name": "",
          "type": "bool"
        }
      ],
      "stateMutability": "nonpayable",
      "type": "function"
    },
    {
      "inputs": [
        {
          "internalType": "address",
          "name": "_from",
          "type": "address"
        },
        {
          "internalType": "address",
          "name": "_to",
          "type": "address"
        },
        {
          "internalType": "uint256",
          "name": "_value",
          "type": "uint256"
        }
      ],
      "name": "transferFrom",
      "outputs": [
        {
          "internalType": "bool",
          "name": "",
          "type": "bool"
        }
      ],
      "stateMutability": "nonpayable",
      "type": "function"
    }
  ],
  "bytecode": "0x60806040526000600360146101000a81548160ff02191690831515021790555034801561002b57600080fd5b5033600360006101000a81548173ffffffffffffffffffffffffffffffffffffffff021916908373ffffffffffffffffffffffffffffffffffffffff160217905550610f7b8061007c6000396000f3fe608060405234801561001057600080fd5b50600436106100a95760003560e01c806370a082311161007157806370a08231146101685780638456cb59146101985780638da5cb5b146101b6578063a9059cbb146101d4578063dd62ed3e14610204578063f2fde38b14610234576100a9565b8063095ea7b3146100ae57806318160ddd146100de57806323b872dd146100fc5780633f4ba83a1461012c5780635c975abb1461014a575b600080fd5b6100c860048036038101906100c39190610cd3565b610250565b6040516100d59190610d2e565b60405180910390f35b6100e66103d5565b6040516100f39190610d58565b60405180910390f35b61011660048036038101906101119190610d73565b6103db565b6040516101239190610d2e565b60405180910390f35b61013461040b565b6040516101419190610d2e565b60405180910390f35b6101526104ce565b60405161015f9190610d2e565b60405180910390f35b610182600480360381019061017d9190610dc6565b6104e1565b60405161018f9190610d58565b60405180910390f35b6101a061052a565b6040516101ad9190610d2e565b60405180910390f35b6101be6105ee565b6040516101cb9190610e02565b60405180910390f35b6101ee60048036038101906101e99190610cd3565b610614565b6040516101fb9190610d2e565b60405180910390f35b61021e60048036038101906102199190610e1d565b610642565b60405161022b9190610d58565b60405180910390f35b61024e60048036038101906102499190610dc6565b6106c9565b005b6000808214806102dc57506000600260003373ffffffffffffffffffffffffffffffffffffffff1673ffffffffffffffffffffffffffffffffffffffff16815260200190815260200160002060008573ffffffffffffffffffffffffffffffffffffffff1673ffffffffffffffffffffffffffffffffffffffff16815260200190815260200160002054145b6102e557600080fd5b81600260003373ffffffffffffffffffffffffffffffffffffffff1673ffffffffffffffffffffffffffffffffffffffff16815260200190815260200160002060008573ffffffffffffffffffffffffffffffffffffffff1673ffffffffffffffffffffffffffffffffffffffff168152602001908152602001600020819055508273ffffffffffffffffffffffffffffffffffffffff163373ffffffffffffffffffffffffffffffffffffffff167f8c5be1e5ebec7d5bd14f71427d1e84f3dd0314c0f7b2291e5b200ac8c7c3b925846040516103c39190610d58565b60405180910390a36001905092915050565b60005481565b6000600360149054906101000a900460ff16156103f757600080fd5b61040284848461079c565b90509392505050565b6000600360009054906101000a900473ffffffffffffffffffffffffffffffffffffffff1673ffffffffffffffffffffffffffffffffffffffff163373ffffffffffffffffffffffffffffffffffffffff161461046757600080fd5b600360149054906101000a900460ff1661048057600080fd5b6000600360146101000a81548160ff0219169083151502179055507f7805862f689e2f13df9f062ff482ad3ad112aca9e0847911ed832e158c525b3360405160405180910390a16001905090565b600360149054906101000a900460ff1681565b6000600160008373ffffffffffffffffffffffffffffffffffffffff1673ffffffffffffffffffffffffffffffffffffffff168152602001908152602001600020549050919050565b6000600360009054906101000a900473ffffffffffffffffffffffffffffffffffffffff1673ffffffffffffffffffffffffffffffffffffffff163373ffffffffffffffffffffffffffffffffffffffff161461058657600080fd5b600360149054906101000a900460ff16156105a057600080fd5b6001600360146101000a81548160ff0219169083151502179055507f6985a02210a168e66602d3235cb6db0e70f92b3ba4d376a33c0f3d9434bff62560405160405180910390a16001905090565b600360009054906101000a900473ffffffffffffffffffffffffffffffffffffffff1681565b6000600360149054906101000a900460ff161561063057600080fd5b61063a8383610a4c565b905092915050565b6000600260008473ffffffffffffffffffffffffffffffffffffffff1673ffffffffffffffffffffffffffffffffffffffff16815260200190815260200160002060008373ffffffffffffffffffffffffffffffffffffffff1673ffffffffffffffffffffffffffffffffffffffff16815260200190815260200160002054905092915050565b600360009054906101000a900473ffffffffffffffffffffffffffffffffffffffff1673ffffffffffffffffffffffffffffffffffffffff163373ffffffffffffffffffffffffffffffffffffffff161461072357600080fd5b600073ffffffffffffffffffffffffffffffffffffffff168173ffffffffffffffffffffffffffffffffffffffff16146107995780600360006101000a81548173ffffffffffffffffffffffffffffffffffffffff021916908373ffffffffffffffffffffffffffffffffffffffff1602179055505b50565b600080600260008673ffffffffffffffffffffffffffffffffffffffff1673ffffffffffffffffffffffffffffffffffffffff16815260200190815260200160002060003373ffffffffffffffffffffffffffffffffffffffff1673ffffffffffffffffffffffffffffffffffffffff16815260200190815260200160002054905061087083600160008773ffffffffffffffffffffffffffffffffffffffff1673ffffffffffffffffffffffffffffffffffffffff16815260200190815260200160002054610be790919063ffffffff16565b600160008673ffffffffffffffffffffffffffffffffffffffff1673ffffffffffffffffffffffffffffffffffffffff1681526020019081526020016000208190555061090583600160008873ffffffffffffffffffffffffffffffffffffffff1673ffffffffffffffffffffffffffffffffffffffff16815260200190815260200160002054610c1390919063ffffffff16565b600160008773ffffffffffffffffffffffffffffffffffffffff1673ffffffffffffffffffffffffffffffffffffffff1681526020019081526020016000208190555061095b8382610c1390919063ffffffff16565b600260008773ffffffffffffffffffffffffffffffffffffffff1673ffffffffffffffffffffffffffffffffffffffff16815260200190815260200160002060003373ffffffffffffffffffffffffffffffffffffffff1673ffffffffffffffffffffffffffffffffffffffff168152602001908152602001600020819055508373ffffffffffffffffffffffffffffffffffffffff168573ffffffffffffffffffffffffffffffffffffffff167fddf252ad1be2c89b69c2b068fc378daa952ba7f163c4a11628f55a4df523b3ef85604051610a389190610d58565b60405180910390a360019150509392505050565b6000610aa082600160003373ffffffffffffffffffffffffffffffffffffffff1673ffffffffffffffffffffffffffffffffffffffff16815260200190815260200160002054610c1390919063ffffffff16565b600160003373ffffffffffffffffffffffffffffffffffffffff1673ffffffffffffffffffffffffffffffffffffffff16815260200190815260200160002081905550610b3582600160008673ffffffffffffffffffffffffffffffffffffffff1673ffffffffffffffffffffffffffffffffffffffff16815260200190815260200160002054610be790919063ffffffff16565b600160008573ffffffffffffffffffffffffffffffffffffffff1673ffffffffffffffffffffffffffffffffffffffff168152602001908152602001600020819055508273ffffffffffffffffffffffffffffffffffffffff163373ffffffffffffffffffffffffffffffffffffffff167fddf252ad1be2c89b69c2b068fc378daa952ba7f163c4a11628f55a4df523b3ef84604051610bd59190610d58565b60405180910390a36001905092915050565b6000808284610bf69190610e8c565b905083811015610c0957610c08610ee2565b5b8091505092915050565b600082821115610c2657610c25610ee2565b5b8183610c329190610f11565b905092915050565b600080fd5b600073ffffffffffffffffffffffffffffffffffffffff82169050919050565b6000610c6a82610c3f565b9050919050565b610c7a81610c5f565b8114610c8557600080fd5b50565b600081359050610c9781610c71565b92915050565b6000819050919050565b610cb081610c9d565b8114610cbb57600080fd5b50565b600081359050610ccd81610ca7565b92915050565b60008060408385031215610cea57610ce9610c3a565b5b6000610cf885828601610c88565b9250506020610d0985828601610cbe565b9150509250929050565b60008115159050919050565b610d2881610d13565b82525050565b6000602082019050610d436000830184610d1f565b92915050565b610d5281610c9d565b82525050565b6000602082019050610d6d6000830184610d49565b92915050565b600080600060608486031215610d8c57610d8b610c3a565b5b6000610d9a86828701610c88565b9350506020610dab86828701610c88565b9250506040610dbc86828701610cbe565b9150509250925092565b600060208284031215610ddc57610ddb610c3a565b5b6000610dea84828501610c88565b91505092915050565b610dfc81610c5f565b82525050565b6000602082019050610e176000830184610df3565b92915050565b60008060408385031215610e3457610e33610c3a565b5b6000610e4285828601610c88565b9250506020610e5385828601610c88565b9150509250929050565b7f4e487b7100000000000000000000000000000000000000000000000000000000600052601160045260246000fd5b6000610e9782610c9d565b9150610ea283610c9d565b9250827fffffffffffffffffffffffffffffffffffffffffffffffffffffffffffffffff03821115610ed757610ed6610e5d565b5b828201905092915050565b7f4e487b7100000000000000000000000000000000000000000000000000000000600052600160045260246000fd5b6000610f1c82610c9d565b9150610f2783610c9d565b925082821015610f3a57610f39610e5d565b5b82820390509291505056fea264697066735822122060f1453c10afc21b583712fa1b493acad2a489fc4e36aea520796d67f880e49d64736f6c634300080c0033",
  "immutableReferences": {},
  "source": "// Upgraded from pragma solidity ^0.4.11 to ^0.8.12\npragma solidity ^0.8.12;\n\n/**\n * @title SafeMath\n * @dev Math operations with safety checks that throw on error\n */\nlibrary SafeMath {\n  function mul(uint256 a, uint256 b) internal pure returns (uint256) {\n    uint256 c = a * b;\n    assert(a == 0 || c / a == b);\n    return c;\n  }\n\n  function div(uint256 a, uint256 b) internal pure returns (uint256) {\n    // assert(b > 0); // Solidity automatically throws when dividing by 0\n    uint256 c = a / b;\n    // assert(a == b * c + a % b); // There is no case in which this doesn't hold\n    return c;\n  }\n\n  function sub(uint256 a, uint256 b) internal pure returns (uint256) {\n    assert(b <= a);\n    return a - b;\n  }\n\n  function add(uint256 a, uint256 b) internal pure returns (uint256) {\n    uint256 c = a + b;\n    assert(c >= a);\n    return c;\n  }\n}\n\n\n/**\n * @title ERC20Basic\n * @dev Simpler version of ERC20 interface\n * @dev see https://github.com/ethereum/EIPs/issues/179\n */\nabstract contract ERC20Basic {\n  uint256 public totalSupply;\n  function balanceOf(address who) public view virtual returns (uint256);\n  function transfer(address to, uint256 value) public virtual returns (bool);\n  event Transfer(address indexed from, address indexed to, uint256 value);\n}\n\n\n/**\n * @title ERC20 interface\n * @dev see https://github.com/ethereum/EIPs/issues/20\n */\nabstract contract ERC20 is ERC20Basic {\n  function allowance(address owner, address spender) public view virtual returns (uint256);\n  function transferFrom(address from, address to, uint256 value) public virtual returns (bool);\n  function approve(address spender, uint256 value) public virtual returns (bool);\n  event Approval(address indexed owner, address indexed spender, uint256 value);\n}\n\n\n/**\n * @title Basic token\n * @dev Basic version of StandardToken, with no allowances.\n */\ncontract BasicToken is ERC20Basic {\n  using SafeMath for uint256;\n\n  mapping(address => uint256) balances;\n\n  /**\n  * @dev transfer token for a specified address\n  * @param _to The address to transfer to.\n  * @param _value The amount to be transferred.\n  */\n  function transfer(address _to, uint256 _value) public virtual override returns (bool) {\n    balances[msg.sender] = balances[msg.sender].sub(_value);\n    balances[_to] = balances[_to].add(_value);\n    emit Transfer(msg.sender, _to, _value);\n    return true;\n  }\n\n  /**\n  * @dev Gets the balance of the specified address.\n  * @param _owner The address to query the the balance of.\n  * @return balance An uint256 representing the amount owned by the passed address.\n  */\n  function balanceOf(address _owner) public view override returns (uint256 balance) {\n    return balances[_owner];\n  }\n\n}\n\n\n/**\n * @title Standard ERC20 token\n *\n * @dev Implementation of the basic standard token.\n * @dev https://github.com/ethereum/EIPs/issues/20\n * @dev Based on code by FirstBlood: https://github.com/Firstbloodio/token/blob/master/smart_contract/FirstBloodToken.sol\n */\ncontract StandardToken is ERC20, BasicToken {\n  using SafeMath for uint256;\n\n  mapping (address => mapping (address => uint256)) allowed;\n\n\n  /**\n   * @dev Transfer tokens from one address to another\n   * @param _from address The address which you want to send tokens from\n   * @param _to address The address which you want to transfer to\n   * @param _value uint256 the amout of tokens to be transfered\n   */\n  function transferFrom(address _from, address _to, uint256 _value) public virtual override returns (bool) {\n    uint256 _allowance = allowed[_from][msg.sender];\n\n    // Check is not needed because sub(_allowance, _value) will already throw if this condition is not met\n    // require (_value <= _allowance);\n\n    balances[_to] = balances[_to].add(_value);\n    balances[_from] = balances[_from].sub(_value);\n    allowed[_from][msg.sender] = _allowance.sub(_value);\n    emit Transfer(_from, _to, _value);\n    return true;\n  }\n\n  /**\n   * @dev Aprove the passed address to spend the specified amount of tokens on behalf of msg.sender.\n   * @param _spender The address which will spend the funds.\n   * @param _value The amount of tokens to be spent.\n   */\n  function approve(address _spender, uint256 _value) public override returns (bool) {\n\n    // To change the approve amount you first have to reduce the addresses`\n    //  allowance to zero by calling `approve(_spender, 0)` if it is not\n    //  already 0 to mitigate the race condition described here:\n    //  https://github.com/ethereum/EIPs/issues/20#issuecomment-263524729\n    require((_value == 0) || (allowed[msg.sender][_spender] == 0));\n\n    allowed[msg.sender][_spender] = _value;\n    emit Approval(msg.sender, _spender, _value);\n    return true;\n  }\n\n  /**\n   * @dev Function to check the amount of tokens that an owner allowed to a spender.\n   * @param _owner address The address which owns the funds.\n   * @param _spender address The address which will spend the funds.\n   * @return remaining A uint256 specifing the amount of tokens still avaible for the spender.\n   */\n  function allowance(address _owner, address _spender) public view override returns (uint256 remaining) {\n    return allowed[_owner][_spender];\n  }\n\n}\n\n\n/**\n * @title Ownable\n * @dev The Ownable contract has an owner address, and provides basic authorization control\n * functions, this simplifies the implementation of \"user permissions\".\n */\ncontract Ownable {\n  address public owner;\n\n\n  /**\n   * @dev The Ownable constructor sets the original `owner` of the contract to the sender\n   * account.\n   */\n  constructor() {\n    owner = msg.sender;\n  }\n\n\n  /**\n   * @dev Throws if called by any account other than the owner.\n   */\n  modifier onlyOwner() {\n    require(msg.sender == owner);\n    _;\n  }\n\n\n  /**\n   * @dev Allows the current owner to transfer control of the contract to a newOwner.\n   * @param newOwner The address to transfer ownership to.\n   */\n  function transferOwnership(address newOwner) public onlyOwner {\n    if (newOwner != address(0)) {\n      owner = newOwner;\n    }\n  }\n\n}\n\n\n/**\n * @title Pausable\n * @dev Base contract which allows children to implement an emergency stop mechanism.\n */\ncontract Pausable is Ownable {\n  event Pause();\n  event Unpause();\n\n  bool public paused = false;\n\n\n  /**\n   * @dev modifier to allow actions only when the contract IS paused\n   */\n  modifier whenNotPaused() {\n    require(!paused);\n    _;\n  }\n\n  /**\n   * @dev modifier to allow actions only when the contract IS NOT paused\n   */\n  modifier whenPaused {\n    require(paused);\n    _;\n  }\n\n  /**\n   * @dev called by the owner to pause, triggers stopped state\n   */\n  function pause() public onlyOwner whenNotPaused returns (bool) {\n    paused = true;\n    emit Pause();\n    return true;\n  }\n\n  /**\n   * @dev called by the owner to unpause, returns to normal state\n   */\n  function unpause() public virtual onlyOwner whenPaused returns (bool) {\n    paused = false;\n    emit Unpause();\n    return true;\n  }\n}\n\n/**\n * Pausable token\n *\n * Simple ERC20 Token example, with pausable token creation\n **/\n\ncontract PausableToken is StandardToken, Pausable {\n\n  function transfer(address _to, uint _value) public override(BasicToken, ERC20Basic) whenNotPaused returns (bool) {\n    return super.transfer(_to, _value);\n  }\n\n  function transferFrom(address _from, address _to, uint _value) public override(StandardToken) whenNotPaused returns (bool) {\n    return super.transferFrom(_from, _to, _value);\n  }\n}\n\n\ncontract Initializable {\n  bool public initialized = false;\n\n  modifier afterInitialized {\n    require(initialized);\n    _;\n  }\n\n  modifier beforeInitialized {\n    require(!initialized);\n    _;\n  }\n\n  function endInitialization() internal beforeInitialized returns (bool) {\n    initialized = true;\n    return true;\n  }\n}\n\n\n/**\n * @title REP2 Token\n * @dev REP2 Mintable Token with migration from legacy contract\n */\ncontract RepToken is Initializable, PausableToken {\n  using SafeMath for uint256;\n\n  ERC20Basic public legacyRepContract;\n  uint256 public targetSupply;\n\n  string public constant name = \"Reputation\";\n  string public constant symbol = \"REP\";\n  uint256 public constant decimals = 18;\n\n  event Migrated(address indexed holder, uint256 amount);\n\n  /**\n    * @dev Creates a new RepToken instance\n    * @param _legacyRepContract Address of the legacy ERC20Basic REP contract to migrate balances from\n    */\n  constructor(address _legacyRepContract, uint256 _amountUsedToFreeze, address _accountToSendFrozenRepTo) {\n    require(_legacyRepContract != address(0));\n    legacyRepContract = ERC20Basic(_legacyRepContract);\n    targetSupply = legacyRepContract.totalSupply();\n    balances[_accountToSendFrozenRepTo] = _amountUsedToFreeze;\n    totalSupply = _amountUsedToFreeze;\n    pause();\n  }\n\n  /**\n    * @dev Copies the balance of a batch of addresses from the legacy contract\n    * @param _holders Array of addresses to migrate balance\n    * @return True if operation was completed\n    */\n  function migrateBalances(address[] memory _holders) public onlyOwner beforeInitialized returns (bool) {\n    for (uint256 i = 0; i < _holders.length; i++) {\n      migrateBalance(_holders[i]);\n    }\n    return true;\n  }\n\n  /**\n    * @dev Copies the balance of a single addresses from the legacy contract\n    * @param _holder Address to migrate balance\n    * @return True if balance was copied, false if was already copied or address had no balance\n    */\n  function migrateBalance(address _holder) public onlyOwner beforeInitialized returns (bool) {\n    if (balances[_holder] > 0) {\n      return false; // Already copied, move on\n    }\n\n    uint256 amount = legacyRepContract.balanceOf(_holder);\n    if (amount == 0) {\n      return false; // Has no balance in legacy contract, move on\n    }\n\n    balances[_holder] = amount;\n    totalSupply = totalSupply.add(amount);\n    emit Migrated(_holder, amount);\n\n    if (targetSupply == totalSupply) {\n      endInitialization();\n    }\n    return true;\n  }\n\n  /**\n    * @dev Unpauses the contract with the caveat added that it can only happen after initialization.\n    */\n  function unpause() public override onlyOwner whenPaused afterInitialized returns (bool) {\n    super.unpause();\n    return true;\n  }\n}\n",
  "sourcePath": "/home/lanlu/VLDB26_new/OCELOT/declarative-smart-contracts/Reference/repTokenref.sol",
  "compiler": {
    "name": "solc",
    "version": "0.8.12+commit.f00d7308.Emscripten.clang"
  },
  "schemaVersion": "3.4.16",
  "updatedAt": "2026-04-17T22:50:55.493Z",
  "devdoc": {
    "kind": "dev",
    "methods": {
      "allowance(address,address)": {
        "details": "Function to check the amount of tokens that an owner allowed to a spender.",
        "params": {
          "_owner": "address The address which owns the funds.",
          "_spender": "address The address which will spend the funds."
        },
        "returns": {
          "remaining": "A uint256 specifing the amount of tokens still avaible for the spender."
        }
      },
      "approve(address,uint256)": {
        "details": "Aprove the passed address to spend the specified amount of tokens on behalf of msg.sender.",
        "params": {
          "_spender": "The address which will spend the funds.",
          "_value": "The amount of tokens to be spent."
        }
      },
      "balanceOf(address)": {
        "details": "Gets the balance of the specified address.",
        "params": {
          "_owner": "The address to query the the balance of."
        },
        "returns": {
          "balance": "An uint256 representing the amount owned by the passed address."
        }
      },
      "pause()": {
        "details": "called by the owner to pause, triggers stopped state"
      },
      "transferFrom(address,address,uint256)": {
        "details": "Transfer tokens from one address to another",
        "params": {
          "_from": "address The address which you want to send tokens from",
          "_to": "address The address which you want to transfer to",
          "_value": "uint256 the amout of tokens to be transfered"
        }
      },
      "transferOwnership(address)": {
        "details": "Allows the current owner to transfer control of the contract to a newOwner.",
        "params": {
          "newOwner": "The address to transfer ownership to."
        }
      },
      "unpause()": {
        "details": "called by the owner to unpause, returns to normal state"
      }
    },
    "version": 1
  },
  "userdoc": {
    "kind": "user",
    "methods": {},
    "notice": "Pausable token Simple ERC20 Token example, with pausable token creation*",
    "version": 1
  }
}