{
  "contractName": "RepToken",
  "abi": [
    {
      "inputs": [
        {
          "internalType": "address",
          "name": "_legacyRepContract",
          "type": "address"
        },
        {
          "internalType": "uint256",
          "name": "_amountUsedToFreeze",
          "type": "uint256"
        },
        {
          "internalType": "address",
          "name": "_accountToSendFrozenRepTo",
          "type": "address"
        }
      ],
      "stateMutability": "nonpayable",
      "type": "constructor"
    },
    {
      "anonymous": false,
      "inputs": [
        {
          "indexed": true,
          "internalType": "address",
          "name": "owner",
          "type": "address"
        },
        {
          "indexed": true,
          "internalType": "address",
          "name": "spender",
          "type": "address"
        },
        {
          "indexed": false,
          "internalType": "uint256",
          "name": "value",
          "type": "uint256"
        }
      ],
      "name": "Approval",
      "type": "event"
    },
    {
      "anonymous": false,
      "inputs": [
        {
          "indexed": true,
          "internalType": "address",
          "name": "holder",
          "type": "address"
        },
        {
          "indexed": false,
          "internalType": "uint256",
          "name": "amount",
          "type": "uint256"
        }
      ],
      "name": "Migrated",
      "type": "event"
    },
    {
      "anonymous": false,
      "inputs": [],
      "name": "Pause",
      "type": "event"
    },
    {
      "anonymous": false,
      "inputs": [
        {
          "indexed": true,
          "internalType": "address",
          "name": "from",
          "type": "address"
        },
        {
          "indexed": true,
          "internalType": "address",
          "name": "to",
          "type": "address"
        },
        {
          "indexed": false,
          "internalType": "uint256",
          "name": "value",
          "type": "uint256"
        }
      ],
      "name": "Transfer",
      "type": "event"
    },
    {
      "anonymous": false,
      "inputs": [],
      "name": "Unpause",
      "type": "event"
    },
    {
      "inputs": [
        {
          "internalType": "address",
          "name": "_owner",
          "type": "address"
        },
        {
          "internalType": "address",
          "name": "_spender",
          "type": "address"
        }
      ],
      "name": "allowance",
      "outputs": [
        {
          "internalType": "uint256",
          "name": "remaining",
          "type": "uint256"
        }
      ],
      "stateMutability": "view",
      "type": "function"
    },
    {
      "inputs": [
        {
          "internalType": "address",
          "name": "_spender",
          "type": "address"
        },
        {
          "internalType": "uint256",
          "name": "_value",
          "type": "uint256"
        }
      ],
      "name": "approve",
      "outputs": [
        {
          "internalType": "bool",
          "name": "",
          "type": "bool"
        }
      ],
      "stateMutability": "nonpayable",
      "type": "function"
    },
    {
      "inputs": [
        {
          "internalType": "address",
          "name": "_owner",
          "type": "address"
        }
      ],
      "name": "balanceOf",
      "outputs": [
        {
          "internalType": "uint256",
          "name": "balance",
          "type": "uint256"
        }
      ],
      "stateMutability": "view",
      "type": "function"
    },
    {
      "inputs": [],
      "name": "decimals",
      "outputs": [
        {
          "internalType": "uint256",
          "name": "",
          "type": "uint256"
        }
      ],
      "stateMutability": "view",
      "type": "function"
    },
    {
      "inputs": [],
      "name": "initialized",
      "outputs": [
        {
          "internalType": "bool",
          "name": "",
          "type": "bool"
        }
      ],
      "stateMutability": "view",
      "type": "function"
    },
    {
      "inputs": [],
      "name": "legacyRepContract",
      "outputs": [
        {
          "internalType": "contract ERC20Basic",
          "name": "",
          "type": "address"
        }
      ],
      "stateMutability": "view",
      "type": "function"
    },
    {
      "inputs": [],
      "name": "name",
      "outputs": [
        {
          "internalType": "string",
          "name": "",
          "type": "string"
        }
      ],
      "stateMutability": "view",
      "type": "function"
    },
    {
      "inputs": [],
      "name": "owner",
      "outputs": [
        {
          "internalType": "address",
          "name": "",
          "type": "address"
        }
      ],
      "stateMutability": "view",
      "type": "function"
    },
    {
      "inputs": [],
      "name": "pause",
      "outputs": [
        {
          "internalType": "bool",
          "name": "",
          "type": "bool"
        }
      ],
      "stateMutability": "nonpayable",
      "type": "function"
    },
    {
      "inputs": [],
      "name": "paused",
      "outputs": [
        {
          "internalType": "bool",
          "name": "",
          "type": "bool"
        }
      ],
      "stateMutability": "view",
      "type": "function"
    },
    {
      "inputs": [],
      "name": "symbol",
      "outputs": [
        {
          "internalType": "string",
          "name": "",
          "type": "string"
        }
      ],
      "stateMutability": "view",
      "type": "function"
    },
    {
      "inputs": [],
      "name": "targetSupply",
      "outputs": [
        {
          "internalType": "uint256",
          "name": "",
          "type": "uint256"
        }
      ],
      "stateMutability": "view",
      "type": "function"
    },
    {
      "inputs": [],
      "name": "totalSupply",
      "outputs": [
        {
          "internalType": "uint256",
          "name": "",
          "type": "uint256"
        }
      ],
      "stateMutability": "view",
      "type": "function"
    },
    {
      "inputs": [
        {
          "internalType": "address",
          "name": "_to",
          "type": "address"
        },
        {
          "internalType": "uint256",
          "name": "_value",
          "type": "uint256"
        }
      ],
      "name": "transfer",
      "outputs": [
        {
          "internalType": "bool",
          "name": "",
          "type": "bool"
        }
      ],
      "stateMutability": "nonpayable",
      "type": "function"
    },
    {
      "inputs": [
        {
          "internalType": "address",
          "name": "_from",
          "type": "address"
        },
        {
          "internalType": "address",
          "name": "_to",
          "type": "address"
        },
        {
          "internalType": "uint256",
          "name": "_value",
          "type": "uint256"
        }
      ],
      "name": "transferFrom",
      "outputs": [
        {
          "internalType": "bool",
          "name": "",
          "type": "bool"
        }
      ],
      "stateMutability": "nonpayable",
      "type": "function"
    },
    {
      "inputs": [
        {
          "internalType": "address",
          "name": "newOwner",
          "type": "address"
        }
      ],
      "name": "transferOwnership",
      "outputs": [],
      "stateMutability": "nonpayable",
      "type": "function"
    },
    {
      "inputs": [
        {
          "internalType": "address[]",
          "name": "_holders",
          "type": "address[]"
        }
      ],
      "name": "migrateBalances",
      "outputs": [
        {
          "internalType": "bool",
          "name": "",
          "type": "bool"
        }
      ],
      "stateMutability": "nonpayable",
      "type": "function"
    },
    {
      "inputs": [
        {
          "internalType": "address",
          "name": "_holder",
          "type": "address"
        }
      ],
      "name": "migrateBalance",
      "outputs": [
        {
          "internalType": "bool",
          "name": "",
          "type": "bool"
        }
      ],
      "stateMutability": "nonpayable",
      "type": "function"
    },
    {
      "inputs": [],
      "name": "unpause",
      "outputs": [
        {
          "internalType": "bool",
          "name": "",
          "type": "bool"
        }
      ],
      "stateMutability": "nonpayable",
      "type": "function"
    }
  ],
  "bytecode": "0x608060405260008060006101000a81548160ff0219169083151502179055506000600460146101000a81548160ff0219169083151502179055503480156200004657600080fd5b5060405162001d5a38038062001d5a83398181016040528101906200006c919062000393565b33600460006101000a81548173ffffffffffffffffffffffffffffffffffffffff021916908373ffffffffffffffffffffffffffffffffffffffff160217905550600073ffffffffffffffffffffffffffffffffffffffff168373ffffffffffffffffffffffffffffffffffffffff161415620000e857600080fd5b82600560006101000a81548173ffffffffffffffffffffffffffffffffffffffff021916908373ffffffffffffffffffffffffffffffffffffffff160217905550600560009054906101000a900473ffffffffffffffffffffffffffffffffffffffff1673ffffffffffffffffffffffffffffffffffffffff166318160ddd6040518163ffffffff1660e01b8152600401602060405180830381865afa15801562000197573d6000803e3d6000fd5b505050506040513d601f19601f82011682018060405250810190620001bd9190620003ef565b60068190555081600260008373ffffffffffffffffffffffffffffffffffffffff1673ffffffffffffffffffffffffffffffffffffffff16815260200190815260200160002081905550816001819055506200021e6200022860201b60201c565b5050505062000421565b6000600460009054906101000a900473ffffffffffffffffffffffffffffffffffffffff1673ffffffffffffffffffffffffffffffffffffffff163373ffffffffffffffffffffffffffffffffffffffff16146200028557600080fd5b600460149054906101000a900460ff1615620002a057600080fd5b6001600460146101000a81548160ff0219169083151502179055507f6985a02210a168e66602d3235cb6db0e70f92b3ba4d376a33c0f3d9434bff62560405160405180910390a16001905090565b600080fd5b600073ffffffffffffffffffffffffffffffffffffffff82169050919050565b60006200032082620002f3565b9050919050565b620003328162000313565b81146200033e57600080fd5b50565b600081519050620003528162000327565b92915050565b6000819050919050565b6200036d8162000358565b81146200037957600080fd5b50565b6000815190506200038d8162000362565b92915050565b600080600060608486031215620003af57620003ae620002ee565b5b6000620003bf8682870162000341565b9350506020620003d2868287016200037c565b9250506040620003e58682870162000341565b9150509250925092565b600060208284031215620004085762000407620002ee565b5b600062000418848285016200037c565b91505092915050565b61192980620004316000396000f3fe608060405234801561001057600080fd5b50600436106101215760003560e01c80634b92738e116100ad57806395d89b411161007157806395d89b4114610324578063a9059cbb14610342578063b85e0aca14610372578063dd62ed3e14610390578063f2fde38b146103c057610121565b80634b92738e1461026a5780635c975abb1461029a57806370a08231146102b85780638456cb59146102e85780638da5cb5b1461030657610121565b806323b872dd116100f457806323b872dd146101b05780632988e36b146101e05780632a1eafd914610210578063313ce5671461022e5780633f4ba83a1461024c57610121565b806306fdde0314610126578063095ea7b314610144578063158ef93e1461017457806318160ddd14610192575b600080fd5b61012e6103dc565b60405161013b91906112f2565b60405180910390f35b61015e600480360381019061015991906113bc565b610415565b60405161016b9190611417565b60405180910390f35b61017c61059a565b6040516101899190611417565b60405180910390f35b61019a6105ab565b6040516101a79190611441565b60405180910390f35b6101ca60048036038101906101c5919061145c565b6105b1565b6040516101d79190611417565b60405180910390f35b6101fa60048036038101906101f591906114af565b6105e1565b6040516102079190611417565b60405180910390f35b610218610827565b6040516102259190611441565b60405180910390f35b61023661082d565b6040516102439190611441565b60405180910390f35b610254610832565b6040516102619190611417565b60405180910390f35b610284600480360381019061027f9190611624565b6108ce565b6040516102919190611417565b60405180910390f35b6102a261098f565b6040516102af9190611417565b60405180910390f35b6102d260048036038101906102cd91906114af565b6109a2565b6040516102df9190611441565b60405180910390f35b6102f06109eb565b6040516102fd9190611417565b60405180910390f35b61030e610aaf565b60405161031b919061167c565b60405180910390f35b61032c610ad5565b60405161033991906112f2565b60405180910390f35b61035c600480360381019061035791906113bc565b610b0e565b6040516103699190611417565b60405180910390f35b61037a610b3c565b60405161038791906116f6565b60405180910390f35b6103aa60048036038101906103a59190611711565b610b62565b6040516103b79190611441565b60405180910390f35b6103da60048036038101906103d591906114af565b610be9565b005b6040518060400160405280600a81526020017f52657075746174696f6e0000000000000000000000000000000000000000000081525081565b6000808214806104a157506000600360003373ffffffffffffffffffffffffffffffffffffffff1673ffffffffffffffffffffffffffffffffffffffff16815260200190815260200160002060008573ffffffffffffffffffffffffffffffffffffffff1673ffffffffffffffffffffffffffffffffffffffff16815260200190815260200160002054145b6104aa57600080fd5b81600360003373ffffffffffffffffffffffffffffffffffffffff1673ffffffffffffffffffffffffffffffffffffffff16815260200190815260200160002060008573ffffffffffffffffffffffffffffffffffffffff1673ffffffffffffffffffffffffffffffffffffffff168152602001908152602001600020819055508273ffffffffffffffffffffffffffffffffffffffff163373ffffffffffffffffffffffffffffffffffffffff167f8c5be1e5ebec7d5bd14f71427d1e84f3dd0314c0f7b2291e5b200ac8c7c3b925846040516105889190611441565b60405180910390a36001905092915050565b60008054906101000a900460ff1681565b60015481565b6000600460149054906101000a900460ff16156105cd57600080fd5b6105d8848484610cbc565b90509392505050565b6000600460009054906101000a900473ffffffffffffffffffffffffffffffffffffffff1673ffffffffffffffffffffffffffffffffffffffff163373ffffffffffffffffffffffffffffffffffffffff161461063d57600080fd5b60008054906101000a900460ff161561065557600080fd5b6000600260008473ffffffffffffffffffffffffffffffffffffffff1673ffffffffffffffffffffffffffffffffffffffff1681526020019081526020016000205411156106a65760009050610822565b6000600560009054906101000a900473ffffffffffffffffffffffffffffffffffffffff1673ffffffffffffffffffffffffffffffffffffffff166370a08231846040518263ffffffff1660e01b8152600401610703919061167c565b602060405180830381865afa158015610720573d6000803e3d6000fd5b505050506040513d601f19601f820116820180604052508101906107449190611766565b90506000811415610759576000915050610822565b80600260008573ffffffffffffffffffffffffffffffffffffffff1673ffffffffffffffffffffffffffffffffffffffff168152602001908152602001600020819055506107b281600154610f6c90919063ffffffff16565b6001819055508273ffffffffffffffffffffffffffffffffffffffff167f8b80bd19aea7b735bc6d75db8d6adbe18b28c30d62b3555245eb67b2340caedc826040516107fe9190611441565b60405180910390a2600154600654141561081c5761081a610f98565b505b60019150505b919050565b60065481565b601281565b6000600460009054906101000a900473ffffffffffffffffffffffffffffffffffffffff1673ffffffffffffffffffffffffffffffffffffffff163373ffffffffffffffffffffffffffffffffffffffff161461088e57600080fd5b600460149054906101000a900460ff166108a757600080fd5b60008054906101000a900460ff166108be57600080fd5b6108c6610fd4565b506001905090565b6000600460009054906101000a900473ffffffffffffffffffffffffffffffffffffffff1673ffffffffffffffffffffffffffffffffffffffff163373ffffffffffffffffffffffffffffffffffffffff161461092a57600080fd5b60008054906101000a900460ff161561094257600080fd5b60005b82518110156109855761097183828151811061096457610963611793565b5b60200260200101516105e1565b50808061097d906117f1565b915050610945565b5060019050919050565b600460149054906101000a900460ff1681565b6000600260008373ffffffffffffffffffffffffffffffffffffffff1673ffffffffffffffffffffffffffffffffffffffff168152602001908152602001600020549050919050565b6000600460009054906101000a900473ffffffffffffffffffffffffffffffffffffffff1673ffffffffffffffffffffffffffffffffffffffff163373ffffffffffffffffffffffffffffffffffffffff1614610a4757600080fd5b600460149054906101000a900460ff1615610a6157600080fd5b6001600460146101000a81548160ff0219169083151502179055507f6985a02210a168e66602d3235cb6db0e70f92b3ba4d376a33c0f3d9434bff62560405160405180910390a16001905090565b600460009054906101000a900473ffffffffffffffffffffffffffffffffffffffff1681565b6040518060400160405280600381526020017f524550000000000000000000000000000000000000000000000000000000000081525081565b6000600460149054906101000a900460ff1615610b2a57600080fd5b610b348383611097565b905092915050565b600560009054906101000a900473ffffffffffffffffffffffffffffffffffffffff1681565b6000600360008473ffffffffffffffffffffffffffffffffffffffff1673ffffffffffffffffffffffffffffffffffffffff16815260200190815260200160002060008373ffffffffffffffffffffffffffffffffffffffff1673ffffffffffffffffffffffffffffffffffffffff16815260200190815260200160002054905092915050565b600460009054906101000a900473ffffffffffffffffffffffffffffffffffffffff1673ffffffffffffffffffffffffffffffffffffffff163373ffffffffffffffffffffffffffffffffffffffff1614610c4357600080fd5b600073ffffffffffffffffffffffffffffffffffffffff168173ffffffffffffffffffffffffffffffffffffffff1614610cb95780600460006101000a81548173ffffffffffffffffffffffffffffffffffffffff021916908373ffffffffffffffffffffffffffffffffffffffff1602179055505b50565b600080600360008673ffffffffffffffffffffffffffffffffffffffff1673ffffffffffffffffffffffffffffffffffffffff16815260200190815260200160002060003373ffffffffffffffffffffffffffffffffffffffff1673ffffffffffffffffffffffffffffffffffffffff168152602001908152602001600020549050610d9083600260008773ffffffffffffffffffffffffffffffffffffffff1673ffffffffffffffffffffffffffffffffffffffff16815260200190815260200160002054610f6c90919063ffffffff16565b600260008673ffffffffffffffffffffffffffffffffffffffff1673ffffffffffffffffffffffffffffffffffffffff16815260200190815260200160002081905550610e2583600260008873ffffffffffffffffffffffffffffffffffffffff1673ffffffffffffffffffffffffffffffffffffffff1681526020019081526020016000205461123290919063ffffffff16565b600260008773ffffffffffffffffffffffffffffffffffffffff1673ffffffffffffffffffffffffffffffffffffffff16815260200190815260200160002081905550610e7b838261123290919063ffffffff16565b600360008773ffffffffffffffffffffffffffffffffffffffff1673ffffffffffffffffffffffffffffffffffffffff16815260200190815260200160002060003373ffffffffffffffffffffffffffffffffffffffff1673ffffffffffffffffffffffffffffffffffffffff168152602001908152602001600020819055508373ffffffffffffffffffffffffffffffffffffffff168573ffffffffffffffffffffffffffffffffffffffff167fddf252ad1be2c89b69c2b068fc378daa952ba7f163c4a11628f55a4df523b3ef85604051610f589190611441565b60405180910390a360019150509392505050565b6000808284610f7b919061183a565b905083811015610f8e57610f8d611890565b5b8091505092915050565b60008060009054906101000a900460ff1615610fb357600080fd5b60016000806101000a81548160ff0219169083151502179055506001905090565b6000600460009054906101000a900473ffffffffffffffffffffffffffffffffffffffff1673ffffffffffffffffffffffffffffffffffffffff163373ffffffffffffffffffffffffffffffffffffffff161461103057600080fd5b600460149054906101000a900460ff1661104957600080fd5b6000600460146101000a81548160ff0219169083151502179055507f7805862f689e2f13df9f062ff482ad3ad112aca9e0847911ed832e158c525b3360405160405180910390a16001905090565b60006110eb82600260003373ffffffffffffffffffffffffffffffffffffffff1673ffffffffffffffffffffffffffffffffffffffff1681526020019081526020016000205461123290919063ffffffff16565b600260003373ffffffffffffffffffffffffffffffffffffffff1673ffffffffffffffffffffffffffffffffffffffff1681526020019081526020016000208190555061118082600260008673ffffffffffffffffffffffffffffffffffffffff1673ffffffffffffffffffffffffffffffffffffffff16815260200190815260200160002054610f6c90919063ffffffff16565b600260008573ffffffffffffffffffffffffffffffffffffffff1673ffffffffffffffffffffffffffffffffffffffff168152602001908152602001600020819055508273ffffffffffffffffffffffffffffffffffffffff163373ffffffffffffffffffffffffffffffffffffffff167fddf252ad1be2c89b69c2b068fc378daa952ba7f163c4a11628f55a4df523b3ef846040516112209190611441565b60405180910390a36001905092915050565b60008282111561124557611244611890565b5b818361125191906118bf565b905092915050565b600081519050919050565b600082825260208201905092915050565b60005b83811015611293578082015181840152602081019050611278565b838111156112a2576000848401525b50505050565b6000601f19601f8301169050919050565b60006112c482611259565b6112ce8185611264565b93506112de818560208601611275565b6112e7816112a8565b840191505092915050565b6000602082019050818103600083015261130c81846112b9565b905092915050565b6000604051905090565b600080fd5b600080fd5b600073ffffffffffffffffffffffffffffffffffffffff82169050919050565b600061135382611328565b9050919050565b61136381611348565b811461136e57600080fd5b50565b6000813590506113808161135a565b92915050565b6000819050919050565b61139981611386565b81146113a457600080fd5b50565b6000813590506113b681611390565b92915050565b600080604083850312156113d3576113d261131e565b5b60006113e185828601611371565b92505060206113f2858286016113a7565b9150509250929050565b60008115159050919050565b611411816113fc565b82525050565b600060208201905061142c6000830184611408565b92915050565b61143b81611386565b82525050565b60006020820190506114566000830184611432565b92915050565b6000806000606084860312156114755761147461131e565b5b600061148386828701611371565b935050602061149486828701611371565b92505060406114a5868287016113a7565b9150509250925092565b6000602082840312156114c5576114c461131e565b5b60006114d384828501611371565b91505092915050565b600080fd5b7f4e487b7100000000000000000000000000000000000000000000000000000000600052604160045260246000fd5b611519826112a8565b810181811067ffffffffffffffff82111715611538576115376114e1565b5b80604052505050565b600061154b611314565b90506115578282611510565b919050565b600067ffffffffffffffff821115611577576115766114e1565b5b602082029050602081019050919050565b600080fd5b60006115a061159b8461155c565b611541565b905080838252602082019050602084028301858111156115c3576115c2611588565b5b835b818110156115ec57806115d88882611371565b8452602084019350506020810190506115c5565b5050509392505050565b600082601f83011261160b5761160a6114dc565b5b813561161b84826020860161158d565b91505092915050565b60006020828403121561163a5761163961131e565b5b600082013567ffffffffffffffff81111561165857611657611323565b5b611664848285016115f6565b91505092915050565b61167681611348565b82525050565b6000602082019050611691600083018461166d565b92915050565b6000819050919050565b60006116bc6116b76116b284611328565b611697565b611328565b9050919050565b60006116ce826116a1565b9050919050565b60006116e0826116c3565b9050919050565b6116f0816116d5565b82525050565b600060208201905061170b60008301846116e7565b92915050565b600080604083850312156117285761172761131e565b5b600061173685828601611371565b925050602061174785828601611371565b9150509250929050565b60008151905061176081611390565b92915050565b60006020828403121561177c5761177b61131e565b5b600061178a84828501611751565b91505092915050565b7f4e487b7100000000000000000000000000000000000000000000000000000000600052603260045260246000fd5b7f4e487b7100000000000000000000000000000000000000000000000000000000600052601160045260246000fd5b60006117fc82611386565b91507fffffffffffffffffffffffffffffffffffffffffffffffffffffffffffffffff82141561182f5761182e6117c2565b5b600182019050919050565b600061184582611386565b915061185083611386565b9250827fffffffffffffffffffffffffffffffffffffffffffffffffffffffffffffffff03821115611885576118846117c2565b5b828201905092915050565b7f4e487b7100000000000000000000000000000000000000000000000000000000600052600160045260246000fd5b60006118ca82611386565b91506118d583611386565b9250828210156118e8576118e76117c2565b5b82820390509291505056fea2646970667358221220a54c6dbe84994e582a091fd8dcb2973623b52c11198b9f36c3901dc2f46e497c64736f6c634300080c0033",
  "immutableReferences": {},
  "source": "// Upgraded from pragma solidity ^0.4.11 to ^0.8.12\npragma solidity ^0.8.12;\n\n/**\n * @title SafeMath\n * @dev Math operations with safety checks that throw on error\n */\nlibrary SafeMath {\n  function mul(uint256 a, uint256 b) internal pure returns (uint256) {\n    uint256 c = a * b;\n    assert(a == 0 || c / a == b);\n    return c;\n  }\n\n  function div(uint256 a, uint256 b) internal pure returns (uint256) {\n    // assert(b > 0); // Solidity automatically throws when dividing by 0\n    uint256 c = a / b;\n    // assert(a == b * c + a % b); // There is no case in which this doesn't hold\n    return c;\n  }\n\n  function sub(uint256 a, uint256 b) internal pure returns (uint256) {\n    assert(b <= a);\n    return a - b;\n  }\n\n  function add(uint256 a, uint256 b) internal pure returns (uint256) {\n    uint256 c = a + b;\n    assert(c >= a);\n    return c;\n  }\n}\n\n\n/**\n * @title ERC20Basic\n * @dev Simpler version of ERC20 interface\n * @dev see https://github.com/ethereum/EIPs/issues/179\n */\nabstract contract ERC20Basic {\n  uint256 public totalSupply;\n  function balanceOf(address who) public view virtual returns (uint256);\n  function transfer(address to, uint256 value) public virtual returns (bool);\n  event Transfer(address indexed from, address indexed to, uint256 value);\n}\n\n\n/**\n * @title ERC20 interface\n * @dev see https://github.com/ethereum/EIPs/issues/20\n */\nabstract contract ERC20 is ERC20Basic {\n  function allowance(address owner, address spender) public view virtual returns (uint256);\n  function transferFrom(address from, address to, uint256 value) public virtual returns (bool);\n  function approve(address spender, uint256 value) public virtual returns (bool);\n  event Approval(address indexed owner, address indexed spender, uint256 value);\n}\n\n\n/**\n * @title Basic token\n * @dev Basic version of StandardToken, with no allowances.\n */\ncontract BasicToken is ERC20Basic {\n  using SafeMath for uint256;\n\n  mapping(address => uint256) balances;\n\n  /**\n  * @dev transfer token for a specified address\n  * @param _to The address to transfer to.\n  * @param _value The amount to be transferred.\n  */\n  function transfer(address _to, uint256 _value) public virtual override returns (bool) {\n    balances[msg.sender] = balances[msg.sender].sub(_value);\n    balances[_to] = balances[_to].add(_value);\n    emit Transfer(msg.sender, _to, _value);\n    return true;\n  }\n\n  /**\n  * @dev Gets the balance of the specified address.\n  * @param _owner The address to query the the balance of.\n  * @return balance An uint256 representing the amount owned by the passed address.\n  */\n  function balanceOf(address _owner) public view override returns (uint256 balance) {\n    return balances[_owner];\n  }\n\n}\n\n\n/**\n * @title Standard ERC20 token\n *\n * @dev Implementation of the basic standard token.\n * @dev https://github.com/ethereum/EIPs/issues/20\n * @dev Based on code by FirstBlood: https://github.com/Firstbloodio/token/blob/master/smart_contract/FirstBloodToken.sol\n */\ncontract StandardToken is ERC20, BasicToken {\n  using SafeMath for uint256;\n\n  mapping (address => mapping (address => uint256)) allowed;\n\n\n  /**\n   * @dev Transfer tokens from one address to another\n   * @param _from address The address which you want to send tokens from\n   * @param _to address The address which you want to transfer to\n   * @param _value uint256 the amout of tokens to be transfered\n   */\n  function transferFrom(address _from, address _to, uint256 _value) public virtual override returns (bool) {\n    uint256 _allowance = allowed[_from][msg.sender];\n\n    // Check is not needed because sub(_allowance, _value) will already throw if this condition is not met\n    // require (_value <= _allowance);\n\n    balances[_to] = balances[_to].add(_value);\n    balances[_from] = balances[_from].sub(_value);\n    allowed[_from][msg.sender] = _allowance.sub(_value);\n    emit Transfer(_from, _to, _value);\n    return true;\n  }\n\n  /**\n   * @dev Aprove the passed address to spend the specified amount of tokens on behalf of msg.sender.\n   * @param _spender The address which will spend the funds.\n   * @param _value The amount of tokens to be spent.\n   */\n  function approve(address _spender, uint256 _value) public override returns (bool) {\n\n    // To change the approve amount you first have to reduce the addresses`\n    //  allowance to zero by calling `approve(_spender, 0)` if it is not\n    //  already 0 to mitigate the race condition described here:\n    //  https://github.com/ethereum/EIPs/issues/20#issuecomment-263524729\n    require((_value == 0) || (allowed[msg.sender][_spender] == 0));\n\n    allowed[msg.sender][_spender] = _value;\n    emit Approval(msg.sender, _spender, _value);\n    return true;\n  }\n\n  /**\n   * @dev Function to check the amount of tokens that an owner allowed to a spender.\n   * @param _owner address The address which owns the funds.\n   * @param _spender address The address which will spend the funds.\n   * @return remaining A uint256 specifing the amount of tokens still avaible for the spender.\n   */\n  function allowance(address _owner, address _spender) public view override returns (uint256 remaining) {\n    return allowed[_owner][_spender];\n  }\n\n}\n\n\n/**\n * @title Ownable\n * @dev The Ownable contract has an owner address, and provides basic authorization control\n * functions, this simplifies the implementation of \"user permissions\".\n */\ncontract Ownable {\n  address public owner;\n\n\n  /**\n   * @dev The Ownable constructor sets the original `owner` of the contract to the sender\n   * account.\n   */\n  constructor() {\n    owner = msg.sender;\n  }\n\n\n  /**\n   * @dev Throws if called by any account other than the owner.\n   */\n  modifier onlyOwner() {\n    require(msg.sender == owner);\n    _;\n  }\n\n\n  /**\n   * @dev Allows the current owner to transfer control of the contract to a newOwner.\n   * @param newOwner The address to transfer ownership to.\n   */\n  function transferOwnership(address newOwner) public onlyOwner {\n    if (newOwner != address(0)) {\n      owner = newOwner;\n    }\n  }\n\n}\n\n\n/**\n * @title Pausable\n * @dev Base contract which allows children to implement an emergency stop mechanism.\n */\ncontract Pausable is Ownable {\n  event Pause();\n  event Unpause();\n\n  bool public paused = false;\n\n\n  /**\n   * @dev modifier to allow actions only when the contract IS paused\n   */\n  modifier whenNotPaused() {\n    require(!paused);\n    _;\n  }\n\n  /**\n   * @dev modifier to allow actions only when the contract IS NOT paused\n   */\n  modifier whenPaused {\n    require(paused);\n    _;\n  }\n\n  /**\n   * @dev called by the owner to pause, triggers stopped state\n   */\n  function pause() public onlyOwner whenNotPaused returns (bool) {\n    paused = true;\n    emit Pause();\n    return true;\n  }\n\n  /**\n   * @dev called by the owner to unpause, returns to normal state\n   */\n  function unpause() public virtual onlyOwner whenPaused returns (bool) {\n    paused = false;\n    emit Unpause();\n    return true;\n  }\n}\n\n/**\n * Pausable token\n *\n * Simple ERC20 Token example, with pausable token creation\n **/\n\ncontract PausableToken is StandardToken, Pausable {\n\n  function transfer(address _to, uint _value) public override(BasicToken, ERC20Basic) whenNotPaused returns (bool) {\n    return super.transfer(_to, _value);\n  }\n\n  function transferFrom(address _from, address _to, uint _value) public override(StandardToken) whenNotPaused returns (bool) {\n    return super.transferFrom(_from, _to, _value);\n  }\n}\n\n\ncontract Initializable {\n  bool public initialized = false;\n\n  modifier afterInitialized {\n    require(initialized);\n    _;\n  }\n\n  modifier beforeInitialized {\n    require(!initialized);\n    _;\n  }\n\n  function endInitialization() internal beforeInitialized returns (bool) {\n    initialized = true;\n    return true;\n  }\n}\n\n\n/**\n * @title REP2 Token\n * @dev REP2 Mintable Token with migration from legacy contract\n */\ncontract RepToken is Initializable, PausableToken {\n  using SafeMath for uint256;\n\n  ERC20Basic public legacyRepContract;\n  uint256 public targetSupply;\n\n  string public constant name = \"Reputation\";\n  string public constant symbol = \"REP\";\n  uint256 public constant decimals = 18;\n\n  event Migrated(address indexed holder, uint256 amount);\n\n  /**\n    * @dev Creates a new RepToken instance\n    * @param _legacyRepContract Address of the legacy ERC20Basic REP contract to migrate balances from\n    */\n  constructor(address _legacyRepContract, uint256 _amountUsedToFreeze, address _accountToSendFrozenRepTo) {\n    require(_legacyRepContract != address(0));\n    legacyRepContract = ERC20Basic(_legacyRepContract);\n    targetSupply = legacyRepContract.totalSupply();\n    balances[_accountToSendFrozenRepTo] = _amountUsedToFreeze;\n    totalSupply = _amountUsedToFreeze;\n    pause();\n  }\n\n  /**\n    * @dev Copies the balance of a batch of addresses from the legacy contract\n    * @param _holders Array of addresses to migrate balance\n    * @return True if operation was completed\n    */\n  function migrateBalances(address[] memory _holders) public onlyOwner beforeInitialized returns (bool) {\n    for (uint256 i = 0; i < _holders.length; i++) {\n      migrateBalance(_holders[i]);\n    }\n    return true;\n  }\n\n  /**\n    * @dev Copies the balance of a single addresses from the legacy contract\n    * @param _holder Address to migrate balance\n    * @return True if balance was copied, false if was already copied or address had no balance\n    */\n  function migrateBalance(address _holder) public onlyOwner beforeInitialized returns (bool) {\n    if (balances[_holder] > 0) {\n      return false; // Already copied, move on\n    }\n\n    uint256 amount = legacyRepContract.balanceOf(_holder);\n    if (amount == 0) {\n      return false; // Has no balance in legacy contract, move on\n    }\n\n    balances[_holder] = amount;\n    totalSupply = totalSupply.add(amount);\n    emit Migrated(_holder, amount);\n\n    if (targetSupply == totalSupply) {\n      endInitialization();\n    }\n    return true;\n  }\n\n  /**\n    * @dev Unpauses the contract with the caveat added that it can only happen after initialization.\n    */\n  function unpause() public override onlyOwner whenPaused afterInitialized returns (bool) {\n    super.unpause();\n    return true;\n  }\n}\n",
  "sourcePath": "/home/lanlu/VLDB26_new/OCELOT/declarative-smart-contracts/Reference/repTokenref.sol",
  "compiler": {
    "name": "solc",
    "version": "0.8.12+commit.f00d7308.Emscripten.clang"
  },
  "schemaVersion": "3.4.16",
  "updatedAt": "2026-04-17T22:50:55.496Z",
  "devdoc": {
    "details": "REP2 Mintable Token with migration from legacy contract",
    "kind": "dev",
    "methods": {
      "allowance(address,address)": {
        "details": "Function to check the amount of tokens that an owner allowed to a spender.",
        "params": {
          "_owner": "address The address which owns the funds.",
          "_spender": "address The address which will spend the funds."
        },
        "returns": {
          "remaining": "A uint256 specifing the amount of tokens still avaible for the spender."
        }
      },
      "approve(address,uint256)": {
        "details": "Aprove the passed address to spend the specified amount of tokens on behalf of msg.sender.",
        "params": {
          "_spender": "The address which will spend the funds.",
          "_value": "The amount of tokens to be spent."
        }
      },
      "balanceOf(address)": {
        "details": "Gets the balance of the specified address.",
        "params": {
          "_owner": "The address to query the the balance of."
        },
        "returns": {
          "balance": "An uint256 representing the amount owned by the passed address."
        }
      },
      "constructor": {
        "details": "Creates a new RepToken instance",
        "params": {
          "_legacyRepContract": "Address of the legacy ERC20Basic REP contract to migrate balances from"
        }
      },
      "migrateBalance(address)": {
        "details": "Copies the balance of a single addresses from the legacy contract",
        "params": {
          "_holder": "Address to migrate balance"
        },
        "returns": {
          "_0": "True if balance was copied, false if was already copied or address had no balance"
        }
      },
      "migrateBalances(address[])": {
        "details": "Copies the balance of a batch of addresses from the legacy contract",
        "params": {
          "_holders": "Array of addresses to migrate balance"
        },
        "returns": {
          "_0": "True if operation was completed"
        }
      },
      "pause()": {
        "details": "called by the owner to pause, triggers stopped state"
      },
      "transferFrom(address,address,uint256)": {
        "details": "Transfer tokens from one address to another",
        "params": {
          "_from": "address The address which you want to send tokens from",
          "_to": "address The address which you want to transfer to",
          "_value": "uint256 the amout of tokens to be transfered"
        }
      },
      "transferOwnership(address)": {
        "details": "Allows the current owner to transfer control of the contract to a newOwner.",
        "params": {
          "newOwner": "The address to transfer ownership to."
        }
      },
      "unpause()": {
        "details": "Unpauses the contract with the caveat added that it can only happen after initialization."
      }
    },
    "title": "REP2 Token",
    "version": 1
  },
  "userdoc": {
    "kind": "user",
    "methods": {},
    "version": 1
  }
}