{
  "contractName": "SGTExchanger",
  "abi": [
    {
      "inputs": [
        {
          "internalType": "address",
          "name": "_sgt",
          "type": "address"
        },
        {
          "internalType": "address",
          "name": "_snt",
          "type": "address"
        },
        {
          "internalType": "address",
          "name": "_statusContribution",
          "type": "address"
        }
      ],
      "stateMutability": "nonpayable",
      "type": "constructor"
    },
    {
      "anonymous": false,
      "inputs": [
        {
          "indexed": true,
          "internalType": "address",
          "name": "_token",
          "type": "address"
        },
        {
          "indexed": true,
          "internalType": "address",
          "name": "_controller",
          "type": "address"
        },
        {
          "indexed": false,
          "internalType": "uint256",
          "name": "_amount",
          "type": "uint256"
        }
      ],
      "name": "ClaimedTokens",
      "type": "event"
    },
    {
      "anonymous": false,
      "inputs": [
        {
          "indexed": true,
          "internalType": "address",
          "name": "_holder",
          "type": "address"
        },
        {
          "indexed": false,
          "internalType": "uint256",
          "name": "_amount",
          "type": "uint256"
        }
      ],
      "name": "TokensCollected",
      "type": "event"
    },
    {
      "inputs": [],
      "name": "acceptOwnership",
      "outputs": [],
      "stateMutability": "nonpayable",
      "type": "function"
    },
    {
      "inputs": [
        {
          "internalType": "address",
          "name": "_newOwner",
          "type": "address"
        }
      ],
      "name": "changeOwner",
      "outputs": [],
      "stateMutability": "nonpayable",
      "type": "function"
    },
    {
      "inputs": [
        {
          "internalType": "address",
          "name": "",
          "type": "address"
        }
      ],
      "name": "collected",
      "outputs": [
        {
          "internalType": "uint256",
          "name": "",
          "type": "uint256"
        }
      ],
      "stateMutability": "view",
      "type": "function"
    },
    {
      "inputs": [],
      "name": "newOwner",
      "outputs": [
        {
          "internalType": "address",
          "name": "",
          "type": "address"
        }
      ],
      "stateMutability": "view",
      "type": "function"
    },
    {
      "inputs": [],
      "name": "owner",
      "outputs": [
        {
          "internalType": "address",
          "name": "",
          "type": "address"
        }
      ],
      "stateMutability": "view",
      "type": "function"
    },
    {
      "inputs": [],
      "name": "sgt",
      "outputs": [
        {
          "internalType": "contract MiniMeToken",
          "name": "",
          "type": "address"
        }
      ],
      "stateMutability": "view",
      "type": "function"
    },
    {
      "inputs": [],
      "name": "snt",
      "outputs": [
        {
          "internalType": "contract MiniMeToken",
          "name": "",
          "type": "address"
        }
      ],
      "stateMutability": "view",
      "type": "function"
    },
    {
      "inputs": [],
      "name": "statusContribution",
      "outputs": [
        {
          "internalType": "contract StatusContribution",
          "name": "",
          "type": "address"
        }
      ],
      "stateMutability": "view",
      "type": "function"
    },
    {
      "inputs": [],
      "name": "totalCollected",
      "outputs": [
        {
          "internalType": "uint256",
          "name": "",
          "type": "uint256"
        }
      ],
      "stateMutability": "view",
      "type": "function"
    },
    {
      "inputs": [],
      "name": "collect",
      "outputs": [],
      "stateMutability": "nonpayable",
      "type": "function"
    },
    {
      "inputs": [
        {
          "internalType": "address",
          "name": "",
          "type": "address"
        }
      ],
      "name": "proxyPayment",
      "outputs": [
        {
          "internalType": "bool",
          "name": "",
          "type": "bool"
        }
      ],
      "stateMutability": "payable",
      "type": "function"
    },
    {
      "inputs": [
        {
          "internalType": "address",
          "name": "",
          "type": "address"
        },
        {
          "internalType": "address",
          "name": "",
          "type": "address"
        },
        {
          "internalType": "uint256",
          "name": "",
          "type": "uint256"
        }
      ],
      "name": "onTransfer",
      "outputs": [
        {
          "internalType": "bool",
          "name": "",
          "type": "bool"
        }
      ],
      "stateMutability": "nonpayable",
      "type": "function"
    },
    {
      "inputs": [
        {
          "internalType": "address",
          "name": "",
          "type": "address"
        },
        {
          "internalType": "address",
          "name": "",
          "type": "address"
        },
        {
          "internalType": "uint256",
          "name": "",
          "type": "uint256"
        }
      ],
      "name": "onApprove",
      "outputs": [
        {
          "internalType": "bool",
          "name": "",
          "type": "bool"
        }
      ],
      "stateMutability": "nonpayable",
      "type": "function"
    },
    {
      "inputs": [
        {
          "internalType": "address",
          "name": "_token",
          "type": "address"
        }
      ],
      "name": "claimTokens",
      "outputs": [],
      "stateMutability": "nonpayable",
      "type": "function"
    }
  ],
  "bytecode": "0x60806040523480156200001157600080fd5b506040516200153d3803806200153d8339818101604052810190620000379190620001ad565b336000806101000a81548173ffffffffffffffffffffffffffffffffffffffff021916908373ffffffffffffffffffffffffffffffffffffffff16021790555082600460006101000a81548173ffffffffffffffffffffffffffffffffffffffff021916908373ffffffffffffffffffffffffffffffffffffffff16021790555081600560006101000a81548173ffffffffffffffffffffffffffffffffffffffff021916908373ffffffffffffffffffffffffffffffffffffffff16021790555080600660006101000a81548173ffffffffffffffffffffffffffffffffffffffff021916908373ffffffffffffffffffffffffffffffffffffffff16021790555050505062000209565b600080fd5b600073ffffffffffffffffffffffffffffffffffffffff82169050919050565b6000620001758262000148565b9050919050565b620001878162000168565b81146200019357600080fd5b50565b600081519050620001a7816200017c565b92915050565b600080600060608486031215620001c957620001c862000143565b5b6000620001d98682870162000196565b9350506020620001ec8682870162000196565b9250506040620001ff8682870162000196565b9150509250925092565b61132480620002196000396000f3fe6080604052600436106100dd5760003560e01c8063a6f9dae11161007f578063df8de3e711610059578063df8de3e7146102b0578063e29eb836146102d9578063e522538114610304578063f48c30541461031b576100dd565b8063a6f9dae11461021f578063d4ee1d9014610248578063da682aeb14610273576100dd565b80634a393149116100bb5780634a3931491461017557806352d50408146101b257806379ba5097146101dd5780638da5cb5b146101f4576100dd565b8063060eb520146100e2578063357a0ba21461010d57806338e4384014610138575b600080fd5b3480156100ee57600080fd5b506100f761034b565b6040516101049190610eae565b60405180910390f35b34801561011957600080fd5b50610122610371565b60405161012f9190610eae565b60405180910390f35b34801561014457600080fd5b5061015f600480360381019061015a9190610f0c565b610397565b60405161016c9190610f52565b60405180910390f35b34801561018157600080fd5b5061019c60048036038101906101979190610f99565b6103af565b6040516101a99190611007565b60405180910390f35b3480156101be57600080fd5b506101c76103b8565b6040516101d49190611043565b60405180910390f35b3480156101e957600080fd5b506101f26103de565b005b34801561020057600080fd5b50610209610499565b604051610216919061106d565b60405180910390f35b34801561022b57600080fd5b5061024660048036038101906102419190610f0c565b6104bd565b005b34801561025457600080fd5b5061025d610559565b60405161026a919061106d565b60405180910390f35b34801561027f57600080fd5b5061029a60048036038101906102959190610f99565b61057f565b6040516102a79190611007565b60405180910390f35b3480156102bc57600080fd5b506102d760048036038101906102d29190610f0c565b610588565b005b3480156102e557600080fd5b506102ee610889565b6040516102fb9190610f52565b60405180910390f35b34801561031057600080fd5b5061031961088f565b005b61033560048036038101906103309190610f0c565b610d71565b6040516103429190611007565b60405180910390f35b600560009054906101000a900473ffffffffffffffffffffffffffffffffffffffff1681565b600460009054906101000a900473ffffffffffffffffffffffffffffffffffffffff1681565b60026020528060005260406000206000915090505481565b60009392505050565b600660009054906101000a900473ffffffffffffffffffffffffffffffffffffffff1681565b600160009054906101000a900473ffffffffffffffffffffffffffffffffffffffff1673ffffffffffffffffffffffffffffffffffffffff163373ffffffffffffffffffffffffffffffffffffffff16141561049757600160009054906101000a900473ffffffffffffffffffffffffffffffffffffffff166000806101000a81548173ffffffffffffffffffffffffffffffffffffffff021916908373ffffffffffffffffffffffffffffffffffffffff1602179055505b565b60008054906101000a900473ffffffffffffffffffffffffffffffffffffffff1681565b60008054906101000a900473ffffffffffffffffffffffffffffffffffffffff1673ffffffffffffffffffffffffffffffffffffffff163373ffffffffffffffffffffffffffffffffffffffff161461051557600080fd5b80600160006101000a81548173ffffffffffffffffffffffffffffffffffffffff021916908373ffffffffffffffffffffffffffffffffffffffff16021790555050565b600160009054906101000a900473ffffffffffffffffffffffffffffffffffffffff1681565b60009392505050565b60008054906101000a900473ffffffffffffffffffffffffffffffffffffffff1673ffffffffffffffffffffffffffffffffffffffff163373ffffffffffffffffffffffffffffffffffffffff16146105e057600080fd5b600560009054906101000a900473ffffffffffffffffffffffffffffffffffffffff1673ffffffffffffffffffffffffffffffffffffffff168173ffffffffffffffffffffffffffffffffffffffff16141561063b57600080fd5b600073ffffffffffffffffffffffffffffffffffffffff168173ffffffffffffffffffffffffffffffffffffffff1614156106dc5760008054906101000a900473ffffffffffffffffffffffffffffffffffffffff1673ffffffffffffffffffffffffffffffffffffffff166108fc479081150290604051600060405180830381858888f193505050501580156106d6573d6000803e3d6000fd5b50610886565b600081905060008173ffffffffffffffffffffffffffffffffffffffff166370a08231306040518263ffffffff1660e01b815260040161071c919061106d565b602060405180830381865afa158015610739573d6000803e3d6000fd5b505050506040513d601f19601f8201168201806040525081019061075d919061109d565b90508173ffffffffffffffffffffffffffffffffffffffff1663a9059cbb60008054906101000a900473ffffffffffffffffffffffffffffffffffffffff16836040518363ffffffff1660e01b81526004016107ba9291906110ca565b6020604051808303816000875af11580156107d9573d6000803e3d6000fd5b505050506040513d601f19601f820116820180604052508101906107fd919061111f565b5060008054906101000a900473ffffffffffffffffffffffffffffffffffffffff1673ffffffffffffffffffffffffffffffffffffffff168373ffffffffffffffffffffffffffffffffffffffff167ff931edb47c50b4b4104c187b5814a9aef5f709e17e2ecf9617e860cacade929c8360405161087b9190610f52565b60405180910390a350505b50565b60035481565b6000600660009054906101000a900473ffffffffffffffffffffffffffffffffffffffff1673ffffffffffffffffffffffffffffffffffffffff16634084c3ab6040518163ffffffff1660e01b8152600401602060405180830381865afa1580156108fe573d6000803e3d6000fd5b505050506040513d601f19601f82011682018060405250810190610922919061109d565b9050600081141561093257600080fd5b8061093b610d78565b1161094557600080fd5b60006109f7600560009054906101000a900473ffffffffffffffffffffffffffffffffffffffff1673ffffffffffffffffffffffffffffffffffffffff166370a08231306040518263ffffffff1660e01b81526004016109a5919061106d565b602060405180830381865afa1580156109c2573d6000803e3d6000fd5b505050506040513d601f19601f820116820180604052508101906109e6919061109d565b600354610d8090919063ffffffff16565b90506000600460009054906101000a900473ffffffffffffffffffffffffffffffffffffffff1673ffffffffffffffffffffffffffffffffffffffff16634ee2cd7e33856040518363ffffffff1660e01b8152600401610a589291906110ca565b602060405180830381865afa158015610a75573d6000803e3d6000fd5b505050506040513d601f19601f82011682018060405250810190610a99919061109d565b90506000610b5d600460009054906101000a900473ffffffffffffffffffffffffffffffffffffffff1673ffffffffffffffffffffffffffffffffffffffff1663981b24d0866040518263ffffffff1660e01b8152600401610afb9190610f52565b602060405180830381865afa158015610b18573d6000803e3d6000fd5b505050506040513d601f19601f82011682018060405250810190610b3c919061109d565b610b4f8486610dac90919063ffffffff16565b610ded90919063ffffffff16565b9050610bb1600260003373ffffffffffffffffffffffffffffffffffffffff1673ffffffffffffffffffffffffffffffffffffffff1681526020019081526020016000205482610e0890919063ffffffff16565b905060008111610bc057600080fd5b610bd581600354610d8090919063ffffffff16565b600381905550610c2d81600260003373ffffffffffffffffffffffffffffffffffffffff1673ffffffffffffffffffffffffffffffffffffffff16815260200190815260200160002054610d8090919063ffffffff16565b600260003373ffffffffffffffffffffffffffffffffffffffff1673ffffffffffffffffffffffffffffffffffffffff16815260200190815260200160002081905550600560009054906101000a900473ffffffffffffffffffffffffffffffffffffffff1673ffffffffffffffffffffffffffffffffffffffff1663a9059cbb33836040518363ffffffff1660e01b8152600401610ccd9291906110ca565b6020604051808303816000875af1158015610cec573d6000803e3d6000fd5b505050506040513d601f19601f82011682018060405250810190610d10919061111f565b610d1d57610d1c61114c565b5b3373ffffffffffffffffffffffffffffffffffffffff167f9381e53ffdc9733a6783a6f8665be3f89c231bb81a6771996ed553b4e75c0fe382604051610d639190610f52565b60405180910390a250505050565b6000806000fd5b600043905090565b6000808284610d8f91906111aa565b905083811015610da257610da161114c565b5b8091505092915050565b6000808284610dbb9190611200565b90506000841480610dd65750828482610dd49190611289565b145b610de357610de261114c565b5b8091505092915050565b6000808284610dfc9190611289565b90508091505092915050565b600082821115610e1b57610e1a61114c565b5b8183610e2791906112ba565b905092915050565b600073ffffffffffffffffffffffffffffffffffffffff82169050919050565b6000819050919050565b6000610e74610e6f610e6a84610e2f565b610e4f565b610e2f565b9050919050565b6000610e8682610e59565b9050919050565b6000610e9882610e7b565b9050919050565b610ea881610e8d565b82525050565b6000602082019050610ec36000830184610e9f565b92915050565b600080fd5b6000610ed982610e2f565b9050919050565b610ee981610ece565b8114610ef457600080fd5b50565b600081359050610f0681610ee0565b92915050565b600060208284031215610f2257610f21610ec9565b5b6000610f3084828501610ef7565b91505092915050565b6000819050919050565b610f4c81610f39565b82525050565b6000602082019050610f676000830184610f43565b92915050565b610f7681610f39565b8114610f8157600080fd5b50565b600081359050610f9381610f6d565b92915050565b600080600060608486031215610fb257610fb1610ec9565b5b6000610fc086828701610ef7565b9350506020610fd186828701610ef7565b9250506040610fe286828701610f84565b9150509250925092565b60008115159050919050565b61100181610fec565b82525050565b600060208201905061101c6000830184610ff8565b92915050565b600061102d82610e7b565b9050919050565b61103d81611022565b82525050565b60006020820190506110586000830184611034565b92915050565b61106781610ece565b82525050565b6000602082019050611082600083018461105e565b92915050565b60008151905061109781610f6d565b92915050565b6000602082840312156110b3576110b2610ec9565b5b60006110c184828501611088565b91505092915050565b60006040820190506110df600083018561105e565b6110ec6020830184610f43565b9392505050565b6110fc81610fec565b811461110757600080fd5b50565b600081519050611119816110f3565b92915050565b60006020828403121561113557611134610ec9565b5b60006111438482850161110a565b91505092915050565b7f4e487b7100000000000000000000000000000000000000000000000000000000600052600160045260246000fd5b7f4e487b7100000000000000000000000000000000000000000000000000000000600052601160045260246000fd5b60006111b582610f39565b91506111c083610f39565b9250827fffffffffffffffffffffffffffffffffffffffffffffffffffffffffffffffff038211156111f5576111f461117b565b5b828201905092915050565b600061120b82610f39565b915061121683610f39565b9250817fffffffffffffffffffffffffffffffffffffffffffffffffffffffffffffffff048311821515161561124f5761124e61117b565b5b828202905092915050565b7f4e487b7100000000000000000000000000000000000000000000000000000000600052601260045260246000fd5b600061129482610f39565b915061129f83610f39565b9250826112af576112ae61125a565b5b828204905092915050565b60006112c582610f39565b91506112d083610f39565b9250828210156112e3576112e261117b565b5b82820390509291505056fea26469706673582212201879303e9248c843095a937da0c956487c07f9a4c6e7ec90b9e7abe4bcc6dced64736f6c634300080c0033",
  "immutableReferences": {},
  "source": "// Upgraded from pragma solidity ^0.4.11 to ^0.8.12\npragma solidity ^0.8.12;\n\n\n/// @dev `Owned` is a base level contract that assigns an `owner` that can be\n///  later changed\ncontract Owned {\n\n    /// @dev `owner` is the only address that can call a function with this\n    /// modifier\n    modifier onlyOwner() {\n        require(msg.sender == owner);\n        _;\n    }\n\n    address public owner;\n\n    /// @notice The Constructor assigns the message sender to be `owner`\n    constructor() {\n        owner = msg.sender;\n    }\n\n    address public newOwner;\n\n    /// @notice `owner` can step down and assign some other address to this role\n    /// @param _newOwner The address of the new owner. 0x0 can be used to create\n    ///  an unowned neutral vault, however that cannot be undone\n    function changeOwner(address _newOwner) public onlyOwner {\n        newOwner = _newOwner;\n    }\n\n\n    function acceptOwnership() public {\n        if (msg.sender == newOwner) {\n            owner = newOwner;\n        }\n    }\n}\n\n// Abstract contract for the full ERC 20 Token standard\n// https://github.com/ethereum/EIPs/issues/20\n\nabstract contract ERC20Token {\n    /* This is a slight change to the ERC20 base standard.\n    function totalSupply() constant returns (uint256 supply);\n    is replaced with:\n    uint256 public totalSupply;\n    This automatically creates a getter function for the totalSupply.\n    This is moved to the base contract since public getter functions are not\n    currently recognised as an implementation of the matching abstract\n    function by the compiler.\n    */\n    /// total amount of tokens\n    uint256 public totalSupply;\n\n    /// @param _owner The address from which the balance will be retrieved\n    /// @return balance The balance\n    function balanceOf(address _owner) public view virtual returns (uint256 balance);\n\n    /// @notice send `_value` token to `_to` from `msg.sender`\n    /// @param _to The address of the recipient\n    /// @param _value The amount of token to be transferred\n    /// @return success Whether the transfer was successful or not\n    function transfer(address _to, uint256 _value) public virtual returns (bool success);\n\n    /// @notice send `_value` token to `_to` from `_from` on the condition it is approved by `_from`\n    /// @param _from The address of the sender\n    /// @param _to The address of the recipient\n    /// @param _value The amount of token to be transferred\n    /// @return success Whether the transfer was successful or not\n    function transferFrom(address _from, address _to, uint256 _value) public virtual returns (bool success);\n\n    /// @notice `msg.sender` approves `_spender` to spend `_value` tokens\n    /// @param _spender The address of the account able to transfer the tokens\n    /// @param _value The amount of tokens to be approved for transfer\n    /// @return success Whether the approval was successful or not\n    function approve(address _spender, uint256 _value) public virtual returns (bool success);\n\n    /// @param _owner The address of the account owning tokens\n    /// @param _spender The address of the account able to transfer the tokens\n    /// @return remaining Amount of remaining tokens allowed to spent\n    function allowance(address _owner, address _spender) public view virtual returns (uint256 remaining);\n\n    event Transfer(address indexed _from, address indexed _to, uint256 _value);\n    event Approval(address indexed _owner, address indexed _spender, uint256 _value);\n}\n\n\n\n/**\n * Math operations with safety checks\n */\nlibrary SafeMath {\n  function mul(uint a, uint b) internal pure returns (uint) {\n    uint c = a * b;\n    assert(a == 0 || c / a == b);\n    return c;\n  }\n\n  function div(uint a, uint b) internal pure returns (uint) {\n    // assert(b > 0); // Solidity automatically throws when dividing by 0\n    uint c = a / b;\n    // assert(a == b * c + a % b); // There is no case in which this doesn't hold\n    return c;\n  }\n\n  function sub(uint a, uint b) internal pure returns (uint) {\n    assert(b <= a);\n    return a - b;\n  }\n\n  function add(uint a, uint b) internal pure returns (uint) {\n    uint c = a + b;\n    assert(c >= a);\n    return c;\n  }\n\n  function max64(uint64 a, uint64 b) internal pure returns (uint64) {\n    return a >= b ? a : b;\n  }\n\n  function min64(uint64 a, uint64 b) internal pure returns (uint64) {\n    return a < b ? a : b;\n  }\n\n  function max256(uint256 a, uint256 b) internal pure returns (uint256) {\n    return a >= b ? a : b;\n  }\n\n  function min256(uint256 a, uint256 b) internal pure returns (uint256) {\n    return a < b ? a : b;\n  }\n}\n\n\n/*\n    Copyright 2017, Jordi Baylina\n\n    This program is free software: you can redistribute it and/or modify\n    it under the terms of the GNU General Public License as published by\n    the Free Software Foundation, either version 3 of the License, or\n    (at your option) any later version.\n\n    This program is distributed in the hope that it will be useful,\n    but WITHOUT ANY WARRANTY; without even the implied warranty of\n    MERCHANTABILITY or FITNESS FOR A PARTICULAR PURPOSE.  See the\n    GNU General Public License for more details.\n\n    You should have received a copy of the GNU General Public License\n    along with this program.  If not, see <http://www.gnu.org/licenses/>.\n */\n\n/// @title DynamicCeiling Contract\n/// @author Jordi Baylina\n/// @dev This contract calculates the ceiling from a series of curves.\n///  These curves are committed first and revealed later.\n///  All the curves must be in increasing order and the last curve is marked\n///  as the last one.\n///  This contract allows to hide and reveal the ceiling at will of the owner.\n\n\n\ncontract DynamicCeiling is Owned {\n    using SafeMath for uint256;\n\n    struct Curve {\n        bytes32 hash;\n        // Absolute limit for this curve\n        uint256 limit;\n        // The funds remaining to be collected are divided by `slopeFactor` smooth ceiling\n        // with a long tail where big and small buyers can take part.\n        uint256 slopeFactor;\n        // This keeps the curve flat at this number, until funds to be collected is less than this\n        uint256 collectMinimum;\n    }\n\n    address public contribution;\n\n    Curve[] public curves;\n    uint256 public currentIndex;\n    uint256 public revealedCurves;\n    bool public allRevealed;\n\n    /// @dev `contribution` is the only address that can call a function with this\n    /// modifier\n    modifier onlyContribution {\n        require(msg.sender == contribution);\n        _;\n    }\n\n    constructor(address _owner, address _contribution) {\n        owner = _owner;\n        contribution = _contribution;\n    }\n\n    /// @notice This should be called by the creator of the contract to commit\n    ///  all the curves.\n    /// @param _curveHashes Array of hashes of each curve. Each hash is calculated\n    ///  by the `calculateHash` method. More hashes than actual curves can be\n    ///  committed in order to hide also the number of curves.\n    ///  The remaining hashes can be just random numbers.\n    function setHiddenCurves(bytes32[] memory _curveHashes) public onlyOwner {\n        require(curves.length == 0);\n\n        for (uint256 i = 0; i < _curveHashes.length; i = i.add(1)) {\n            curves.push();\n            curves[i].hash = _curveHashes[i];\n        }\n    }\n\n\n    /// @notice Anybody can reveal the next curve if he knows it.\n    /// @param _limit Ceiling cap.\n    ///  (must be greater or equal to the previous one).\n    /// @param _last `true` if it's the last curve.\n    /// @param _salt Random number used to commit the curve\n    function revealCurve(uint256 _limit, uint256 _slopeFactor, uint256 _collectMinimum,\n                         bool _last, bytes32 _salt) public {\n        require(!allRevealed);\n\n        require(curves[revealedCurves].hash == calculateHash(_limit, _slopeFactor, _collectMinimum,\n                                                             _last, _salt));\n\n        require(_limit != 0 && _slopeFactor != 0 && _collectMinimum != 0);\n        if (revealedCurves > 0) {\n            require(_limit >= curves[revealedCurves.sub(1)].limit);\n        }\n\n        curves[revealedCurves].limit = _limit;\n        curves[revealedCurves].slopeFactor = _slopeFactor;\n        curves[revealedCurves].collectMinimum = _collectMinimum;\n        revealedCurves = revealedCurves.add(1);\n\n        if (_last) allRevealed = true;\n    }\n\n    /// @notice Reveal multiple curves at once\n    function revealMulti(uint256[] memory _limits, uint256[] memory _slopeFactors, uint256[] memory _collectMinimums,\n                         bool[] memory _lasts, bytes32[] memory _salts) public {\n        // Do not allow none and needs to be same length for all parameters\n        require(_limits.length != 0 &&\n                _limits.length == _slopeFactors.length &&\n                _limits.length == _collectMinimums.length &&\n                _limits.length == _lasts.length &&\n                _limits.length == _salts.length);\n\n        for (uint256 i = 0; i < _limits.length; i = i.add(1)) {\n            revealCurve(_limits[i], _slopeFactors[i], _collectMinimums[i],\n                        _lasts[i], _salts[i]);\n        }\n    }\n\n    /// @notice Move to curve, used as a failsafe\n    function moveTo(uint256 _index) public onlyOwner {\n        require(_index < revealedCurves &&       // No more curves\n                _index == currentIndex.add(1));  // Only move one index at a time\n        currentIndex = _index;\n    }\n\n    /// @return Return the funds to collect for the current point on the curve\n    ///  (or 0 if no curves revealed yet)\n    function toCollect(uint256 collected) public onlyContribution returns (uint256) {\n        if (revealedCurves == 0) return 0;\n\n        // Move to the next curve\n        if (collected >= curves[currentIndex].limit) {  // Catches `limit == 0`\n            uint256 nextIndex = currentIndex.add(1);\n            if (nextIndex >= revealedCurves) return 0;  // No more curves\n            currentIndex = nextIndex;\n            if (collected >= curves[currentIndex].limit) return 0;  // Catches `limit == 0`\n        }\n\n        // Everything left to collect from this limit\n        uint256 difference = curves[currentIndex].limit.sub(collected);\n\n        // Current point on the curve\n        uint256 collect = difference.div(curves[currentIndex].slopeFactor);\n\n        // Prevents paying too much fees vs to be collected; breaks long tail\n        if (collect <= curves[currentIndex].collectMinimum) {\n            if (difference > curves[currentIndex].collectMinimum) {\n                return curves[currentIndex].collectMinimum;\n            } else {\n                return difference;\n            }\n        } else {\n            return collect;\n        }\n    }\n\n    /// @notice Calculates the hash of a curve.\n    /// @param _limit Ceiling cap.\n    /// @param _last `true` if it's the last curve.\n    /// @param _salt Random number that will be needed to reveal this curve.\n    /// @return The calculated hash of this curve to be used in the `setHiddenCurves` method\n    function calculateHash(uint256 _limit, uint256 _slopeFactor, uint256 _collectMinimum,\n                           bool _last, bytes32 _salt) public pure returns (bytes32) {\n        return keccak256(abi.encodePacked(_limit, _slopeFactor, _collectMinimum, _last, _salt));\n    }\n\n    /// @return Return the total number of curves committed\n    ///  (can be larger than the number of actual curves on the curve to hide\n    ///  the real number of curves)\n    function nCurves() public view returns (uint256) {\n        return curves.length;\n    }\n\n}\n\n\n/*\n    Copyright 2016, Jordi Baylina\n\n    This program is free software: you can redistribute it and/or modify\n    it under the terms of the GNU General Public License as published by\n    the Free Software Foundation, either version 3 of the License, or\n    (at your option) any later version.\n\n    This program is distributed in the hope that it will be useful,\n    but WITHOUT ANY WARRANTY; without even the implied warranty of\n    MERCHANTABILITY or FITNESS FOR A PARTICULAR PURPOSE.  See the\n    GNU General Public License for more details.\n\n    You should have received a copy of the GNU General Public License\n    along with this program.  If not, see <http://www.gnu.org/licenses/>.\n */\n\n/// @title MiniMeToken Contract\n/// @author Jordi Baylina\n/// @dev This token contract's goal is to make it easy for anyone to clone this\n///  token using the token distribution at a given block, this will allow DAO's\n///  and DApps to upgrade their features in a decentralized manner without\n///  affecting the original token\n/// @dev It is ERC20 compliant, but still needs to under go further testing.\n\n\n/// @dev The token controller contract must implement these functions\nabstract contract TokenController {\n    /// @notice Called when `_owner` sends ether to the MiniMe Token contract\n    /// @param _owner The address that sent the ether to create tokens\n    /// @return True if the ether is accepted, false if it throws\n    function proxyPayment(address _owner) public payable virtual returns(bool);\n\n    /// @notice Notifies the controller about a token transfer allowing the\n    ///  controller to react if desired\n    /// @param _from The origin of the transfer\n    /// @param _to The destination of the transfer\n    /// @param _amount The amount of the transfer\n    /// @return False if the controller does not authorize the transfer\n    function onTransfer(address _from, address _to, uint _amount) public virtual returns(bool);\n\n    /// @notice Notifies the controller about an approval allowing the\n    ///  controller to react if desired\n    /// @param _owner The address that calls `approve()`\n    /// @param _spender The spender in the `approve()` call\n    /// @param _amount The amount in the `approve()` call\n    /// @return False if the controller does not authorize the approval\n    function onApprove(address _owner, address _spender, uint _amount)\n        public virtual returns(bool);\n}\n\ncontract Controlled {\n    /// @notice The address of the controller is the only address that can call\n    ///  a function with this modifier\n    modifier onlyController { if (msg.sender != controller) revert(); _; }\n\n    address public controller;\n\n    constructor() { controller = msg.sender;}\n\n    /// @notice Changes the controller of the contract\n    /// @param _newController The new controller of the contract\n    function changeController(address _newController) public onlyController {\n        controller = _newController;\n    }\n}\n\nabstract contract ApproveAndCallFallBack {\n    function receiveApproval(address from, uint256 _amount, address _token, bytes memory _data) public virtual;\n}\n\n/// @dev The actual token contract, the default controller is the msg.sender\n///  that deploys the contract, so usually this token will be deployed by a\n///  token controller contract, which Giveth will call a \"Campaign\"\ncontract MiniMeToken is Controlled {\n\n    string public name;                //The Token's name: e.g. DigixDAO Tokens\n    uint8 public decimals;             //Number of decimals of the smallest unit\n    string public symbol;              //An identifier: e.g. REP\n    string public version = 'MMT_0.1'; //An arbitrary versioning scheme\n\n\n    /// @dev `Checkpoint` is the structure that attaches a block number to a\n    ///  given value, the block number attached is the one that last changed the\n    ///  value\n    struct  Checkpoint {\n\n        // `fromBlock` is the block number that the value was generated from\n        uint128 fromBlock;\n\n        // `value` is the amount of tokens at a specific block number\n        uint128 value;\n    }\n\n    // `parentToken` is the Token address that was cloned to produce this token;\n    //  it will be 0x0 for a token that was not cloned\n    MiniMeToken public parentToken;\n\n    // `parentSnapShotBlock` is the block number from the Parent Token that was\n    //  used to determine the initial distribution of the Clone Token\n    uint public parentSnapShotBlock;\n\n    // `creationBlock` is the block number that the Clone Token was created\n    uint public creationBlock;\n\n    // `balances` is the map that tracks the balance of each address, in this\n    //  contract when the balance changes the block number that the change\n    //  occurred is also included in the map\n    mapping (address => Checkpoint[]) balances;\n\n    // `allowed` tracks any extra transfer rights as in all ERC20 tokens\n    mapping (address => mapping (address => uint256)) allowed;\n\n    // Tracks the history of the `totalSupply` of the token\n    Checkpoint[] totalSupplyHistory;\n\n    // Flag that determines if the token is transferable or not.\n    bool public transfersEnabled;\n\n    // The factory used to create new clone tokens\n    MiniMeTokenFactory public tokenFactory;\n\n////////////////\n// Constructor\n////////////////\n\n    /// @notice Constructor to create a MiniMeToken\n    /// @param _tokenFactory The address of the MiniMeTokenFactory contract that\n    ///  will create the Clone token contracts, the token factory needs to be\n    ///  deployed first\n    /// @param _parentToken Address of the parent token, set to 0x0 if it is a\n    ///  new token\n    /// @param _parentSnapShotBlock Block of the parent token that will\n    ///  determine the initial distribution of the clone token, set to 0 if it\n    ///  is a new token\n    /// @param _tokenName Name of the new token\n    /// @param _decimalUnits Number of decimals of the new token\n    /// @param _tokenSymbol Token Symbol for the new token\n    /// @param _transfersEnabled If true, tokens will be able to be transferred\n    constructor(\n        address _tokenFactory,\n        address _parentToken,\n        uint _parentSnapShotBlock,\n        string memory _tokenName,\n        uint8 _decimalUnits,\n        string memory _tokenSymbol,\n        bool _transfersEnabled\n    ) {\n        tokenFactory = MiniMeTokenFactory(_tokenFactory);\n        name = _tokenName;                                 // Set the name\n        decimals = _decimalUnits;                          // Set the decimals\n        symbol = _tokenSymbol;                             // Set the symbol\n        parentToken = MiniMeToken(payable(_parentToken));\n        parentSnapShotBlock = _parentSnapShotBlock;\n        transfersEnabled = _transfersEnabled;\n        creationBlock = getBlockNumber();\n    }\n\n\n///////////////////\n// ERC20 Methods\n///////////////////\n\n    /// @notice Send `_amount` tokens to `_to` from `msg.sender`\n    /// @param _to The address of the recipient\n    /// @param _amount The amount of tokens to be transferred\n    /// @return success Whether the transfer was successful or not\n    function transfer(address _to, uint256 _amount) public returns (bool success) {\n        if (!transfersEnabled) revert();\n        return doTransfer(msg.sender, _to, _amount);\n    }\n\n    /// @notice Send `_amount` tokens to `_to` from `_from` on the condition it\n    ///  is approved by `_from`\n    /// @param _from The address holding the tokens being transferred\n    /// @param _to The address of the recipient\n    /// @param _amount The amount of tokens to be transferred\n    /// @return success True if the transfer was successful\n    function transferFrom(address _from, address _to, uint256 _amount\n    ) public returns (bool success) {\n\n        // The controller of this contract can move tokens around at will,\n        //  this is important to recognize! Confirm that you trust the\n        //  controller of this contract, which in most situations should be\n        //  another open source smart contract or 0x0\n        if (msg.sender != controller) {\n            if (!transfersEnabled) revert();\n\n            // The standard ERC 20 transferFrom functionality\n            if (allowed[_from][msg.sender] < _amount) return false;\n            allowed[_from][msg.sender] -= _amount;\n        }\n        return doTransfer(_from, _to, _amount);\n    }\n\n    /// @dev This is the actual transfer function in the token contract, it can\n    ///  only be called by other functions in this contract.\n    /// @param _from The address holding the tokens being transferred\n    /// @param _to The address of the recipient\n    /// @param _amount The amount of tokens to be transferred\n    /// @return True if the transfer was successful\n    function doTransfer(address _from, address _to, uint _amount\n    ) internal returns(bool) {\n\n           if (_amount == 0) {\n               return true;\n           }\n\n           if (parentSnapShotBlock >= getBlockNumber()) revert();\n\n           // Do not allow transfer to 0x0 or the token contract itself\n           if ((_to == address(0)) || (_to == address(this))) revert();\n\n           // If the amount being transfered is more than the balance of the\n           //  account the transfer returns false\n           uint256 previousBalanceFrom = balanceOfAt(_from, getBlockNumber());\n           if (previousBalanceFrom < _amount) {\n               return false;\n           }\n\n           // Alerts the token controller of the transfer\n           if (isContract(controller)) {\n               if (!TokenController(controller).onTransfer(_from, _to, _amount))\n               revert();\n           }\n\n           // First update the balance array with the new value for the address\n           //  sending the tokens\n           updateValueAtNow(balances[_from], previousBalanceFrom - _amount);\n\n           // Then update the balance array with the new value for the address\n           //  receiving the tokens\n           uint256 previousBalanceTo = balanceOfAt(_to, getBlockNumber());\n           if (previousBalanceTo + _amount < previousBalanceTo) revert(); // Check for overflow\n           updateValueAtNow(balances[_to], previousBalanceTo + _amount);\n\n           // An event to make the transfer easy to find on the blockchain\n           emit Transfer(_from, _to, _amount);\n\n           return true;\n    }\n\n    /// @param _owner The address that's balance is being requested\n    /// @return balance The balance of `_owner` at the current block\n    function balanceOf(address _owner) public view returns (uint256 balance) {\n        return balanceOfAt(_owner, getBlockNumber());\n    }\n\n    /// @notice `msg.sender` approves `_spender` to spend `_amount` tokens on\n    ///  its behalf. This is a modified version of the ERC20 approve function\n    ///  to be a little bit safer\n    /// @param _spender The address of the account able to transfer the tokens\n    /// @param _amount The amount of tokens to be approved for transfer\n    /// @return success True if the approval was successful\n    function approve(address _spender, uint256 _amount) public returns (bool success) {\n        if (!transfersEnabled) revert();\n\n        // To change the approve amount you first have to reduce the addresses`\n        //  allowance to zero by calling `approve(_spender,0)` if it is not\n        //  already 0 to mitigate the race condition described here:\n        //  https://github.com/ethereum/EIPs/issues/20#issuecomment-263524729\n        if ((_amount!=0) && (allowed[msg.sender][_spender] !=0)) revert();\n\n        // Alerts the token controller of the approve function call\n        if (isContract(controller)) {\n            if (!TokenController(controller).onApprove(msg.sender, _spender, _amount))\n                revert();\n        }\n\n        allowed[msg.sender][_spender] = _amount;\n        emit Approval(msg.sender, _spender, _amount);\n        return true;\n    }\n\n    /// @dev This function makes it easy to read the `allowed[]` map\n    /// @param _owner The address of the account that owns the token\n    /// @param _spender The address of the account able to transfer the tokens\n    /// @return remaining Amount of remaining tokens of _owner that _spender is allowed\n    ///  to spend\n    function allowance(address _owner, address _spender\n    ) public view returns (uint256 remaining) {\n        return allowed[_owner][_spender];\n    }\n\n    /// @notice `msg.sender` approves `_spender` to send `_amount` tokens on\n    ///  its behalf, and then a function is triggered in the contract that is\n    ///  being approved, `_spender`. This allows users to use their tokens to\n    ///  interact with contracts in one function call instead of two\n    /// @param _spender The address of the contract able to transfer the tokens\n    /// @param _amount The amount of tokens to be approved for transfer\n    /// @return success True if the function call was successful\n    function approveAndCall(address _spender, uint256 _amount, bytes memory _extraData\n    ) public returns (bool success) {\n        if (!approve(_spender, _amount)) revert();\n\n        ApproveAndCallFallBack(_spender).receiveApproval(\n            msg.sender,\n            _amount,\n            address(this),\n            _extraData\n        );\n\n        return true;\n    }\n\n    /// @dev This function makes it easy to get the total number of tokens\n    /// @return The total number of tokens\n    function totalSupply() public view returns (uint) {\n        return totalSupplyAt(getBlockNumber());\n    }\n\n\n////////////////\n// Query balance and totalSupply in History\n////////////////\n\n    /// @dev Queries the balance of `_owner` at a specific `_blockNumber`\n    /// @param _owner The address from which the balance will be retrieved\n    /// @param _blockNumber The block number when the balance is queried\n    /// @return The balance at `_blockNumber`\n    function balanceOfAt(address _owner, uint _blockNumber) public view\n        returns (uint) {\n\n        // These next few lines are used when the balance of the token is\n        //  requested before a check point was ever created for this token, it\n        //  requires that the `parentToken.balanceOfAt` be queried at the\n        //  genesis block for that token as this contains initial balance of\n        //  this token\n        if ((balances[_owner].length == 0)\n            || (balances[_owner][0].fromBlock > _blockNumber)) {\n            if (address(parentToken) != address(0)) {\n                return parentToken.balanceOfAt(_owner, min(_blockNumber, parentSnapShotBlock));\n            } else {\n                // Has no parent\n                return 0;\n            }\n\n        // This will return the expected balance during normal situations\n        } else {\n            return getValueAt(balances[_owner], _blockNumber);\n        }\n    }\n\n    /// @notice Total amount of tokens at a specific `_blockNumber`.\n    /// @param _blockNumber The block number when the totalSupply is queried\n    /// @return The total amount of tokens at `_blockNumber`\n    function totalSupplyAt(uint _blockNumber) public view returns(uint) {\n\n        // These next few lines are used when the totalSupply of the token is\n        //  requested before a check point was ever created for this token, it\n        //  requires that the `parentToken.totalSupplyAt` be queried at the\n        //  genesis block for this token as that contains totalSupply of this\n        //  token at this block number.\n        if ((totalSupplyHistory.length == 0)\n            || (totalSupplyHistory[0].fromBlock > _blockNumber)) {\n            if (address(parentToken) != address(0)) {\n                return parentToken.totalSupplyAt(min(_blockNumber, parentSnapShotBlock));\n            } else {\n                return 0;\n            }\n\n        // This will return the expected totalSupply during normal situations\n        } else {\n            return getValueAt(totalSupplyHistory, _blockNumber);\n        }\n    }\n\n////////////////\n// Clone Token Method\n////////////////\n\n    /// @notice Creates a new clone token with the initial distribution being\n    ///  this token at `_snapshotBlock`\n    /// @param _cloneTokenName Name of the clone token\n    /// @param _cloneDecimalUnits Number of decimals of the smallest unit\n    /// @param _cloneTokenSymbol Symbol of the clone token\n    /// @param _snapshotBlock Block when the distribution of the parent token is\n    ///  copied to set the initial distribution of the new clone token;\n    ///  if the block is zero than the actual block, the current block is used\n    /// @param _transfersEnabled True if transfers are allowed in the clone\n    /// @return The address of the new MiniMeToken Contract\n    function createCloneToken(\n        string memory _cloneTokenName,\n        uint8 _cloneDecimalUnits,\n        string memory _cloneTokenSymbol,\n        uint _snapshotBlock,\n        bool _transfersEnabled\n        ) public returns(address) {\n        if (_snapshotBlock == 0) _snapshotBlock = getBlockNumber();\n        MiniMeToken cloneToken = tokenFactory.createCloneToken(\n            address(this),\n            _snapshotBlock,\n            _cloneTokenName,\n            _cloneDecimalUnits,\n            _cloneTokenSymbol,\n            _transfersEnabled\n            );\n\n        cloneToken.changeController(msg.sender);\n\n        // An event to make the token easy to find on the blockchain\n        emit NewCloneToken(address(cloneToken), _snapshotBlock);\n        return address(cloneToken);\n    }\n\n////////////////\n// Generate and destroy tokens\n////////////////\n\n    /// @notice Generates `_amount` tokens that are assigned to `_owner`\n    /// @param _owner The address that will be assigned the new tokens\n    /// @param _amount The quantity of tokens generated\n    /// @return True if the tokens are generated correctly\n    function generateTokens(address _owner, uint _amount\n    ) public onlyController returns (bool) {\n        uint curTotalSupply = getValueAt(totalSupplyHistory, getBlockNumber());\n        if (curTotalSupply + _amount < curTotalSupply) revert(); // Check for overflow\n        updateValueAtNow(totalSupplyHistory, curTotalSupply + _amount);\n        uint previousBalanceTo = balanceOf(_owner);\n        if (previousBalanceTo + _amount < previousBalanceTo) revert(); // Check for overflow\n        updateValueAtNow(balances[_owner], previousBalanceTo + _amount);\n        emit Transfer(address(0), _owner, _amount);\n        return true;\n    }\n\n\n    /// @notice Burns `_amount` tokens from `_owner`\n    /// @param _owner The address that will lose the tokens\n    /// @param _amount The quantity of tokens to burn\n    /// @return True if the tokens are burned correctly\n    function destroyTokens(address _owner, uint _amount\n    ) public onlyController returns (bool) {\n        uint curTotalSupply = getValueAt(totalSupplyHistory, getBlockNumber());\n        if (curTotalSupply < _amount) revert();\n        updateValueAtNow(totalSupplyHistory, curTotalSupply - _amount);\n        uint previousBalanceFrom = balanceOf(_owner);\n        if (previousBalanceFrom < _amount) revert();\n        updateValueAtNow(balances[_owner], previousBalanceFrom - _amount);\n        emit Transfer(_owner, address(0), _amount);\n        return true;\n    }\n\n////////////////\n// Enable tokens transfers\n////////////////\n\n\n    /// @notice Enables token holders to transfer their tokens freely if true\n    /// @param _transfersEnabled True if transfers are allowed in the clone\n    function enableTransfers(bool _transfersEnabled) public onlyController {\n        transfersEnabled = _transfersEnabled;\n    }\n\n////////////////\n// Internal helper functions to query and set a value in a snapshot array\n////////////////\n\n    /// @dev `getValueAt` retrieves the number of tokens at a given block number\n    /// @param checkpoints The history of values being queried\n    /// @param _block The block number to retrieve the value at\n    /// @return The number of tokens being queried\n    function getValueAt(Checkpoint[] storage checkpoints, uint _block\n    ) view internal returns (uint) {\n        if (checkpoints.length == 0) return 0;\n\n        // Shortcut for the actual value\n        if (_block >= checkpoints[checkpoints.length-1].fromBlock)\n            return checkpoints[checkpoints.length-1].value;\n        if (_block < checkpoints[0].fromBlock) return 0;\n\n        // Binary search of the value in the array\n        uint min_ = 0;\n        uint max_ = checkpoints.length-1;\n        while (max_ > min_) {\n            uint mid = (max_ + min_ + 1)/ 2;\n            if (checkpoints[mid].fromBlock<=_block) {\n                min_ = mid;\n            } else {\n                max_ = mid-1;\n            }\n        }\n        return checkpoints[min_].value;\n    }\n\n    /// @dev `updateValueAtNow` used to update the `balances` map and the\n    ///  `totalSupplyHistory`\n    /// @param checkpoints The history of data being updated\n    /// @param _value The new number of tokens\n    function updateValueAtNow(Checkpoint[] storage checkpoints, uint _value\n    ) internal  {\n        if ((checkpoints.length == 0)\n        || (checkpoints[checkpoints.length -1].fromBlock < getBlockNumber())) {\n               checkpoints.push();\n               Checkpoint storage newCheckPoint = checkpoints[ checkpoints.length - 1 ];\n               newCheckPoint.fromBlock =  uint128(getBlockNumber());\n               newCheckPoint.value = uint128(_value);\n           } else {\n               Checkpoint storage oldCheckPoint = checkpoints[checkpoints.length-1];\n               oldCheckPoint.value = uint128(_value);\n           }\n    }\n\n    /// @dev Internal function to determine if an address is a contract\n    /// @param _addr The address being queried\n    /// @return True if `_addr` is a contract\n    function isContract(address _addr) view internal returns(bool) {\n        uint size;\n        if (_addr == address(0)) return false;\n        assembly {\n            size := extcodesize(_addr)\n        }\n        return size>0;\n    }\n\n    /// @dev Helper function to return a min betwen the two uints\n    function min(uint a, uint b) internal pure returns (uint) {\n        return a < b ? a : b;\n    }\n\n    /// @notice The fallback function: If the contract's controller has not been\n    ///  set to 0, then the `proxyPayment` method is called which relays the\n    ///  ether and creates tokens as described in the token controller contract\n    receive()  external payable {\n        if (isContract(controller)) {\n            if (! TokenController(controller).proxyPayment{value: msg.value}(msg.sender))\n                revert();\n        } else {\n            revert();\n        }\n    }\n\n\n//////////\n// Testing specific methods\n//////////\n\n    /// @notice This function is overridden by the test Mocks.\n    function getBlockNumber() internal view returns (uint256) {\n        return block.number;\n    }\n\n//////////\n// Safety Methods\n//////////\n\n    /// @notice This method can be used by the controller to extract mistakenly\n    ///  sent tokens to this contract.\n    /// @param _token The address of the token contract that you want to recover\n    ///  set to 0 in case you want to extract ether.\n    function claimTokens(address _token) public onlyController {\n        if (_token == address(0)) {\n            payable(controller).transfer(address(this).balance);\n            return;\n        }\n\n        ERC20Token token = ERC20Token(_token);\n        uint balance = token.balanceOf(address(this));\n        token.transfer(controller, balance);\n        emit ClaimedTokens(_token, controller, balance);\n    }\n\n////////////////\n// Events\n////////////////\n\n    event ClaimedTokens(address indexed _token, address indexed _controller, uint _amount);\n    event Transfer(address indexed _from, address indexed _to, uint256 _amount);\n    event NewCloneToken(address indexed _cloneToken, uint _snapshotBlock);\n    event Approval(\n        address indexed _owner,\n        address indexed _spender,\n        uint256 _amount\n        );\n\n}\n\n\n////////////////\n// MiniMeTokenFactory\n////////////////\n\n/// @dev This contract is used to generate clone contracts from a contract.\n///  In solidity this is the way to create a contract from a contract of the\n///  same class\ncontract MiniMeTokenFactory {\n\n    /// @notice Update the DApp by creating a new token with new functionalities\n    ///  the msg.sender becomes the controller of this clone token\n    /// @param _parentToken Address of the token being cloned\n    /// @param _snapshotBlock Block of the parent token that will\n    ///  determine the initial distribution of the clone token\n    /// @param _tokenName Name of the new token\n    /// @param _decimalUnits Number of decimals of the new token\n    /// @param _tokenSymbol Token Symbol for the new token\n    /// @param _transfersEnabled If true, tokens will be able to be transferred\n    /// @return The address of the new token contract\n    function createCloneToken(\n        address _parentToken,\n        uint _snapshotBlock,\n        string memory _tokenName,\n        uint8 _decimalUnits,\n        string memory _tokenSymbol,\n        bool _transfersEnabled\n    ) public returns (MiniMeToken) {\n        MiniMeToken newToken = new MiniMeToken(\n            address(this),\n            _parentToken,\n            _snapshotBlock,\n            _tokenName,\n            _decimalUnits,\n            _tokenSymbol,\n            _transfersEnabled\n            );\n\n        newToken.changeController(msg.sender);\n        return newToken;\n    }\n}\n\n\n/*\n    Copyright 2017, Jarrad Hope (Status Research & Development GmbH)\n*/\n\n\n// Renamed from `SNT` to `Snt` for using the uniform test traces\ncontract Snt is MiniMeToken {\n    // @dev SNT constructor just parametrizes the MiniMeIrrevocableVestedToken constructor\n    constructor(address _tokenFactory)\n            MiniMeToken(\n                _tokenFactory,\n                address(0),              // no parent token\n                0,                       // no snapshot block number from parent\n                \"Status Network Token\",  // Token name\n                18,                      // Decimals\n                \"SNT\",                   // Symbol\n                true                     // Enable transfers\n            ) {}\n}\n\n\n/*\n    Copyright 2017, Jordi Baylina\n\n    This program is free software: you can redistribute it and/or modify\n    it under the terms of the GNU General Public License as published by\n    the Free Software Foundation, either version 3 of the License, or\n    (at your option) any later version.\n\n    This program is distributed in the hope that it will be useful,\n    but WITHOUT ANY WARRANTY; without even the implied warranty of\n    MERCHANTABILITY or FITNESS FOR A PARTICULAR PURPOSE.  See the\n    GNU General Public License for more details.\n\n    You should have received a copy of the GNU General Public License\n    along with this program.  If not, see <http://www.gnu.org/licenses/>.\n */\n\n/// @title StatusContribution Contract\n/// @author Jordi Baylina\n/// @dev This contract will be the SNT controller during the contribution period.\n///  This contract will determine the rules during this period.\n///  Final users will generally not interact directly with this contract. ETH will\n///  be sent to the SNT token contract. The ETH is sent to this contract and from here,\n///  ETH is sent to the contribution walled and SNTs are mined according to the defined\n///  rules.\n\n\ncontract StatusContribution is Owned, TokenController {\n    using SafeMath for uint256;\n\n    uint256 constant public failSafeLimit = 300000 ether;\n    uint256 constant public maxGuaranteedLimit = 30000 ether;\n    uint256 constant public exchangeRate = 10000;\n    uint256 constant public maxGasPrice = 50000000000;\n    uint256 constant public maxCallFrequency = 100;\n\n    MiniMeToken public SGT;\n    MiniMeToken public SNT;\n    uint256 public startBlock;\n    uint256 public endBlock;\n\n    address public destEthDevs;\n\n    address public destTokensDevs;\n    address public destTokensReserve;\n    uint256 public maxSGTSupply;\n    address public destTokensSgt;\n    DynamicCeiling public dynamicCeiling;\n\n    address public sntController;\n\n    mapping (address => uint256) public guaranteedBuyersLimit;\n    mapping (address => uint256) public guaranteedBuyersBought;\n\n    uint256 public totalGuaranteedCollected;\n    uint256 public totalNormalCollected;\n\n    uint256 public finalizedBlock;\n    uint256 public finalizedTime;\n\n    mapping (address => uint256) public lastCallBlock;\n\n    bool public paused;\n\n    modifier initialized() {\n        require(address(SNT) != address(0));\n        _;\n    }\n\n    modifier contributionOpen() {\n        require(getBlockNumber() >= startBlock &&\n                getBlockNumber() <= endBlock &&\n                finalizedBlock == 0 &&\n                address(SNT) != address(0));\n        _;\n    }\n\n    modifier notPaused() {\n        require(!paused);\n        _;\n    }\n\n    constructor() {\n        paused = false;\n    }\n\n\n    /// @notice This method should be called by the owner before the contribution\n    ///  period starts This initializes most of the parameters\n    /// @param _snt Address of the SNT token contract\n    /// @param _sntController Token controller for the SNT that will be transferred after\n    ///  the contribution finalizes.\n    /// @param _startBlock Block when the contribution period starts\n    /// @param _endBlock The last block that the contribution period is active\n    /// @param _dynamicCeiling Address of the contract that controls the ceiling\n    /// @param _destEthDevs Destination address where the contribution ether is sent\n    /// @param _destTokensReserve Address where the tokens for the reserve are sent\n    /// @param _destTokensSgt Address of the exchanger SGT-SNT where the SNT are sent\n    ///  to be distributed to the SGT holders.\n    /// @param _destTokensDevs Address where the tokens for the dev are sent\n    /// @param _sgt Address of the SGT token contract\n    /// @param _maxSGTSupply Quantity of SGT tokens that would represent 10% of status.\n    function initialize(\n        address _snt,\n        address _sntController,\n\n        uint256 _startBlock,\n        uint256 _endBlock,\n\n        address _dynamicCeiling,\n\n        address _destEthDevs,\n\n        address _destTokensReserve,\n        address _destTokensSgt,\n        address _destTokensDevs,\n\n        address _sgt,\n        uint256 _maxSGTSupply\n    ) public onlyOwner {\n        // Initialize only once\n        require(address(SNT) == address(0));\n\n        SNT = MiniMeToken(payable(_snt));\n        require(SNT.totalSupply() == 0);\n        require(SNT.controller() == address(this));\n        require(SNT.decimals() == 18);  // Same amount of decimals as ETH\n\n        require(_sntController != address(0));\n        sntController = _sntController;\n\n        require(_startBlock >= getBlockNumber());\n        require(_startBlock < _endBlock);\n        startBlock = _startBlock;\n        endBlock = _endBlock;\n\n        require(_dynamicCeiling != address(0));\n        dynamicCeiling = DynamicCeiling(_dynamicCeiling);\n\n        require(_destEthDevs != address(0));\n        destEthDevs = _destEthDevs;\n\n        require(_destTokensReserve != address(0));\n        destTokensReserve = _destTokensReserve;\n\n        require(_destTokensSgt != address(0));\n        destTokensSgt = _destTokensSgt;\n\n        require(_destTokensDevs != address(0));\n        destTokensDevs = _destTokensDevs;\n\n        require(_sgt != address(0));\n        SGT = MiniMeToken(payable(_sgt));\n\n        require(_maxSGTSupply >= MiniMeToken(SGT).totalSupply());\n        maxSGTSupply = _maxSGTSupply;\n    }\n\n    /// @notice Sets the limit for a guaranteed address. All the guaranteed addresses\n    ///  will be able to get SNTs during the contribution period with his own\n    ///  specific limit.\n    ///  This method should be called by the owner after the initialization\n    ///  and before the contribution starts.\n    /// @param _th Guaranteed address\n    /// @param _limit Limit for the guaranteed address.\n    function setGuaranteedAddress(address _th, uint256 _limit) public initialized onlyOwner {\n        require(getBlockNumber() < startBlock);\n        require(_limit > 0 && _limit <= maxGuaranteedLimit);\n        guaranteedBuyersLimit[_th] = _limit;\n        emit GuaranteedAddress(_th, _limit);\n    }\n\n    /// @notice If anybody sends Ether directly to this contract, consider he is\n    ///  getting SNTs.\n    receive() external payable notPaused {\n        proxyPayment(msg.sender);\n    }\n\n\n    //////////\n    // MiniMe Controller functions\n    //////////\n\n    /// @notice This method will generally be called by the SNT token contract to\n    ///  acquire SNTs. Or directly from third parties that want to acquire SNTs in\n    ///  behalf of a token holder.\n    /// @param _th SNT holder where the SNTs will be minted.\n    function proxyPayment(address _th) public payable override notPaused initialized contributionOpen returns (bool) {\n        require(_th != address(0));\n        if (guaranteedBuyersLimit[_th] > 0) {\n            buyGuaranteed(_th);\n        } else {\n            buyNormal(_th);\n        }\n        return true;\n    }\n\n    function onTransfer(address, address, uint256) public override returns (bool) {\n        return false;\n    }\n\n    function onApprove(address, address, uint256) public override returns (bool) {\n        return false;\n    }\n\n    function buyNormal(address _th) internal {\n        require(tx.gasprice <= maxGasPrice);\n\n        // Antispam mechanism\n        address caller;\n        if (msg.sender == address(SNT)) {\n            caller = _th;\n        } else {\n            caller = msg.sender;\n        }\n\n        // Do not allow contracts to game the system\n        require(!isContract(caller));\n\n        require(getBlockNumber().sub(lastCallBlock[caller]) >= maxCallFrequency);\n        lastCallBlock[caller] = getBlockNumber();\n\n        uint256 toCollect = dynamicCeiling.toCollect(totalNormalCollected);\n\n        uint256 toFund;\n        if (msg.value <= toCollect) {\n            toFund = msg.value;\n        } else {\n            toFund = toCollect;\n        }\n\n        totalNormalCollected = totalNormalCollected.add(toFund);\n        doBuy(_th, toFund, false);\n    }\n\n    function buyGuaranteed(address _th) internal {\n        uint256 toCollect = guaranteedBuyersLimit[_th];\n\n        uint256 toFund;\n        if (guaranteedBuyersBought[_th].add(msg.value) > toCollect) {\n            toFund = toCollect.sub(guaranteedBuyersBought[_th]);\n        } else {\n            toFund = msg.value;\n        }\n\n        guaranteedBuyersBought[_th] = guaranteedBuyersBought[_th].add(toFund);\n        totalGuaranteedCollected = totalGuaranteedCollected.add(toFund);\n        doBuy(_th, toFund, true);\n    }\n\n    function doBuy(address _th, uint256 _toFund, bool _guaranteed) internal {\n        assert(msg.value >= _toFund);  // Not needed, but double check.\n        assert(totalCollected() <= failSafeLimit);\n\n        if (_toFund > 0) {\n            uint256 tokensGenerated = _toFund.mul(exchangeRate);\n            assert(SNT.generateTokens(_th, tokensGenerated));\n            payable(destEthDevs).transfer(_toFund);\n            emit NewSale(_th, _toFund, tokensGenerated, _guaranteed);\n        }\n\n        uint256 toReturn = msg.value.sub(_toFund);\n        if (toReturn > 0) {\n            // If the call comes from the Token controller,\n            // then we return it to the token Holder.\n            // Otherwise we return to the sender.\n            if (msg.sender == address(SNT)) {\n                payable(_th).transfer(toReturn);\n            } else {\n                payable(msg.sender).transfer(toReturn);\n            }\n        }\n    }\n\n    // NOTE on Percentage format\n    // Right now, Solidity does not support decimal numbers. (This will change very soon)\n    //  So in this contract we use a representation of a percentage that consist in\n    //  expressing the percentage in \"x per 10**18\"\n    // This format has a precision of 16 digits for a percent.\n    // Examples:\n    //  3%   =   3*(10**16)\n    //  100% = 100*(10**16) = 10**18\n    //\n    // To get a percentage of a value we do it by first multiplying it by the percentage in  (x per 10^18)\n    //  and then divide it by 10**18\n    //\n    //              Y * X(in x per 10**18)\n    //  X% of Y = -------------------------\n    //               100(in x per 10**18)\n    //\n\n\n    /// @notice This method will can be called by the owner before the contribution period\n    ///  end or by anybody after the `endBlock`. This method finalizes the contribution period\n    ///  by creating the remaining tokens and transferring the controller to the configured\n    ///  controller.\n    function finalize() public initialized {\n        require(getBlockNumber() >= startBlock);\n        require(msg.sender == owner || getBlockNumber() > endBlock);\n        require(finalizedBlock == 0);\n\n        // Do not allow termination until all curves revealed.\n        require(dynamicCeiling.allRevealed());\n\n        // Allow premature finalization if final limit is reached\n        if (getBlockNumber() <= endBlock) {\n            (, uint256 lastLimit, , ) = dynamicCeiling.curves(dynamicCeiling.revealedCurves().sub(1));\n            require(totalNormalCollected >= lastLimit);\n        }\n\n        finalizedBlock = getBlockNumber();\n        finalizedTime = block.timestamp;\n\n        uint256 percentageToSgt;\n        if (SGT.totalSupply() >= maxSGTSupply) {\n            percentageToSgt = percent(10);  // 10%\n        } else {\n\n            //\n            //                           SGT.totalSupply()\n            //  percentageToSgt = 10% * -------------------\n            //                             maxSGTSupply\n            //\n            percentageToSgt = percent(10).mul(SGT.totalSupply()).div(maxSGTSupply);\n        }\n\n        uint256 percentageToDevs = percent(20);  // 20%\n\n\n        //\n        //  % To Contributors = 41% + (10% - % to SGT holders)\n        //\n        uint256 percentageToContributors = percent(41).add(percent(10).sub(percentageToSgt));\n\n        uint256 percentageToReserve = percent(29);\n\n\n        // SNT.totalSupply() -> Tokens minted during the contribution\n        //  totalTokens  -> Total tokens that should be after the allocation\n        //                   of devTokens, sgtTokens and reserve\n        //  percentageToContributors -> Which percentage should go to the\n        //                               contribution participants\n        //                               (x per 10**18 format)\n        //  percent(100) -> 100% in (x per 10**18 format)\n        //\n        //                       percentageToContributors\n        //  SNT.totalSupply() = -------------------------- * totalTokens  =>\n        //                             percent(100)\n        //\n        //\n        //                            percent(100)\n        //  =>  totalTokens = ---------------------------- * SNT.totalSupply()\n        //                      percentageToContributors\n        //\n        uint256 totalTokens = SNT.totalSupply().mul(percent(100)).div(percentageToContributors);\n\n\n        // Generate tokens for SGT Holders.\n\n        //\n        //                    percentageToReserve\n        //  reserveTokens = ----------------------- * totalTokens\n        //                      percentage(100)\n        //\n        assert(SNT.generateTokens(\n            destTokensReserve,\n            totalTokens.mul(percentageToReserve).div(percent(100))));\n\n        //\n        //                  percentageToSgt\n        //  sgtTokens = ----------------------- * totalTokens\n        //                   percentage(100)\n        //\n        assert(SNT.generateTokens(\n            destTokensSgt,\n            totalTokens.mul(percentageToSgt).div(percent(100))));\n\n\n        //\n        //                   percentageToDevs\n        //  devTokens = ----------------------- * totalTokens\n        //                   percentage(100)\n        //\n        assert(SNT.generateTokens(\n            destTokensDevs,\n            totalTokens.mul(percentageToDevs).div(percent(100))));\n\n        SNT.changeController(sntController);\n\n        emit Finalized();\n    }\n\n    function percent(uint256 p) internal pure returns (uint256) {\n        return p.mul(10**16);\n    }\n\n    /// @dev Internal function to determine if an address is a contract\n    /// @param _addr The address being queried\n    /// @return True if `_addr` is a contract\n    function isContract(address _addr) view internal returns (bool) {\n        if (_addr == address(0)) return false;\n        uint256 size;\n        assembly {\n            size := extcodesize(_addr)\n        }\n        return (size > 0);\n    }\n\n\n    //////////\n    // Constant functions\n    //////////\n\n    /// @return Total tokens issued in weis.\n    function tokensIssued() public view returns (uint256) {\n        return SNT.totalSupply();\n    }\n\n    /// @return Total Ether collected.\n    function totalCollected() public view returns (uint256) {\n        return totalNormalCollected.add(totalGuaranteedCollected);\n    }\n\n\n    //////////\n    // Testing specific methods\n    //////////\n\n    /// @notice This function is overridden by the test Mocks.\n    function getBlockNumber() internal view returns (uint256) {\n        return block.number;\n    }\n\n\n    //////////\n    // Safety Methods\n    //////////\n\n    /// @notice This method can be used by the controller to extract mistakenly\n    ///  sent tokens to this contract.\n    /// @param _token The address of the token contract that you want to recover\n    ///  set to 0 in case you want to extract ether.\n    function claimTokens(address _token) public onlyOwner {\n        if (SNT.controller() == address(this)) {\n            SNT.claimTokens(_token);\n        }\n        if (_token == address(0)) {\n            payable(owner).transfer(address(this).balance);\n            return;\n        }\n\n        ERC20Token token = ERC20Token(_token);\n        uint256 balance = token.balanceOf(address(this));\n        token.transfer(owner, balance);\n        emit ClaimedTokens(_token, owner, balance);\n    }\n\n\n    /// @notice Pauses the contribution if there is any issue\n    function pauseContribution() public onlyOwner {\n        paused = true;\n    }\n\n    /// @notice Resumes the contribution\n    function resumeContribution() public onlyOwner {\n        paused = false;\n    }\n\n    event ClaimedTokens(address indexed _token, address indexed _controller, uint256 _amount);\n    event NewSale(address indexed _th, uint256 _amount, uint256 _tokens, bool _guaranteed);\n    event GuaranteedAddress(address indexed _th, uint256 _limit);\n    event Finalized();\n}\n\n\n/*\n    Copyright 2017, Jordi Baylina\n\n    This program is free software: you can redistribute it and/or modify\n    it under the terms of the GNU General Public License as published by\n    the Free Software Foundation, either version 3 of the License, or\n    (at your option) any later version.\n\n    This program is distributed in the hope that it will be useful,\n    but WITHOUT ANY WARRANTY; without even the implied warranty of\n    MERCHANTABILITY or FITNESS FOR A PARTICULAR PURPOSE.  See the\n    GNU General Public License for more details.\n\n    You should have received a copy of the GNU General Public License\n    along with this program.  If not, see <http://www.gnu.org/licenses/>.\n */\n\n/// @title ContributionWallet Contract\n/// @author Jordi Baylina\n/// @dev This contract will be hold the Ether during the contribution period.\n///  The idea of this contract is to avoid recycling Ether during the contribution\n///  period. So all the ETH collected will be locked here until the contribution\n///  period ends\n\n// @dev Contract to hold sale raised funds during the sale period.\n// Prevents attack in which the Aragon Multisig sends raised ether\n// to the sale contract to mint tokens to itself, and getting the\n// funds back immediately.\n\n\n\ncontract ContributionWallet {\n\n    // Public variables\n    address public multisig;\n    uint256 public endBlock;\n    StatusContribution public contribution;\n\n    // @dev Constructor initializes public variables\n    // @param _multisig The address of the multisig that will receive the funds\n    // @param _endBlock Block after which the multisig can request the funds\n    // @param _contribution Address of the StatusContribution contract\n    constructor(address _multisig, uint256 _endBlock, address _contribution) {\n        require(_multisig != address(0));\n        require(_contribution != address(0));\n        require(_endBlock != 0 && _endBlock <= 4000000);\n        multisig = _multisig;\n        endBlock = _endBlock;\n        contribution = StatusContribution(payable(_contribution));\n    }\n\n    // @dev Receive all sent funds without any further logic\n    receive() external payable {}\n\n    // @dev Withdraw function sends all the funds to the wallet if conditions are correct\n    function withdraw() public {\n        require(msg.sender == multisig);              // Only the multisig can request it\n        require(block.number > endBlock ||            // Allow after end block\n                contribution.finalizedBlock() != 0);  // Allow when sale is finalized\n        payable(multisig).transfer(address(this).balance);\n    }\n\n}\n\n\n/*\n    Copyright 2017, Jordi Baylina\n\n    This program is free software: you can redistribute it and/or modify\n    it under the terms of the GNU General Public License as published by\n    the Free Software Foundation, either version 3 of the License, or\n    (at your option) any later version.\n\n    This program is distributed in the hope that it will be useful,\n    but WITHOUT ANY WARRANTY; without even the implied warranty of\n    MERCHANTABILITY or FITNESS FOR A PARTICULAR PURPOSE.  See the\n    GNU General Public License for more details.\n\n    You should have received a copy of the GNU General Public License\n    along with this program.  If not, see <http://www.gnu.org/licenses/>.\n */\n\n/// @title DevTokensHolder Contract\n/// @author Jordi Baylina\n/// @dev This contract will hold the tokens of the developers.\n///  Tokens will not be able to be collected until 6 months after the contribution\n///  period ends. And it will be increasing linearly until 2 years.\n\n\n//  collectable tokens\n//   |                         _/--------   vestedTokens rect\n//   |                       _/\n//   |                     _/\n//   |                   _/\n//   |                 _/\n//   |               _/\n//   |             _/\n//   |           _/\n//   |          |\n//   |        . |\n//   |      .   |\n//   |    .     |\n//   +===+======+--------------+----------> time\n//     Contrib   6 Months       24 Months\n//       End\n\n\n\ncontract DevTokensHolder is Owned {\n    using SafeMath for uint256;\n\n    uint256 collectedTokens;\n    StatusContribution contribution;\n    MiniMeToken snt;\n\n    constructor(address _owner, address _contribution, address _snt) {\n        owner = _owner;\n        contribution = StatusContribution(payable(_contribution));\n        snt = MiniMeToken(payable(_snt));\n    }\n\n\n    /// @notice The Dev (Owner) will call this method to extract the tokens\n    function collectTokens() public onlyOwner {\n        uint256 balance = snt.balanceOf(address(this));\n        uint256 total = collectedTokens.add(balance);\n\n        uint256 finalizedTime = contribution.finalizedTime();\n\n        require(finalizedTime > 0 && getTime() > finalizedTime.add(months(6)));\n\n        uint256 canExtract = total.mul(getTime().sub(finalizedTime)).div(months(24));\n\n        canExtract = canExtract.sub(collectedTokens);\n\n        if (canExtract > balance) {\n            canExtract = balance;\n        }\n\n        collectedTokens = collectedTokens.add(canExtract);\n        assert(snt.transfer(owner, canExtract));\n\n        emit TokensWithdrawn(owner, canExtract);\n    }\n\n    function months(uint256 m) internal pure returns (uint256) {\n        return m.mul(30 days);\n    }\n\n    function getTime() internal view returns (uint256) {\n        return block.timestamp;\n    }\n\n\n    //////////\n    // Safety Methods\n    //////////\n\n    /// @notice This method can be used by the controller to extract mistakenly\n    ///  sent tokens to this contract.\n    /// @param _token The address of the token contract that you want to recover\n    ///  set to 0 in case you want to extract ether.\n    function claimTokens(address _token) public onlyOwner {\n        require(_token != address(snt));\n        if (_token == address(0)) {\n            payable(owner).transfer(address(this).balance);\n            return;\n        }\n\n        ERC20Token token = ERC20Token(_token);\n        uint256 balance = token.balanceOf(address(this));\n        token.transfer(owner, balance);\n        emit ClaimedTokens(_token, owner, balance);\n    }\n\n    event ClaimedTokens(address indexed _token, address indexed _controller, uint256 _amount);\n    event TokensWithdrawn(address indexed _holder, uint256 _amount);\n}\n\n\n/*\n    Copyright 2017, Jordi Baylina\n\n    This program is free software: you can redistribute it and/or modify\n    it under the terms of the GNU General Public License as published by\n    the Free Software Foundation, either version 3 of the License, or\n    (at your option) any later version.\n\n    This program is distributed in the hope that it will be useful,\n    but WITHOUT ANY WARRANTY; without even the implied warranty of\n    MERCHANTABILITY or FITNESS FOR A PARTICULAR PURPOSE.  See the\n    GNU General Public License for more details.\n\n    You should have received a copy of the GNU General Public License\n    along with this program.  If not, see <http://www.gnu.org/licenses/>.\n */\n\n/// @title SGTExchanger Contract\n/// @author Jordi Baylina\n/// @dev This contract will be used to distribute SNT between SGT holders.\n///  SGT token is not transferable, and we just keep an accounting between all tokens\n///  deposited and the tokens collected.\n///  The controllerShip of SGT should be transferred to this contract before the\n///  contribution period starts.\n\n\ncontract SGTExchanger is TokenController, Owned {\n    using SafeMath for uint256;\n\n    mapping (address => uint256) public collected;\n    uint256 public totalCollected;\n    MiniMeToken public sgt;\n    MiniMeToken public snt;\n    StatusContribution public statusContribution;\n\n    constructor(address _sgt, address _snt, address _statusContribution) {\n        sgt = MiniMeToken(payable(_sgt));\n        snt = MiniMeToken(payable(_snt));\n        statusContribution = StatusContribution(payable(_statusContribution));\n    }\n\n    /// @notice This method should be called by the SGT holders to collect their\n    ///  corresponding SNTs\n    function collect() public {\n        uint256 finalizedBlock = statusContribution.finalizedBlock();\n\n        require(finalizedBlock != 0);\n        require(getBlockNumber() > finalizedBlock);\n\n        uint256 total = totalCollected.add(snt.balanceOf(address(this)));\n\n        uint256 balance = sgt.balanceOfAt(msg.sender, finalizedBlock);\n\n        // First calculate how much correspond to him\n        uint256 amount = total.mul(balance).div(sgt.totalSupplyAt(finalizedBlock));\n\n        // And then subtract the amount already collected\n        amount = amount.sub(collected[msg.sender]);\n\n        require(amount > 0);  // Notify the user that there are no tokens to exchange\n\n        totalCollected = totalCollected.add(amount);\n        collected[msg.sender] = collected[msg.sender].add(amount);\n\n        assert(snt.transfer(msg.sender, amount));\n\n        emit TokensCollected(msg.sender, amount);\n    }\n\n    function proxyPayment(address) public payable override returns (bool) {\n        revert();\n    }\n\n    function onTransfer(address, address, uint256) public override returns (bool) {\n        return false;\n    }\n\n    function onApprove(address, address, uint256) public override returns (bool) {\n        return false;\n    }\n\n    //////////\n    // Testing specific methods\n    //////////\n\n    /// @notice This function is overridden by the test Mocks.\n    function getBlockNumber() internal view returns (uint256) {\n        return block.number;\n    }\n\n    //////////\n    // Safety Method\n    //////////\n\n    /// @notice This method can be used by the controller to extract mistakenly\n    ///  sent tokens to this contract.\n    /// @param _token The address of the token contract that you want to recover\n    ///  set to 0 in case you want to extract ether.\n    function claimTokens(address _token) public onlyOwner {\n        require(_token != address(snt));\n        if (_token == address(0)) {\n            payable(owner).transfer(address(this).balance);\n            return;\n        }\n\n        ERC20Token token = ERC20Token(_token);\n        uint256 balance = token.balanceOf(address(this));\n        token.transfer(owner, balance);\n        emit ClaimedTokens(_token, owner, balance);\n    }\n\n    event ClaimedTokens(address indexed _token, address indexed _controller, uint256 _amount);\n    event TokensCollected(address indexed _holder, uint256 _amount);\n\n}\n\n/*\n    Copyright 2017, Jordi Baylina\n\n    This program is free software: you can redistribute it and/or modify\n    it under the terms of the GNU General Public License as published by\n    the Free Software Foundation, either version 3 of the License, or\n    (at your option) any later version.\n\n    This program is distributed in the hope that it will be useful,\n    but WITHOUT ANY WARRANTY; without even the implied warranty of\n    MERCHANTABILITY or FITNESS FOR A PARTICULAR PURPOSE.  See the\n    GNU General Public License for more details.\n\n    You should have received a copy of the GNU General Public License\n    along with this program.  If not, see <http://www.gnu.org/licenses/>.\n */\n\n/// @title SNTPlaceholder Contract\n/// @author Jordi Baylina\n/// @dev The SNTPlaceholder contract will take control over the SNT after the contribution\n///  is finalized and before the Status Network is deployed.\n///  The contract allows for SNT transfers and transferFrom and implements the\n///  logic for transferring control of the token to the network when the offering\n///  asks it to do so.\n\n\ncontract SNTPlaceHolder is TokenController, Owned {\n    using SafeMath for uint256;\n\n    MiniMeToken public snt;\n    StatusContribution public contribution;\n    uint256 public activationTime;\n    address public sgtExchanger;\n\n    /// @notice Constructor\n    /// @param _owner Trusted owner for this contract.\n    /// @param _snt SNT token contract address\n    /// @param _contribution StatusContribution contract address\n    /// @param _sgtExchanger SGT-SNT Exchange address. (During the first week\n    ///  only this exchanger will be able to move tokens)\n    constructor(address _owner, address _snt, address _contribution, address _sgtExchanger) {\n        owner = _owner;\n        snt = MiniMeToken(payable(_snt));\n        contribution = StatusContribution(payable(_contribution));\n        sgtExchanger = _sgtExchanger;\n    }\n\n    /// @notice The owner of this contract can change the controller of the SNT token\n    ///  Please, be sure that the owner is a trusted agent or 0x0 address.\n    /// @param _newController The address of the new controller\n\n    function changeController(address _newController) public onlyOwner {\n        snt.changeController(_newController);\n        emit ControllerChanged(_newController);\n    }\n\n\n    //////////\n    // MiniMe Controller Interface functions\n    //////////\n\n    // In between the offering and the network. Default settings for allowing token transfers.\n    function proxyPayment(address) public payable override returns (bool) {\n        return false;\n    }\n\n    function onTransfer(address _from, address, uint256) public override returns (bool) {\n        return transferable(_from);\n    }\n\n    function onApprove(address _from, address, uint256) public override returns (bool) {\n        return transferable(_from);\n    }\n\n    function transferable(address _from) internal returns (bool) {\n        // Allow the exchanger to work from the beginning\n        if (activationTime == 0) {\n            uint256 f = contribution.finalizedTime();\n            if (f > 0) {\n                activationTime = f.add(1 weeks);\n            } else {\n                return false;\n            }\n        }\n        return (getTime() > activationTime) || (_from == sgtExchanger);\n    }\n\n\n    //////////\n    // Testing specific methods\n    //////////\n\n    /// @notice This function is overrided by the test Mocks.\n    function getTime() internal view returns (uint256) {\n        return block.timestamp;\n    }\n\n\n    //////////\n    // Safety Methods\n    //////////\n\n    /// @notice This method can be used by the controller to extract mistakenly\n    ///  sent tokens to this contract.\n    /// @param _token The address of the token contract that you want to recover\n    ///  set to 0 in case you want to extract ether.\n    function claimTokens(address _token) public onlyOwner {\n        if (snt.controller() == address(this)) {\n            snt.claimTokens(_token);\n        }\n        if (_token == address(0)) {\n            payable(owner).transfer(address(this).balance);\n            return;\n        }\n\n        ERC20Token token = ERC20Token(_token);\n        uint256 balance = token.balanceOf(address(this));\n        token.transfer(owner, balance);\n        emit ClaimedTokens(_token, owner, balance);\n    }\n\n    event ClaimedTokens(address indexed _token, address indexed _controller, uint256 _amount);\n    event ControllerChanged(address indexed _newController);\n}\n",
  "sourcePath": "/home/lanlu/VLDB26_new/OCELOT/declarative-smart-contracts/Reference/sntref.sol",
  "compiler": {
    "name": "solc",
    "version": "0.8.12+commit.f00d7308.Emscripten.clang"
  },
  "schemaVersion": "3.4.16",
  "updatedAt": "2026-04-17T23:30:56.596Z",
  "devdoc": {
    "author": "Jordi Baylina",
    "details": "This contract will be used to distribute SNT between SGT holders.  SGT token is not transferable, and we just keep an accounting between all tokens  deposited and the tokens collected.  The controllerShip of SGT should be transferred to this contract before the  contribution period starts.",
    "kind": "dev",
    "methods": {
      "changeOwner(address)": {
        "params": {
          "_newOwner": "The address of the new owner. 0x0 can be used to create  an unowned neutral vault, however that cannot be undone"
        }
      },
      "claimTokens(address)": {
        "params": {
          "_token": "The address of the token contract that you want to recover  set to 0 in case you want to extract ether."
        }
      }
    },
    "title": "SGTExchanger Contract",
    "version": 1
  },
  "userdoc": {
    "kind": "user",
    "methods": {
      "changeOwner(address)": {
        "notice": "`owner` can step down and assign some other address to this role"
      },
      "claimTokens(address)": {
        "notice": "This method can be used by the controller to extract mistakenly  sent tokens to this contract."
      },
      "collect()": {
        "notice": "This method should be called by the SGT holders to collect their  corresponding SNTs"
      }
    },
    "version": 1
  }
}